:020000040800F2
:100000000000022075340008193400081B34000871
:100010001D3400081F3400082134000800000000CF
:10002000000000000000000000000000E172000875
:10003000233400080000000071730008435D0008CD
:10004000C5340008C5340008C5340008C5340008AC
:10005000C5340008C5340008C5340008C53400089C
:10006000C5340008C5340008C5340008C53400088C
:10007000C5340008C5340008C5340008C53400087C
:10008000C5340008C5340008C5340008C53400086C
:10009000C5340008C5340008C5340008C53400085C
:1000A000C534000825340008C5340008C5340008EC
:1000B000C5340008C5340008C5340008C53400083C
:1000C000C5340008C5340008C5340008C53400082C
:1000D000C5340008C5340008C534000831340008B0
:1000E000C5340008C5340008C5340008C53400080C
:1000F000C5340008C5340008C5340008C5340008FC
:10010000C5340008C5340008C5340008C5340008EB
:10011000C5340008C53400083D340008C534000863
:1001200049340008C534000855340008C5340008B7
:10013000C5340008C5340008C5340008C5340008BB
:10014000C5340008C5340008C5340008C5340008AB
:10015000C5340008C5340008C5340008C53400089B
:10016000C5340008C5340008C5340008C53400088B
:10017000C5340008C5340008C5340008000000007C
:08018000C5340008C534000875
:1001900010B5054C237833B9044B13B10448AFF3C1
:1001A00000800123237010BD4C01002000000000DE
:1001B000607C000808B5034B1BB103490348AFF34B
:1001C000008008BD0000000050010020607C000895
:1001D00081F0004102E000BF83F0004330B54FEAF8
:1001E00041044FEA430594EA050F08BF90EA020F65
:1001F0001FBF54EA000C55EA020C7FEA645C7FEAF8
:10020000655C00F0E2804FEA5454D4EB5555B8BF1A
:100210006D420CDD2C4480EA020281EA030382EA8B
:10022000000083EA010180EA020281EA0303362D1D
:1002300088BF30BD11F0004F4FEA01314FF4801CF0
:100240004CEA113102D0404261EB410113F0004F02
:100250004FEA03334CEA133302D0524263EB4303B9
:1002600094EA050F00F0A780A4F10104D5F1200E57
:100270000DDB02FA0EFC22FA05F2801841F10001B2
:1002800003FA0EF2801843FA05F359410EE0A5F186
:1002900020050EF1200E012A03FA0EFC28BF4CF0B7
:1002A000020C43FA05F3C01851EBE37101F000456D
:1002B00007D54FF0000EDCF1000C7EEB00006EEB7A
:1002C0000101B1F5801F1BD3B1F5001F0CD3490804
:1002D0005FEA30004FEA3C0C04F101044FEA44525B
:1002E00012F5800F80F09A80BCF1004F08BF5FEAE2
:1002F000500C50F1000041EB045141EA050130BDC2
:100300005FEA4C0C404141EB0101013C28BFB1F5D3
:10031000801FE9D291F0000F04BF01460020B1FA1E
:1003200081F308BF2033A3F10B03B3F120020CDAF1
:100330000C3208DD02F1140CC2F10C0201FA0CF0CF
:1003400021FA02F10CE002F11402D8BFC2F1200C34
:1003500001FA02F120FA0CFCDCBF41EA0C019040EA
:10036000E41AA2BF01EB0451294330BD6FEA040433
:100370001F3C1CDA0C340EDC04F11404C4F120021E
:1003800020FA04F001FA02F340EA030021FA04F330
:1003900045EA030130BDC4F10C04C4F1200220FA87
:1003A00002F001FA04F340EA0300294630BD21FAC5
:1003B00004F0294630BD94F0000F83F4801306BF8B
:1003C00081F480110134013D4EE77FEA645C18BF7F
:1003D0007FEA655C29D094EA050F08BF90EA020F16
:1003E00005D054EA000C04BF1946104630BD91EA0E
:1003F000030F1EBF0021002030BD5FEA545C05D111
:100400004000494128BF41F0004130BD14F580044F
:100410003CBF01F5801130BD01F0004545F0FE41C3
:1004200041F470014FF0000030BD7FEA645C1ABFF8
:10043000194610467FEA655C1CBF0B46024650EA2F
:10044000013406BF52EA033591EA030F41F400215B
:1004500030BD00BF90F0000F04BF0021704730B5E1
:100460004FF4806404F132044FF000054FF00001B6
:1004700050E700BF90F0000F04BF0021704730B577
:100480004FF4806404F1320410F0004548BF40424C
:100490004FF000013EE700BF42004FEAE2014FEAA1
:1004A00031014FEA02701FBF12F07F4393F07F4F7C
:1004B00081F06051704732F07F4208BF704793F07F
:1004C0007F4F04BF41F40021704730B54FF4607492
:1004D00001F0004521F000411CE700BF50EA010295
:1004E00008BF704730B54FF000050AE050EA01023E
:1004F00008BF704730B511F0004502D5404261EBAE
:1005000041014FF4806404F132045FEA915C3FF4EE
:10051000D8AE4FF003025FEADC0C18BF03325FEA8B
:10052000DC0C18BF033202EBDC02C2F1200300FA3C
:1005300003FC20FA02F001FA03FE40EA0E0021FA61
:1005400002F11444BDE600BF70B54FF0FF0C4CF44F
:10055000E06C1CEA11541DBF1CEA135594EA0C0F01
:1005600095EA0C0F00F0DEF82C4481EA030621EA3C
:100570004C5123EA4C5350EA013518BF52EA033577
:1005800041F4801143F4801338D0A0FB02CE4FF029
:100590000005E1FB02E506F00042E0FB03E54FF059
:1005A0000006E1FB03569CF0000F18BF4EF0010E51
:1005B000A4F1FF04B6F5007F64F5407404D25FEA4D
:1005C0004E0E6D4146EB060642EAC62141EA555100
:1005D0004FEAC52040EA5E504FEACE2EB4F1FD0C42
:1005E00088BFBCF5E06F1ED8BEF1004F08BF5FEAC0
:1005F000500E50F1000041EB045170BD06F0004672
:1006000046EA010140EA020081EA0301B4EB5C041E
:10061000C2BFD4EB0C0541EA045170BD41F4801116
:100620004FF0000E013C00F3AB8014F1360FDEBF3B
:10063000002001F0004170BDC4F10004203C35DA17
:100640000C341BDC04F11404C4F1200500FA05F39A
:1006500020FA04F001FA05F240EA020001F000423B
:1006600021F0004110EBD37021FA04F642EB0601B1
:100670005EEA430E08BF20EAD37070BDC4F10C04DB
:10068000C4F1200500FA04F320FA05F001FA04F29F
:1006900040EA020001F0004110EBD37041F100018B
:1006A0005EEA430E08BF20EAD37070BDC4F1200596
:1006B00000FA05F24EEA020E20FA04F301FA05F2FE
:1006C00043EA020321FA04F001F0004121FA04F2A6
:1006D00020EA020000EBD3705EEA430E08BF20EA76
:1006E000D37070BD94F0000F0FD101F000464000B0
:1006F00041EB010111F4801F08BF013CF7D041EA32
:10070000060195F0000F18BF704703F00046520035
:1007100043EB030313F4801F08BF013DF7D043EA06
:100720000603704794EA0C0F0CEA135518BF95EABC
:100730000C0F0CD050EA410618BF52EA4306D1D143
:1007400081EA030101F000414FF0000070BD50EA62
:10075000410606BF1046194652EA430619D094EAEC
:100760000C0F02D150EA013613D195EA0C0F05D1D6
:1007700052EA03361CBF104619460AD181EA03012A
:1007800001F0004141F0FE4141F470014FF00000E2
:1007900070BD41F0FE4141F4780170BD70B54FF07D
:1007A000FF0C4CF4E06C1CEA11541DBF1CEA1355FD
:1007B00094EA0C0F95EA0C0F00F0A7F8A4EB0504DF
:1007C00081EA030E52EA03354FEA013100F08880D6
:1007D0004FEA03334FF0805545EA131343EA12639F
:1007E0004FEA022245EA111545EA10654FEA002654
:1007F0000EF000419D4208BF964244F1FD0404F50D
:10080000407402D25B084FEA3202B61A65EB030568
:100810005B084FEA32024FF480104FF4002CB6EB25
:10082000020E75EB030E22BFB61A754640EA0C00A5
:100830005B084FEA3202B6EB020E75EB030E22BFE5
:10084000B61A754640EA5C005B084FEA3202B6EB26
:10085000020E75EB030E22BFB61A754640EA9C00E5
:100860005B084FEA3202B6EB020E75EB030E22BFB5
:10087000B61A754640EADC0055EA060E18D04FEA73
:10088000051545EA16754FEA06164FEAC30343EA13
:1008900052734FEAC2025FEA1C1CC0D111F4801FE0
:1008A0000BD141EA00014FF000004FF0004CB6E7D9
:1008B00011F4801F04BF01430020B4F1FD0C88BF78
:1008C000BCF5E06F3FF6AFAEB5EB030C04BFB6EB83
:1008D000020C5FEA500C50F1000041EB045170BD76
:1008E0000EF0004E4EEA113114EB5C04C2BFD4EBA3
:1008F0000C0541EA045170BD41F480114FF0000E27
:10090000013C90E645EA060E8DE60CEA135594EAA2
:100910000C0F08BF95EA0C0F3FF43BAF94EA0C0FA5
:100920000AD150EA01347FF434AF95EA0C0F7FF41A
:1009300025AF104619462CE795EA0C0F06D152EA6E
:1009400003353FF4FDAE1046194622E750EA410652
:1009500018BF52EA43067FF4C5AE50EA41047FF463
:100960000DAF52EA43057FF4EBAE12E74FF0FF3CC8
:1009700006E000BF4FF0010C02E000BF4FF0010C99
:100980004DF804CD4FEA410C7FEA6C5C4FEA430C12
:1009900018BF7FEA6C5C1BD001B050EA410C0CBF61
:1009A00052EA430C91EA030F02BF90EA020F0020C3
:1009B000704710F1000F91EA030F58BF994208BF2A
:1009C00090422CBFD8176FEAE37040F001007047E7
:1009D0004FEA410C7FEA6C5C02D150EA013C07D13E
:1009E0004FEA430C7FEA6C5CD6D152EA033CD3D089
:1009F0005DF8040B704700BF8446104662468C4683
:100A00001946634600E000BF01B5FFF7B7FF0028B5
:100A100048BF10F1000F01BD4DF808EDFFF7F4FFDE
:100A20000CBF012000205DF808FB00BF4DF808ED69
:100A3000FFF7EAFF34BF012000205DF808FB00BF8C
:100A40004DF808EDFFF7E0FF94BF012000205DF8AE
:100A500008FB00BF4DF808EDFFF7CEFF94BF012063
:100A600000205DF808FB00BF4DF808EDFFF7C4FF5C
:100A700034BF012000205DF808FB00BF4A0011D2FE
:100A800012F5001211D20DD56FF47873B3EB6252E8
:100A90000ED44FEAC12343F0004343EA505323FAF4
:100AA00002F070474FF00000704750EA013002D169
:100AB0004FF0FF3070474FF0000070474FEA41029F
:100AC000B2F1E04324BFB3F5001CDCF1FE5C0DD9AC
:100AD00001F0004C4FEAC0024CEA5070B2F1004FF6
:100AE00040EB830008BF20F00100704711F0804FF9
:100AF00021D113F13872BCBF01F00040704741F4BE
:100B000080114FEA5252C2F11802C2F1200C10FAC1
:100B10000CF320FA02F018BF40F001004FEAC123A5
:100B20004FEAD32303FA0CFC40EA0C0023FA02F349
:100B30004FEA4303CCE77FEA625307D150EA01331F
:100B40001EBF4FF0FE4040F44000704701F00040EF
:100B500040F0FE4040F40000704700BF53B94AB96E
:100B6000002908BF00281CBF4FF0FF314FF0FF30B5
:100B700000F070B9ADF1080C6DE904CE00F006F894
:100B8000DDF804E0DDE9022304B070472DE9F04709
:100B9000089E0D4604460F46002B4AD18A429446D1
:100BA00065D9B2FA82F343B102FA03FCC3F1200221
:100BB0009F4020FA02F217439C404FEA1C4E1FFA56
:100BC0008CF5B7FBFEF1220C0EFB117742EA0742CF
:100BD00001FB05F090420AD91CEB020201F1FF373C
:100BE00080F01C81904240F2198102396244121A4D
:100BF000A4B2B2FBFEF00EFB102244EA024400FB5A
:100C000005F5A5420AD91CEB040400F1FF3280F07F
:100C10000781A54240F204816444023840EA014061
:100C2000641B00211EB1DC400023C6E90043BDE87F
:100C3000F0878B4208D9002E00F0ED800021C6E934
:100C400000050846BDE8F087B3FA83F1002949D1D1
:100C5000AB4202D3824200F2F880841A65EB0302B1
:100C600001201746002EE2D0C6E90047DFE702B9AF
:100C7000FFDEB2FA82F3002B40F090808A1A4FEA2E
:100C80001C471FFA8CFE0121B2FBF7F507FB15206C
:100C9000220C42EA00420EFB05F0904208D91CEB00
:100CA000020205F1FF3802D2904200F2CB804546A5
:100CB000121AA4B2B2FBF7F007FB102244EA024476
:100CC0000EFB00FEA64508D91CEB040400F1FF3220
:100CD00002D2A64500F2BB801046A4EB0E0440EA07
:100CE00005409FE7C1F120078B4022FA07FC4CEA40
:100CF000030C05FA01F420FA07F3FD404FEA1C4902
:100D00002343B5FBF9F81FFA8CFE09FB18551C0CA0
:100D100044EA054408FB0EF5A54202FA01F200FA86
:100D200001F00BD91CEB040408F1FF3A80F0888035
:100D3000A54240F28580A8F102086444641B9DB27C
:100D4000B4FBF9F309FB134445EA044403FB0EFE2C
:100D5000A64508D91CEB040403F1FF356CD2A64567
:100D60006AD9023B644443EA0843A3FB0295A4EB1F
:100D70000E04AC42C846AE4656D353D056B1B0EB83
:100D8000080264EB0E0404FA07F7CA40CC4017438C
:100D9000C6E9007418460021BDE8F087C3F12001C0
:100DA00002FA03FC20FA01F225FA01F19D402A43E0
:100DB0004FEA1C471FFA8CFEB1FBF7F007FB10153A
:100DC000110C41EA054100FB0EF58D4204FA03F4D3
:100DD00008D91CEB010100F1FF382FD28D422DD92B
:100DE00002386144491B92B2B1FBF7F507FB1511BC
:100DF00042EA014205FB0EF1914208D91CEB0202C6
:100E000005F1FF3816D2914214D9023D6244521ABC
:100E100045EA004138E73146304608E73946E6E61C
:100E20001046FBE64845A9D2B9EB020865EB0C0E6B
:100E3000013BA3E74546EAE72B4694E74046D1E766
:100E4000D0467BE7023D624432E708460AE7644445
:100E5000023842E7704700BF00B595B02C22002150
:100E600009A806F0BBFE1422002103A806F0B6FE76
:100E70000023194A0193116C41F080511164126CE6
:100E800002F080520192019A144A0293116841F4CF
:100E90008041116012680E9302F480420292029A1D
:100EA0000222089201201022CDE90B0208A803F0CB
:100EB0008FFB014608B172B6FEE70F23CDE9033080
:100EC000CDE90500079003A803F05CFD08B172B6F8
:100ED000FEE715B05DF804FB0038024000700040EA
:100EE0002DE9F0439FB00024A94D02F0EDFAFFF781
:100EF000B3FF1422002115A806F070FE02942B6B9C
:100F0000A44843F010032B632B6B03F010030293F0
:100F1000029B03942B6B43F080032B632B6B03F03A
:100F200080030393039B04942B6B43F004032B6314
:100F30002B6B03F004030493049B05942B6B43F089
:100F400001032B632B6B03F001030593059B0694B0
:100F50002B6B43F008032B632B6B03F00803069302
:100F6000069B07942B6B43F002032B632B6B03F060
:100F70000203079322464FF45E61079B02F0EAFEEC
:100F8000224685483C2102F0E5FE01264FF45E63CF
:100F9000804815A9CDE91536CDE9174402F000FEC9
:100FA0003C23CDE915367C481794022315A91893E4
:100FB00002F0F6FD4FF480737848179415A9CDE937
:100FC0001534202702F0ECFD7548179415A9CDE9DA
:100FD000157402F0E5FD01942B6B43F480032B6341
:100FE0002B6B704D03F480032246052101933820BA
:100FF000019B02F0F1FB382002F020FC2246052183
:101000003A2002F0E9FB3A2002F018FC21463A4669
:1010100016A806F0E3FD4FF6FF784FF080434FF03F
:10102000030915A92846CDE90E44C5E90034C5E9F0
:101030000384AC60AC61CDF8549017961B9604F015
:101040002BF808B172B6FEE7CDE90E000EA92846CE
:1010500004F0EEFA054608B172B6FEE7014610222A
:101060000AA806F0BBFD1C2229460EA8CDE90855AA
:1010700006F0B4FD3A46294615A806F0AFFD4A4CE5
:10108000DFF838C1A560A023C4E900C34FF47A7328
:10109000C4E90335204680236561A36103F078FF2E
:1010A00008B172B6FEE74FF480530AA920460A93AE
:1010B00004F0AFF908B172B6FEE7204603F094FFE2
:1010C00008B172B6FEE7CDE9080008A9204604F091
:1010D000AFFA08B172B6FEE76023CDE90E30042303
:1010E000CDE91230109014900C220EA9204604F085
:1010F0005DF808B172B6FEE7CDE91500CDE917003D
:1011000019904FF400531C9015A920461A9304F02F
:10111000CDFA054608B172B6FEE7204602F0A4F803
:10112000224C23484FF4E133C0E900430C23C0E9CB
:101130000255C0E905350561C56104F0A1FB04460F
:1011400008B172B6FEE701463A4616A806F046FD1B
:101150001848194B046115A9CDE90E44C0E90034C3
:10116000C0E902488461CDF8549017961B9603F0AD
:1011700093FF08B172B6FEE700230E480EA9CDE931
:101180000E3304F055FA0546D0B172B6FEE700BF43
:10119000003802400010024000000240000C0240F3
:1011A00000040240C40300207C03002000480040EB
:1011B0002C0500200C040020000400400000014029
:1011C000102701463A4615A806F008FD8D4C8E4BB7
:1011D000A560C4E9003720464FF6FF73CDE90E55F0
:1011E000C4E90335A56103F0D3FE08B172B6FEE78A
:1011F0004FF4805615A92046159604F00AF908B157
:1012000072B6FEE7CDE90E000EA9204604F010FAF2
:1012100008B172B6FEE77D4B7D497E4A1862C3E98C
:1012200000124FF48042C3E90200C3E90420C3E97D
:101230000600184602F070FF044608B172B6FEE7D9
:1012400001463A460AA806F0C9FC1C2221460EA80F
:10125000CDE9084406F0C2FC2022214615A806F07C
:10126000BDFC6D4D6D4BAC60C5E90034284641F6C0
:101270001F43C5E90334C5E9054403F089FE08B1FD
:1012800072B6FEE70AA928460A9604F0C2F808B129
:1012900072B6FEE7284603F0A7FE08B172B6FEE775
:1012A000CDE9080008A9284604F0C2F9024608B1B1
:1012B00072B6FEE76023CDE90E30CDE91000CDE92E
:1012C000120014900EA9284603F070FF08B172B600
:1012D000FEE7514804220EA903F068FF08B172B678
:1012E000FEE7CDE91500CDE9170019904FF4005342
:1012F0001C9015A948481A9304F0D8F9054608B17E
:1013000072B6FEE74448464C464F01F0ADFF10224E
:10131000294615A806F062FC434BA560012620462D
:10132000C4E900352561267684F82050E562A7627D
:10133000E560E66184F83060666102F005F908B1A5
:1013400072B6FEE70B23179015A92046CDE9153696
:1013500002F0A0F9054608B172B6FEE7334C01462B
:10136000102215A806F03AFC314BA5602046C4E9CE
:101370000035C4E90A752561257684F82050E560BA
:10138000E66184F83060666102F0DEF808B172B69A
:10139000FEE70C23179015A92046CDE9153602F07B
:1013A00079F9044608B172B6FEE7CDE90E000146B0
:1013B000102215A806F012FC1E4D1F4BAC60C5E9AB
:1013C000003428464FF0FF33C5E90334AC6103F025
:1013D00037FE08B172B6FEE7CDE90E000EA9284629
:1013E00004F026F9024608B172B6FEE7CDE915060B
:1013F000CDE9170015A9284603F06CFF0446E8B1B3
:1014000072B6FEE7540400200008004028030020C4
:1014100000540040A0860100E404002000040140C4
:10142000D80100200100000F002001402002002010
:10143000002101409C040020000C004006F046FB07
:101440003E4B3F491A783F4804F063FC3E48032274
:10145000214606F0C5F93D4B3D4A5C806421197078
:101460003C4B12781C809A702046A24261DC3A4ABA
:101470003A4B13603A49916000235360D360136183
:10148000384A394953609360D36013611160374A19
:10149000374853604FF07F5111600C219360D36047
:1014A000136104F0C3F80021324804F0BFF80421AE
:1014B000304804F0BBF83C212F4803F004FC3C21E9
:1014C0002E4803F000FC04F049FC2D4A2D48002171
:1014D00004F070FC2C4B2D4A186000212C4804F0BD
:1014E00069FC2C4B2C4A186000212C4804F062FC4B
:1014F0002B4B2C4A186000212B4804F05BFC2B4B33
:101500002B4A186000212B4804F054FC2A4B2B4A2C
:10151000186000212A4804F04DFC2A4B2A4A186022
:1015200000212A4804F046FC294B186004F028FCEE
:10153000FEE71971D8800134043396E701000020DA
:10154000800100202C05002028030020CC01002071
:101550000000002090010020AC0500200000604049
:10156000CDCC4C3F98050020000020408405002091
:101570007C030020E4040020C40300200C040020AD
:10158000087E0008C11D00087C050020C07D000801
:101590009D1F000878010020547D0008B922000832
:1015A0006C010020E47D0008B91800087C010020CF
:1015B000787D0008C9250008700100209C7D000886
:1015C0006D28000874010020307D0008752B00088C
:1015D000680100202DE9F047A34BA44C93F802E0EA
:1015E0005878DE78DFF8CCC294F801A00A22A0F186
:1015F0003008AEF1300757435FFA88F2092AA6F1A6
:10160000300998BF642207EB090598BF02FB085513
:101610001A7823780021532A8CF800105CD15428C2
:101620002AD1934A9348126851639163924A15787C
:1016300005700B20107091480022026090480180D4
:101640009048C26002619048C26002618F48C260E7
:1016500002618F4A9A4511808E4B2BD164225980AA
:101660008D488E491A7006F0E5FA8D498D484FF67F
:10167000FF73062204F032F9637822789A420FD081
:1016800004EB830201335168824A83481160A278D7
:10169000B3FBF2F102FB11338349637006F0CAFA1F
:1016A0008048714903685B68804BBDE8F0471A7851
:1016B00004F02FBB04EB8A020AF1010A52681A6097
:1016C000A3787949BAFBF3F2734803FB12AA84F8B2
:1016D00001A006F0AFFACFE7462A21D100F0FB02C5
:1016E000532A4FEA830203F1010333D1BEF12D0FD8
:1016F00014D1A6F12D077E427E416D498CF8006021
:10170000533818BF01200870224401211171D5807F
:10171000A178B3FBF1F202FB11334CE00E46ECE78B
:10172000422A6FD100F0FB02532A4FEA830203F1F1
:1017300001032CD1BEF12D0F02D12D3E714271411A
:1017400053388CF800105A4918BF01200870224401
:101750000221DBE74C280CD1BEF12D0F07D12D2E35
:1017600005D101218CF8001003212244CEE7072186
:10177000FBE7522831D1BEF12D0F06D12D2E04D119
:1017800001218CF800100421EFE70821EDE7A17892
:10179000B3FBF1FA4C2801FB1A33DBB20FD1BEF1D7
:1017A0002D0F0AD12D2E08D101218CF80010052112
:1017B00022441171D58023705EE70921F8E7522891
:1017C00017D1BEF12D0F06D12D2E04D101218CF899
:1017D00000100621ECE70A21EAE7224412211171E8
:1017E000642101FB08714944D180A278B3FBF2F176
:1017F00091E7224413211171642101FB08774F44C2
:10180000D780D8E7542A0FD14C2806D104EB8302A5
:101810000B211171D5800133E7E752287FF42CAFFB
:1018200004EB83020C21F4E7492A06D152287FF405
:1018300023AF04EB83020D21EBE7442A06D15428A1
:101840007FF41AAF04EB83020E21E2E7412A03D1B1
:1018500004EB83025821DCE7432A7FF40DAF04EB4D
:1018600083025921D5E700BF8001002090010020AC
:10187000E404002037010020340100208C01002006
:10188000D4010020AC05002098050020840500202C
:10189000D0010020CC010020C2050020787C000887
:1018A0007E7C00082C050020857C000801000020BB
:1018B000360100207805002008B5084B0848422270
:1018C0001A70352130225A709970DA70FFF782FE53
:1018D0004FF47A7004F0B5FAFAE700BF80010020F7
:1018E0002C0500201FB5354C009402234FF6FF72E3
:1018F000CDE90132D02101233722314802F044FDE5
:10190000238830495BBA1AB207EE102A2E4A138098
:101910002E4A126812680A3312F0100F9BB214BFDD
:1019200001224FF0FF320E2B294B98BF9FED297AF1
:10193000D3ED007A0A7088BFB8EEC77A264937EE31
:10194000277A83ED007A254B93ED046AD3ED017A73
:10195000D3ED006AD3ED025A66EE277AE7EE267AD7
:10196000D3ED036A83ED037A77EE666A37EE067A83
:10197000E5EEA67A83ED047AFDEEE77A17EE903A6B
:101980008B42B8BF0B46B3F5C87F1549A8BF4FF4CB
:10199000C8730B6012FB03F39BB2124903F5966206
:1019A00092B20A80C3F596630F499BB20B800F4930
:1019B00009684A638B6304B010BD00BFC0050020F6
:1019C0002803002035010020D4010020C40300209A
:1019D0008C0100200000000070FEFFFFAC0500201D
:1019E000C80100208005002082050020E4040020BA
:1019F0007FB54FF6FF7C5B4E00960223CDE9013C9C
:101A000005460123372258480C46D02102F0BCFC81
:101A10003388564956485BBA1AB207EE102A554A1F
:101A20001380554A12681268043312F0100F9BB2EB
:101A300014BF01224FF0FF320F2B504B98BF9FED88
:101A4000507AD3ED007A0A7088BFB8EEC77A012DBC
:101A500037EE277A4B4983ED007A4ED14A4B93ED0E
:101A6000046AD3ED017AD3ED006AD3ED025A66EE33
:101A7000277A6FF4C876E7EE267A3544D3ED036A09
:101A800083ED037A77EE666A37EE067AE5EEA67A9C
:101A900083ED047AFDEEE77A17EE903AAB42B8BFD9
:101AA0002B46B3F5C87F394DA8BF4FF4C8732B60E0
:101AB00012FB03F39BB203F596620280C3F59663B3
:101AC0000B80028894ED007A314B07EE902AF8EEF5
:101AD000E77A1B680A8867EE877AFCEEE77AC3ED3F
:101AE0000D7A07EE902AF8EEE77A67EE877AFCEE39
:101AF000E77AC3ED0E7A04B070BD022DE1D1254B1B
:101B000093ED046AD3ED017AD3ED006AD3ED025A66
:101B100066EE277AA5F2BE25E7EE267AD3ED036AB4
:101B200083ED037A77EE666A37EE067AE5EEA67AFB
:101B300083ED047AFDEEE77A17EE903AAB42B8BF38
:101B40002B46B3F52F7F114DA8BF4FF42F732B6099
:101B500012FB03F39BB203F6B832C3F53B6302807A
:101B60000833ADE7C0050020280300203501002020
:101B700080050020D4010020C40300208C01002037
:101B8000000000008205002098050020C801002008
:101B9000E4040020840500202DE9F84F1446764A1D
:101BA000764DDFF80C82764FDFF808A2DFF808B236
:101BB00000230E4673492DED028B136000220A802C
:101BC00071492A80CB600B617049CB600B61704911
:101BD000CB600B610068FEF75FFC61A3D3E90023D3
:101BE000FEF7B2FC60A3D3E90023FEF7F5FA694BD8
:101BF0000022FEF7A9FC684B0022FEF7CFFD674BE1
:101C00000022FEF7E9FAFEF739FFA8F8000001F01C
:101C100081FCB6FA86F94FEA59194A463860042120
:101C20005F4802F097F8003E18BF012632465C4834
:101C3000082102F08FF84A465948DFF880912021A8
:101C400002F088F832465648564E102102F082F8CB
:101C5000DAF800305B6AA9F80030DAF80030B9F839
:101C60000020596A1B68DB0622D591428BB288BFDF
:101C700002F1FF32D21A93B22A88ABF80030134433
:101C80002B80A9F8001005F017FE2A88B8F800305C
:101C90009A4259D201F03EFC3B68C01A0928DCD9AF
:101CA00074B92046FFF71EFE01F034FC3860D4E71B
:101CB0008B1A9BB291423CBF03F1FF339BB2DBE72F
:101CC000B8F800202B889B1A002BB8BF5B4240F26B
:101CD000DE32B3FBF2F307EE903A012CB8EEE78A5E
:101CE00016D1F7EE007AB4EEE78AF1EE10FA28DCAE
:101CF000F6EE087AB4EE678AF1EE10FA48BFB0EE5D
:101D0000678A3146204686ED008AFFF771FECBE7F1
:101D1000022CF6D1F7EE007AB4EEE78AF1EE10FA73
:101D20000FDC18EE100AFEF7B7FB11A3D3E900236E
:101D3000FEF77CFEDFED1C7A002818BFB0EE678A44
:101D4000DFE7B0EE678ADCE7BDEC028B174B1B6860
:101D500000225A639A63BDE8F88F00BFAFF300809A
:101D60002AB266FCAC66F23FF82625BBD4E3EE3F10
:101D70009A9999999999D93F8C010020D001002016
:101D800074050020D4010020AC0500209805002037
:101D90008405002000A0944000003440000024404E
:101DA0000000024038010020CDCCCC3EE4040020ED
:101DB000DC050020C4030020D201002070050020B3
:101DC0007FB52C4E2C4C00250C23009301350A23A3
:101DD000194618462A4605F007FE05F06DFD3178D4
:101DE000A1F10C03012B1FD94FF47A7004F029F8EC
:101DF000224B327800211960214B1A70214A0B23A3
:101E0000107833705378984223D1642361801E4840
:101E10001E49237005F00EFF1D491E484FF6FF7343
:101E2000062203F05BFDCFE71B4B1B6894221A646C
:101E3000638807EE903AA1F10C03F8EE677A5942F5
:101E40004FF00002594103A8CDED037AFFF7A4FE3D
:101E5000CEE702EB83010133496821609178B3FB3F
:101E6000F1F001FB10330D490748537005F0E2FE15
:101E7000AAE700BF34010020CC010020C4010020EB
:101E80003701002090010020C2050020787C000866
:101E90007E7C00082C0500207C030020857C000847
:101EA0002DE9F04F364DDFF8ECA0DFF8ECB0002361
:101EB0002B6085B000230446AAF800300FF2B00969
:101EC000D9E9008901F026FBCBF8000001F022FBE4
:101ED000DBF80030C01A0928F8D92A4E00960223F0
:101EE0004FF6FF72CDE90132D02101233722264877
:101EF00002F04AFA308840BAAAF8000000B2FEF7B1
:101F0000B9FA1DA3D3E90023FEF71EFB42464B4658
:101F1000FEF744FC064628680F46FEF7BDFA0B465E
:101F2000024639463046FEF759F9FEF7C7FD2860EC
:101F300007EE900A94ED007A77EEC77AFDEEE77A25
:101F400017EE903A13B101F0E5FABDE70F4A104BD6
:101F500012681B68C2ED0D7A4FF49670C2ED0E7ACE
:101F600094221A6405B0BDE8F04F01F0D9BA00BF61
:101F700066666666666630407B14AE47E17A843FEB
:101F80008C010020C005002028030020E40400206C
:101F90007C030020D40100207405002080B5B24EDF
:101FA000B24F3B78032B04D04FF47A7003F049FF13
:101FB000F7E77388AE4C9FEDAF8ADFF8F4A2DFF845
:101FC000C492DFF8F082AC4D142B7DD01E2B40F074
:101FD000DC80D4ED417AF4EEC87AF1EE10FA6FDCD1
:101FE0009FEDA67AF4EEC77AF1EE10FA6AD4FCEE11
:101FF000E77A17EE903ADAF800204FF496701364FF
:1020000001F08EFA94F80C21D4F808319C48C9F8F4
:102010000030B2FA82F25209042101F09BFE94F8DA
:102020000C219748003A18BF0122082101F092FEC6
:1020300094F80C219248B2FA82F25209202101F060
:1020400089FE94F80C218E48003A18BF0122102115
:1020500001F080FED8F80030B4F800215A63B4F8DB
:1020600002219A638748FFF71BFF0A2003F0E9FE6D
:102070004FF08143002211467F482B60FFF78CFD13
:102080000A2003F0DEFE804B3A78002119607F4B76
:102090001A707F4A0B2310783B705378984240F0B7
:1020A000D380642371807B487B49337005F0C2FD87
:1020B0007A497B484FF6FF73062203F00FFC70E766
:1020C000D22398E76E2396E700224FF08143114612
:1020D00028462B60FFF760FD0A2003F0B2FED4ED26
:1020E000317AF4EEC87AF1EE10FA4ADC9FED637AA9
:1020F000F4EEC77AF1EE10FA45D4FCEEE77A17EE6B
:10210000903ADAF800204FF49670136401F008FA60
:1021100094F8CC20D4F8C8305948C9F80030B2FA45
:1021200082F25209042101F015FE94F8CC205448A3
:10213000003A18BF0122082101F00CFE94F8CC20CF
:102140004F48B2FA82F25209202101F003FE94F8BE
:10215000CC204B48003A18BF0122102101F0FAFDB3
:10216000D8F80030B4F8C0205A63B4F8C2209A639B
:102170004448FFF795FE0A2003F063FE4FF08243C8
:1021800078E7D223BDE76E23BBE70022454B2B60E7
:1021900011462846FFF700FD0A2003F052FED4ED59
:1021A000217AF4EEC87AF1EE10FA49DC9FED337A29
:1021B000F4EEC77AF1EE10FA44D4FCEEE77A17EEAB
:1021C000903ADAF800204FF49670136401F0A8F901
:1021D00094F88C20D4F888302948C9F80030B2FA35
:1021E00082F25209042101F0B5FD94F88C202448B4
:1021F000003A18BF0122082101F0ACFD94F88C20B0
:102200001F48B2FA82F25209202101F0A3FD94F88E
:102210008C201B48003A18BF0122102101F09AFDC2
:10222000D8F80030B4F880205A63B4F882209A635A
:102230001448FFF735FE0A2003F003FE1A4B19E796
:10224000D223BEE76E23BCE702EB8301013349686A
:1022500031609178B3FBF1F001FB103313490D4865
:10226000537005F0E7FC9CE6CC010020340100200F
:102270000400002000005243D80500200000DC428A
:1022800000000240D4050020C401002037010020D6
:1022900090010020C2050020787C00087E7C0008A8
:1022A0002C050020000040400000D040857C000844
:1022B0007C030020E404002080B5AE4EAE4F3B7896
:1022C000052B04D04FF47A7003F0BBFDF7E7738859
:1022D000AA4C9FEDAB8ADFF8E8A2DFF8B492DFF8F2
:1022E000E482A84D142B7CD01E2B40F0DC80D4ED72
:1022F000497AF4EEC87AF1EE10FA6EDC9FEDA27A1C
:10230000F4EEC77AF1EE10FA69D4FCEEE77A17EE34
:10231000903ADAF800204FF49670136401F000F957
:1023200094F82C21D4F828319848C9F80030B2FA32
:1023300082F25209042101F00DFD94F82C219348FA
:10234000003A18BF0122082101F004FD94F82C2165
:102350008E48B2FA82F25209202101F0FBFC94F877
:102360002C218A48003A18BF0122102101F0F2FC0A
:10237000D8F80030B4F820215A63B4F822219A63C7
:102380008348FFF78DFD0A2003F05BFD814B2B6036
:10239000002211467B48FFF7FFFB0A2003F051FDA6
:1023A0007D4B3A78002119607C4B1A707C4A0B23D4
:1023B00010783B705378984240F0CC806423718051
:1023C00078487949337005F035FC784978484FF6FC
:1023D000FF73062203F082FA71E7D22399E76E2396
:1023E00097E7744B2B60002201212846FFF7D4FBAE
:1023F0000A2003F026FDD4ED397AF4EEC87AF1EE26
:1024000010FA4CDC9FED607AF4EEC77AF1EE10FA28
:1024100047D4FCEEE77A17EE903ADAF800204FF452
:102420009670136401F07CF894F8EC20D4F8E8304E
:102430005648C9F80030B2FA82F25209042101F07C
:1024400089FC94F8EC205148003A18BF0122082179
:1024500001F080FC94F8EC204C48B2FA82F2520968
:10246000202101F077FC94F8EC204848003A18BF8E
:102470000122102101F06EFCD8F80030B4F8E02001
:102480005A63B4F8E2209A634148FFF709FD0A2035
:1024900003F0D7FC484B2B60002201217AE7D223BE
:1024A000BBE76E23B9E7434B2B600022012128468E
:1024B000FFF772FB0A2003F0C4FCD4ED297AF4EE96
:1024C000C87AF1EE10FA41DC9FED2F7AF4EEC77A6C
:1024D000F1EE10FA3CD4FCEEE77A17EE903ADAF817
:1024E00000204FF49670136401F01AF894F8AC20B1
:1024F000D4F8A8302548C9F80030B2FA82F252095F
:10250000042101F027FC94F8AC202048003A18BFC1
:102510000122082101F01EFC94F8AC201B48B2FAFD
:1025200082F25209202101F015FC94F8AC201748E2
:10253000003A18BF0122102101F00CFCD8F800303D
:10254000B4F8A0205A63B4F8A2209CE7D223C6E7CF
:102550006E23C4E702EB830101334968316091784F
:10256000B3FBF1F001FB103314490E48537005F032
:1025700061FBA4E6CC01002034010020040000200F
:1025800000005243D80500200000DC420000024059
:10259000D40500200000A040C40100203701002025
:1025A00090010020C2050020787C00087E7C000895
:1025B0002C0500200000E04000004040857C000821
:1025C0007C030020E404002008B5984C984D237843
:1025D000132B18D8E3B15A1E122A19D8DFE812F0CB
:1025E0001C001C002400240024002400A300A700D9
:1025F000B100B400B700B700D100D500D800180072
:102600001800DB00DE00A3F15802012A40F2C98065
:10261000642003F016FCDAE7013B864A18BF012369
:10262000137063232370F3E7834E9FED847A06EBE8
:102630000313D3ED017AF4EEC77AF1EE10FA5EDC03
:102640009FED7F7AF4EEC77AF1EE10FA59D4FCEEE2
:10265000E77A17EE903A2A684FF49670136400F008
:102660005FFF2378774A784806EB03139968116077
:102670001A7BB2FA82F25209042101F06BFB237833
:10268000714806EB031308211A7B003A18BF012298
:1026900001F060FB23786C4806EB031320211A7BC2
:1026A000B2FA82F2520901F055FB2378664806EB34
:1026B000031310211A7B003A18BF012201F04AFBD4
:1026C0002378624A190106EB03131268715A5B887A
:1026D000516393635E4A53781178994213D164230E
:1026E00023705C495C480023638005F0A3FA5B49D2
:1026F0005B484FF6FF73062203F0F0F891E7D22310
:10270000A9E76E23A7E702EB830101334968216043
:102710009178B3FBF1F001FB103352494E485370EE
:1027200005F088FA7DE7434B02221A7079E70A2107
:102730004D4A084605F0AAF905F0BEF83D4B0322C4
:10274000F3E73C4B0422F0E73A4B0522EDE70B2B75
:102750002A6814BFD2236E2313644FF4967000F0DE
:10276000DFFE642323703B493B480023638005F070
:1027700061FA3A493A484FF6FF73062203F0AEF881
:1027800046E72C4B06221A7042E72A4B0722CCE779
:10279000284B0A22C9E7274B0C22C6E7254B0D22FE
:1027A000C3E7582B2A6814BFD2236E2313644FF457
:1027B000967000F0B5FE24480022042101F0CAFA08
:1027C00021480122082101F0C5FA1F4800222021DA
:1027D00001F0C0FA012210211B4801F0BBFA237856
:1027E00018491A4A582B638812D107EE903A136899
:1027F000F8EE677A4FF448725A63C1ED007A4FF4ED
:1028000096629A630F4863232370FFF749FBFFE644
:102810005B4207EE903A1368F8EEE77A4FF496625F
:102820005A63C1ED007A4FF44872EAE7CC01002008
:102830007C030020340100200400002000005243EB
:102840000000DC42D405002000000240E404002027
:1028500090010020787C0008C20500207E7C0008E2
:102860002C050020857C00088B7C00082DE9884819
:10287000AD4EAE4F3B78022B04D04FF47A7003F08C
:10288000E0FAF7E77388AA4C9FEDAA8ADFF8DCA28A
:10289000DFF8B092DFF8D882A74D142B4FF0814BB0
:1028A0007CD01E2B40F0DA80D4ED3D7AF4EEC87A6D
:1028B000F1EE10FA6EDC9FEDA17AF4EEC77AF1EE3C
:1028C00010FA69D4FCEEE77A17EE903ADAF80020B5
:1028D0004FF49670136400F023FE94F8FC20D4F8B3
:1028E000F8309748C9F80030B2FA82F25209042150
:1028F00001F030FA94F8FC209148003A18BF012208
:10290000082101F027FA94F8FC208D48B2FA82F2EF
:102910005209202101F01EFA94F8FC208848003A60
:1029200018BF0122102101F015FAD8F80030B4F8D0
:10293000F0205A63B4F8F22082489A63FFF7B0FAA5
:102940000A2003F07EFAC5F800B0002211467A484A
:10295000FFF722F90A2003F074FA7B4B3A78002142
:1029600019607A4B1A707A4A0B2310783B705378AF
:10297000984240F0C980642371807648764933706C
:1029800005F058F9754976484FF6FF73062202F0B4
:10299000A5FF6FE7D22399E76E2397E70022114640
:1029A0002846C5F800B0FFF7F7F80A2003F049FA07
:1029B000D4ED2D7AF4EEC87AF1EE10FA4ADC9FEDF0
:1029C0005F7AF4EEC77AF1EE10FA45D4FCEEE77ABE
:1029D00017EE903ADAF800204FF49670136400F086
:1029E0009FFD94F8BC20D4F8B8305548C9F80030A1
:1029F000B2FA82F25209042101F0ACF994F8BC2039
:102A00004F48003A18BF0122082101F0A3F994F8B9
:102A1000BC204B48B2FA82F25209202101F09AF907
:102A200094F8BC204648003A18BF0122102101F05A
:102A300091F9D8F80030B4F8B0205A63B4F8B22055
:102A40009A634048FFF72CFA0A2003F0FAF9454B45
:102A50002B607AE7D223BDE76E23BBE70022114645
:102A60002846C5F800B0FFF797F80A2003F0E9F907
:102A7000D4ED1D7AF4EEC87AF1EE10FA40DC9FED49
:102A80002F7AF4EEC77AF1EE10FA3BD4FCEEE77A37
:102A900017EE903ADAF800204FF49670136400F0C5
:102AA0003FFD94F87C20A36F2548C9F80030B2FAA6
:102AB00082F25209042101F04DF994F87C2020485B
:102AC000003A18BF0122082101F044F994F87C2053
:102AD0001B48B2FA82F25209202101F03BF994F826
:102AE0007C201748003A18BF0122102101F032F96A
:102AF000D8F80030B4F870205A63B4F872209FE719
:102B0000D223C7E76E23C5E702EB8301013349688F
:102B100031609178B3FBF1F001FB103312490D489D
:102B2000537005F087F8A5E6CC01002034010020A1
:102B30000400002000005243D80500200000DC42C1
:102B400000000240D4050020C4010020370100200D
:102B500090010020C2050020787C00087E7C0008DF
:102B60002C0500200000E040857C00087C0300204C
:102B7000E404002080B5B34EB34F3B78042B04D05F
:102B80004FF47A7003F05DF9F7E77388AF4C9FED6F
:102B9000B08ADFF8FCA2DFF8C892DFF8F882AD4D0A
:102BA000142B7CD01E2B40F0DD80D4ED457AF4EE62
:102BB000C87AF1EE10FA6EDC9FEDA77AF4EEC77AD0
:102BC000F1EE10FA69D4FCEEE77A17EE903ADAF8F3
:102BD00000204FF49670136400F0A2FC94F81C21BE
:102BE000D4F818319D48C9F80030B2FA82F252097F
:102BF000042101F0AFF894F81C219848003A18BF5E
:102C00000122082101F0A6F894F81C219348B2FA99
:102C100082F25209202101F09DF894F81C218F487E
:102C2000003A18BF0122102101F094F8D8F80030C2
:102C3000B4F810215A63B4F812219A638848FFF758
:102C40002FF90A2003F0FDF8864B2B600022114675
:102C50008048FEF7A1FF0A2003F0F3F8824B3A7890
:102C600000211960814B1A70814A0B2310783B7048
:102C70005378984240F0D580642371807D487E4926
:102C8000337004F0D7FF7D497D484FF6FF7306226D
:102C900002F024FE71E7D22399E76E2397E7794B80
:102CA0002B60002201212846FEF776FF0A2003F060
:102CB000C8F8D4ED357AF4EEC87AF1EE10FA4DDCAE
:102CC0009FED657AF4EEC77AF1EE10FA48D4FCEE87
:102CD000E77A17EE903ADAF800204FF49670136412
:102CE00000F01EFC94F8DC20D4F8D8305B48C9F81A
:102CF0000030B2FA82F25209042101F02BF894F864
:102D0000DC205648003A18BF0122082101F022F8C1
:102D100094F8DC205148B2FA82F25209202101F0E5
:102D200019F894F8DC204D48003A18BF0122102110
:102D300001F010F8D8F80030B4F8D0205A63B4F895
:102D4000D2209A634648FFF7ABF80A2003F079F8DF
:102D50004FF080432B600022012179E7D223BAE7AC
:102D60006E23B8E7474B2B60002201212846FEF76F
:102D700013FF0A2003F065F8D4ED257AF4EEC87A43
:102D8000F1EE10FA49DC9FED347AF4EEC77AF1EEF9
:102D900010FA44D4FCEEE77A17EE903ADAF8002005
:102DA0004FF49670136400F0BBFB94F89C20D4F8A9
:102DB00098302A48C9F80030B2FA82F25209042148
:102DC00000F0C8FF94F89C202448003A18BF012264
:102DD000082100F0BFFF94F89C202048B2FA82F24C
:102DE0005209202100F0B6FF94F89C201B48003ABD
:102DF00018BF0122102100F0ADFFD8F80030B4F860
:102E000090205A63B4F892209A631548FFF748F867
:102E10000A2003F016F81C4B9CE7D223BEE76E2372
:102E2000BCE702EB83010133496831609178B3FB61
:102E3000F1F001FB103315490E48537004F0FAFE0F
:102E40009BE600BFCC0100203401002004000020DC
:102E500000005243D80500200000DC420000024080
:102E6000D405002000009040C4010020370100205C
:102E700090010020C2050020787C00087E7C0008BC
:102E80002C0500200000C04000002040857C000888
:102E90007C030020E40400200268034B9A4201D125
:102EA00000F02CBB704700BF0010004072B6FEE778
:102EB00082B00E4B00220092596C41F4804159645B
:102EC000596C01F48041009100990192196C41F014
:102ED000805119641B6C03F080530193019B0F21F7
:102EE0006FF0010002B000F077BC00BF0038024074
:102EF00070B514228AB0054600210DEB020004F0E3
:102F00006DFE2B68344A93423CD1344B3448354CE7
:102F1000002601965A6C42F480725A645A6C02F48C
:102F200080720192019A02961A6B42F004021A63AF
:102F30001B6B03F004030293029B4FF0020E03236A
:102F400005A9CDE905E300F02BFE274BC4E90036C7
:102F50004FF400634FF48062C4E904234FF400513E
:102F60004FF48073C4E90266C4E90613C4E9086635
:102F7000204600F087FC08B1FFF798FFAC63A5631B
:102F80000AB070BD194A9342FAD1144B184C00266E
:102F900003965A6C42F400725A645A6C02F400723E
:102FA0000392039A04961A6B42F004021A631B6B95
:102FB00003F004030493049B04200323CDE90503D9
:102FC00005A9074800F0ECFDDFF828C04FF00073BA
:102FD000C4E900C3BCE700BF002001400038024044
:102FE00000080240680200201064024000210140F5
:102FF000C80200204064024030B5044689B0142263
:10300000002103A804F0EAFD2268144B9A4222D161
:10301000134C144800250195236B43F002032363EE
:10302000236B03F002030193019B4FF440721223C0
:10303000CDE9032303210423CDE9061303A900F0FE
:10304000AFFD0295236C43F400132364236C03F457
:1030500000130293029B09B030BD00BF0054004032
:10306000003802400004024010B514228AB0044621
:1030700000210DEB020004F0B1FD2368254A9342C4
:1030800014D1254B00220192596C41F00101596481
:103090005B6C03F00103019319200521019B00F0F3
:1030A0009BFB192000F0CAFB0AB010BD1B4A9342DB
:1030B00020D1194B1A48002102911A6C42F00402E7
:1030C0001A641A6C02F004020292029A03911A6BBB
:1030D00042F008021A631B6B03F008030393039B7F
:1030E0004FF48042022305A9CDE90523099300F09E
:1030F00057FDD9E70B4A9342D6D100230493064BE0
:103100005A6C42F002025A645B6C03F002030493AF
:10311000049BC9E70000014000380240000800405D
:10312000000C02400004014070B514228AB004462D
:1031300000210DEB020004F051FD2368B3F1804F34
:1031400037D103F50E33002400941A6C294842F05D
:1031500001021A641A6C02F001020092009A0194B2
:103160001A6B42F001021A631A6B02F0010201921B
:10317000019A02941A6B42F002021A631B6B03F06D
:1031800002030293029B02264FF40043012505A986
:10319000CDE90536099500F003FD0823CDE9053694
:1031A000CDE907441448099505A900F0F9FC0AB0D7
:1031B00070BD124A9342FAD1114B0E48002103917F
:1031C0001A6C42F002021A641A6C02F002020392B4
:1031D000039A04911A6B42F001021A631B6B03F00D
:1031E00001030493049BC0220223CDE90523099324
:1031F00005A9DAE700000240000402400004004094
:103200000038024010B5044688B01422002103A8FB
:1032100004F0E4FC2268124B9A421FD103F50B33F1
:10322000002101911A6C0F4842F008021A641A6CCE
:1032300002F008020192019A02911A6B42F0010217
:103240001A631B6B03F001030293029B012202230A
:1032500003A9CDE90323079300F0A2FC08B010BD39
:10326000000C00400000024010B5044688B0142253
:10327000002103A804F0B2FC23681B4A93421AD130
:1032800000230193194B1A6B42F010021A631B6B57
:1032900003F0100301934FF48041019B0223CDE919
:1032A000031303200123CDE90603114803A900F00D
:1032B00077FC08B010BD0F4A9342FAD10023029365
:1032C0000A4B0D481A6B42F004021A631B6B03F0A1
:1032D00004030293029BC0220223CDE903230323AC
:1032E000079303A9E3E700BF000001400038024054
:1032F00000100240000401400008024010B50446DE
:1033000088B01422002103A804F068FC2268184B3E
:103310009A422BD103F5F833002401941A6C154816
:1033200042F480221A641A6C02F480220192019AFB
:1033300002941A6B42F004021A631B6B03F004033D
:1033400002934FF44062029B0223CDE90323032141
:103350000723CDE9061303A900F022FC272022460B
:10336000052100F039FA272000F068FA08B010BDF6
:10337000004800400008024070B588B00023029366
:10338000204B1A6C42F010021A641B6C03F01003FD
:103390000293054601A903A8029B01F0ADFB069B21
:1033A0004BBB01F089FB184E184B336040F2E733FA
:1033B000F360174BB0FBF3F3013B7360304600231F
:1033C0003361B360B36101F0E3FD044680B9304678
:1033D00001F03EFC044658B9362000F02FFA0F2DBC
:1033E0000DD822462946362000F0F6F9094B1D601B
:1033F000204608B070BD01F05FFB4000D3E7012418
:10340000F6E700BF00380240E00500200010004051
:1034100040420F0044010020FEE7FEE7FEE7FEE722
:10342000FEE77047014801F0ABBC00BF7C03002001
:10343000014802F00DBB00BF2C050020014801F03F
:103440009FBC00BFE0050020014800F0EBBA00BFC0
:1034500068020020014800F0E5BA00BFC802002061
:10346000034AD2F8883043F47003C2F888307047BA
:1034700000ED00E0DFF834D00D480E490E4A00237D
:1034800002E0D458C4500433C4188C42F9D30B4A18
:103490000B4C002301E013600432A242FBD3FFF780
:1034A000DFFF04F0A3FBFDF71BFD704700000220C7
:1034B000000000204C010020D48800084C010020AE
:1034C00078530020FEE7000008B50B4B1A6842F461
:1034D00000721A601A6842F480621A601A6842F434
:1034E00080721A60032000F065F90F20FFF744FF97
:1034F000FFF7DEFC002008BD003C0240034A044BFD
:1035000011681B780B441360704700BF2806002029
:1035100040010020014B1868704700BF28060020BA
:1035200038B50446FFF7F6FF631C1CBF054B1B783C
:10353000054618BFE418FFF7EDFF431BA342FAD37B
:1035400038BD00BF4001002038B50446002800F017
:103550009B80056C25B9FFF7CBFC656484F83C5073
:10356000236CDB0600F18E80236C23F4885323F058
:10357000020343F002032364444B5A6822F44032AE
:103580005A605A6861680A435A60236821695A6818
:1035900022F480725A605A6842EA01225A605A68DC
:1035A000A16822F040725A605A680A435A609A68C9
:1035B000E16822F400629A609A680A439A6034498A
:1035C000A26A8A4252D0996821F070619960996824
:1035D0000A439A609A68E16A22F040529A609A68B7
:1035E0000A439A609A6822F002029A609A68217EE1
:1035F00042EA41029A6094F82020002A3ED05A689C
:10360000616A42F400625A605A6822F460425A6069
:103610005A68013942EA41325A60DA6AE16922F4B1
:103620007002DA62DA6A013942EA0152DA629A68B1
:1036300022F400729A609A6894F8301042EA4122AB
:103640009A609A68616922F480629A609A680020A0
:1036500042EA81229A606064236C23F0030343F002
:1036600001032364002384F83C3038BD9A6822F0BB
:1036700070629A609A6822F04052B2E75A6822F467
:103680000062C9E70120EDE70120EEE700230140D9
:103690000100000FF7B50023019390F83C30012B97
:1036A00064D0012380F83C300D6803688E68092DD2
:1036B000ACB231D904EB4402DF681E3A4FF0070C7C
:1036C0000CFA02FC27EA0C07DF60DF6806FA02F258
:1036D0003A43DA604968062901EB81022BD8596B1D
:1036E000053A1F26964021EA06015963596B04FAF0
:1036F00002F20A435A632B4A934207D1122D37D163
:10370000D2F8043343F48003C2F80433002380F872
:103710003C30184603B0F0BD1A6905EB450C07278D
:1037200007FA0CF722EA07021A611A6906FA0CF680
:1037300016431E61CEE70C294FF01F010BD81E6BFC
:10374000233A914026EA01011963196B04FA02F247
:103750000A431A63CFE7DE6A413A914026EA010143
:10376000D962D96A94400C43DC62C4E70220D1E7F5
:10377000A5F11003012BC9D80B4A5368102D43F44F
:1037800000035360C2D1094B094A1B68B3FBF2F333
:103790000A2253430193019B002BB7D0019B013BAD
:1037A000F8E700BF00200140002301403C01002059
:1037B00040420F000749CA6822F4E0620302120483
:1037C00003F4E063120C134343F0BF6343F400338C
:1037D000CB60704700ED00E0164B30B5DC68C4F3F9
:1037E0000224C4F10703251D042B28BF0423062D42
:1037F0004FF0FF358CBF033C002405FA03F321EAA8
:103800000303A54022EA0502A340002843EA02037D
:10381000ACBF00F16040084A4FEA0313B8BF00F0A4
:103820000F00DBB2AABF00F56140135480F80033EB
:1038300030BD00BF00ED00E014ED00E0002807DB24
:103840004109044A00F01F000123834042F821305F
:10385000704700BF00E100E0036810B5DAB2103A2B
:10386000074C23F47F7323F003035F2A88BF0433DC
:103870001821B2FBF1F1615CC1658365184610BD8A
:10388000447E000870B50446FFF744FE0546002C50
:1038900071D0022384F835302268002384F8343054
:1038A000136823F00103136022681368D8072ED42D
:1038B00013683248A1691840D4E901352B43E56803
:1038C0002B4325692B4365692B43E5690B432B4348
:1038D000256A2B430343606A042802BFD4E90B56D0
:1038E00035432B4313605369042823F0070343EA4D
:1038F000000332D1A06AE56A034375B391B9012888
:1039000020D030F0020128D1E90126D51DE0FFF7D3
:1039100001FE401B0528C7D920236365032084F8D6
:10392000350070BDB1F5005F13D1032815D801A192
:1039300051F820F04B390008093900084B390008CC
:1039400045390008B5F1C07F07D1402363650120E8
:10395000E5E70228F9D90328D6D053612046FFF7BE
:103960007BFFE26D3F23934083600020012360656D
:1039700084F83530D5E70120D3E700BF3F8010F051
:1039800070B50446866DFFF7C5FD94F83530022BFF
:10399000054606D0802363650120002384F8343077
:1039A00070BD23681A6822F016021A605A6922F064
:1039B00080025A61226C0AB9A26C1AB11A6822F00C
:1039C00008021A601A6822F001021A6023681B6854
:1039D00013F0010308D1E16D3F228A40B260012259
:1039E00084F835201846D8E7FFF794FD401B0528DA
:1039F000ECD920230320636584F83500CDE790F8E7
:103A00003530022B03D080234365012070470268C4
:103A1000052380F83530136823F00103136000207C
:103A200070470000F7B5002301935C4B856D1F685C
:103A3000C36D2E6808229A40324204460CD00168B9
:103A40000868400708D5086820F004000860AA60EC
:103A5000626D42F00102626501229A40324208D052
:103A600021684969090641BFAA60626D42F00202FD
:103A7000626504229A40324208D0216809688807AA
:103A800041BFAA60626D42F00402626510229A4052
:103A9000324210D02368196809070CD5AA601A6849
:103AA000500337D51B68190301D4236C00E0A36CC5
:103AB0000BB120469847E16D20228A4032423AD02D
:103AC00023681868C60636D5AA6094F83520052AFA
:103AD0001A6827D122F016021A605A6922F0800271
:103AE0005A61226C0AB9A26C1AB11A6822F0080253
:103AF0001A603F238B40AB60012384F835300023EC
:103B000084F83430236D002B45D0204603B0BDE847
:103B1000F04018471A68D2055EBF1A6822F0080202
:103B20001A60C2E7500327D51B68190331D4636CB0
:103B30000BB120469847636D6BB3636DDA0719D5F7
:103B400022684FF41653B7FBF3F7052384F835309A
:103B5000136823F001031360019B0133BB420193FF
:103B600002D81368DB07F7D4012384F8353000232B
:103B700084F83430E36CC6E71A6812F4807208D116
:103B8000196821F010011960012384F8353084F898
:103B90003420E36BCCE703B0F0BD00BF3C01002054
:103BA0002DE9F74FDFF8A891674A00230D6801243B
:103BB0009C4004EA050CAC4340F0B1804D6805F030
:103BC00003044FEA43080326671E06FA08F6012F8E
:103BD0006FEA060634D8876807EA060ECF6807FA48
:103BE00008F747EA0E078760476827EA0C0EC5F317
:103BF00000179F4047EA0E074760C76807EA060EAE
:103C00008F6807FA08F747EA0E07022CC76019D138
:103C10004FEAD30A00EB8A0A03F0070BDAF82070A8
:103C20004FEA8B0B4FF00F0E0EFA0BFE27EA0E0E2B
:103C30000F6907FA0BF747EA0E07CAF8207001E090
:103C4000032CDAD1076804FA08F437403C4315F432
:103C5000403F046063D04FF0000ACDF804A0D9F8CB
:103C600044603A4C46F48046C9F84460D9F8446050
:103C700006F480460196019E23F0030606F1804675
:103C800006F59C3603F0030ED6F808804FEA8E0E38
:103C90000F2707FA0EF7A04228EA070746D004F5D7
:103CA0008064A04244D004F58064A04242D004F570
:103CB0008064A04240D004F58064A0423ED004F568
:103CC0008064A0423CD004F58064A0423AD004F560
:103CD0008064A0420CBF0724082404FA0EF43C437D
:103CE000B46094686FEA0C06EF0254BF34404CEAAB
:103CF00004049460D468AF0254BF34404CEA040416
:103D0000D4605468AF0354BF34404CEA0404546098
:103D10001468ED0354BF34404CEA040414600133CA
:103D2000102B7FF443AF03B0BDE8F08F5446D4E7C7
:103D30000124D2E70224D0E70324CEE70424CCE711
:103D40000524CAE70624C8E7003C01400000024001
:103D5000003802400AB1816170470904FBE701683D
:103D60004B6913F480634FF0000210D06FF480634E
:103D70004B612023026380F83D3080F83E20036CC5
:103D800080F83C2043F00403036401207047184688
:103D900070472DE9F84606460F4691461D464FEA04
:103DA000114A3368BAF1010F0CBF5C699C6927EABC
:103DB0000404A4B2B4FA84F46409A14501D000203B
:103DC00017E06A1CEED0FFF7A5FB089BC01AA842BB
:103DD00001D8002DE5D100232022336386F83D2051
:103DE00086F83E30326C86F83C3042F02002326475
:103DF0000120BDE8F8862DE9F04104460F4616463D
:103E000098462568686927EA000080B2B8B16B69F6
:103E10005A0516D52B6843F400732B606FF480634A
:103E20006B6120220023236384F83D2084F83E3018
:103E3000226C42F00402226484F83C300120BDE888
:103E4000F081731CDED0FFF765FBA0EB0800B042E9
:103E500001D8002ED5D100232022236384F83D20F1
:103E600084F83E30226C42F02002E4E770B504464C
:103E70000D46164621684B6913F0400301D000201F
:103E800010E04A69D2060ED56FF010024A61202276
:103E9000236384F83D2084F83E30226C226484F849
:103EA0003C30012070BDFFF735FB801BA84201D8D4
:103EB000002DDFD100232022236384F83D2084F8E5
:103EC0003E30226C42F02002E8E770B504460D4611
:103ED000164623685B691B0601D5002070BD20468D
:103EE000FFF73DFFA8B96A1CF3D0FFF713FB801B57
:103EF000A84201D8002DECD100232022236384F8AE
:103F00003D2084F83E30226C84F83C3042F02002A0
:103F100022640120E2E700002DE9F0431546026823
:103F200085B0DDE90C789946136843F4807313601B
:103F30000E463B46CDF8008000224FF001110446AA
:103F4000FFF727FF236838B11B68DB0502D54FF464
:103F50000073236403200AE006F0FE061E6119497F
:103F600043463A462046FFF746FF18B1012005B008
:103F7000BDE8F083236803905A6903929B69039319
:103F8000424639462046039BFFF79FFF40B1236C12
:103F9000042B01BF2268136843F400731360E5E744
:103FA000B9F1010F236802D1EDB21D61DFE72A0AE2
:103FB0001A61394642462046FFF787FF0028E6D1BE
:103FC0002368F1E7020001002DE9FF479A460368E4
:103FD00015461A6842F480621A601A68DDE90C78A6
:103FE00042F480721A600E463B46CDF800800022F3
:103FF0004FF001110446FFF7CCFE236848B11B685F
:10400000DB0502D54FF400732364032004B0BDE840
:10401000F0875FFA86F906F0FE061E612A494346DC
:104020003A462046FFF7E7FE08B10120EEE7236895
:1040300003905A6903929B6903934246394620468E
:10404000039BFFF742FF40B1236C042B01BF2268A2
:10405000136843F400731360E7E7BAF1010F2368B4
:104060001AD1EDB242461D6139462046FFF72DFFB9
:1040700002460028E8D121680B6843F480730B6086
:104080002046CDF800803B464FF00111FFF781FE3E
:10409000226860B11368B3E72A0A1A6139464246BA
:1040A0002046FFF712FF0028CED12368D9E749F058
:1040B00001031361044943463A462046FFF79BFE3D
:1040C000003818BF0120A1E70200010070B50446C6
:1040D0000D46164623685B695B0701D5002070BD5D
:1040E0002046FFF73CFEA8B96A1CF3D0FFF712FA8E
:1040F000801BA84201D8002DECD10023202223638D
:1041000084F83D2084F83E30226C84F83C3042F044
:10411000200222640120E2E770B5044608B90120BC
:1041200070BD90F83D3003F0FF021BB980F83C20D1
:10413000FEF762FF242384F83D3023681A6822F0DA
:1041400001021A601A6842F400421A601A6822F4E6
:1041500000421A6000F0B0FC3F4B65689D4294BF7E
:104160003E4B3F4B98428CBF00230123002BD6D1FE
:104170002268394E51683B4BB0FBF3F321F03F010D
:104180001943B542516088BF4FF49676116A88BFD3
:10419000734321F03F0184BF4FF47A76B3FBF6F30B
:1041A00001330B431362D169431E2B4821F44F4165
:1041B000854221F0FF0132D86D0040F6FC70B3FB60
:1041C000F5F30133034242D0C3F30B031943D1612A
:1041D000D4E907301168034321F0C0010B43136099
:1041E0009168D4E9030321F40341034321F0FF0163
:1041F0000B439360D4E90530D168034321F0FF01FC
:104200000B43D360136843F00103136000202023A5
:10421000206484F83D30206384F83E0080E7A06885
:1042200050B905EB4505B3FBF5F30133C3F30B03BD
:104230007BB143F40043C9E719206843B3FBF0F3B3
:104240000133C3F30B0323B143F44043BEE704231C
:10425000BCE70123BAE700BFA08601007F841E00EF
:10426000FF083D0040420F002DE9F7430446994600
:104270000C9E0F469046FFF74DF994F83D30202BE9
:10428000054603D0022003B0BDE8F08300903C490E
:10429000192301222046FFF77CFD0028F2D194F873
:1042A0003C30012BEED02068012384F83C300368B9
:1042B000D9075EBF036843F001030360036823F47A
:1042C00000630360212384F83D30402384F83E30AE
:1042D000002323640A9B6362BDF82C306385638DE1
:1042E0002385284BE362CDE900654B4642463946BB
:1042F0002046FFF711FE00282AD00120C3E7FFF770
:10430000E4FD40B1236C042B01BF2268136843F421
:1043100000731360F1E7636A27681A4612F8011BFD
:1043200039616262628D218D013A92B262857A6949
:10433000481E80B2520720850AD548B15A783A61A2
:1043400002336362638D013B02399BB22185638531
:10435000238D2A4631462046002BD0D1FFF7B6FEEA
:104360000028CFD12268136843F400731360202320
:1043700084F83D3084F83C0084F83E0083E700BFB9
:10438000020010000000FFFF2DE9F043044687B053
:104390009946109F0D469046FFF7BCF894F83D30C3
:1043A000202B064604D00225284607B0BDE8F0833E
:1043B00000907649192301222046FFF7EAFC0028E5
:1043C000F1D194F83C30012BEDD02068012384F822
:1043D0003C300368DB075EBF036843F00103036002
:1043E000036823F400630360222384F83D304023F4
:1043F00084F83E30002323640E9B6362BDF83C309A
:104400006385638D2385624BE3622946CDE900769F
:104410004B4642462046FFF7D7FD054608B1012529
:10442000C2E7228D2368B2B902905A6902929A6952
:104430000292029A1A6842F400721A60DFF85481FC
:10444000238D002B2CD1202284F83D2084F83C3091
:1044500084F83E30A8E7012A0AD11A6822F4806263
:104460001A6003905A6903929A690392039AE1E7EA
:10447000022A0ED11A6822F480621A601A6842F485
:1044800000621A6004905A6904929B690493049B29
:10449000D4E705905A6905929B690593059BCDE782
:1044A000032B56D8012B15D1324639462046FFF74B
:1044B000DDFC0028B3D123681A69636A1A70636A45
:1044C00001336362238D013B2385638D013B9BB2E6
:1044D0006385B5E7022B00963B464FF0000241464C
:1044E000204619D1FFF755FC002898D123681A6897
:1044F00042F400721A601A69636A1A70626A531C85
:104500006362238D013B2385638D013B9BB26385F1
:1045100023681B695370D2E7FFF73BFC0246002873
:104520007FF47DAF2368196821F4806119601969EF
:10453000636A1970636A009601336362238D013BDD
:104540002385638D013B9BB2638541463B462046F4
:10455000C8E7324639462046FFF788FC00287FF43A
:104560005EAF23681A69636A1A70626A531C6362D9
:10457000238D013B2385638D013B9BB263852368BB
:10458000596949077FF55CAFC3E700BF020010001F
:104590000000FFFF04000100044B01221A62044BDB
:1045A00082B01B680193019B02B0704700000E426D
:1045B00000700040044B00221A62044B82B01B685A
:1045C0000193019B02B0704700000E420070004052
:1045D0002DE9F341044640B30368DD0710D4236896
:1045E00098075BD423681A0700F19D8023685B0756
:1045F00000F1BD80A069002840F0248100202CE05B
:104600008D4B9A6802F00C02042A07D09A6802F0D7
:104610000C02082A0BD15B68590208D5864B1B682F
:104620009A03DCD56368002BD9D1012015E06368BB
:10463000814DB3F5803F13D12B6843F480332B6059
:10464000FEF768FF7C4E054633689B03C7D4FEF730
:1046500061FF401B6428F7D9032002B0BDE8F08158
:10466000B3F5A02F04D12B6843F480232B60E3E73C
:104670002A6822F480322A602A6822F480222A6082
:10468000002BDDD1FEF746FF06462B689F03A6D51B
:10469000FEF740FF801B6428F7D9DDE7664B9A6878
:1046A00012F00C0F07D09A6802F00C02082A11D100
:1046B0005B685E020ED4604A13689D0702D5E3680A
:1046C000012BB2D11368216923F0F80343EAC10337
:1046D000136087E7E268594BB2B101221A60FEF716
:1046E00019FF554D06462B68980707D52B68226998
:1046F00023F0F80343EAC2032B6073E7FEF70AFFD7
:10470000801B0228EFD9A7E71A60FEF703FF4A4E85
:104710000546336899077FF565AFFEF7FBFE401B42
:104720000228F6D998E76269444B82B10122C3F8A6
:10473000802EFEF7EFFE404E0546736F9F073FF554
:1047400055AFFEF7E7FE401B0228F6D984E7C3F811
:10475000802EFEF7DFFE384E0546736F98077FF513
:1047600045AFFEF7D7FE401B0228F6D974E7324B5F
:104770001A6C12F0805228D101921A6C42F08052C9
:104780001A641B6C03F080530193019B01272C4D8D
:104790002B68D9051BD5A368274D012B27D12B6F7B
:1047A00043F001032B67FEF7B5FE234E054641F2A9
:1047B0008838336F9B0739D5002F3FF41BAF1E4A53
:1047C000136C23F08053136414E70027DFE72B6892
:1047D00043F480732B60FEF79DFE06462B68DA05D6
:1047E000D9D4FEF797FE801B0228F7D934E7052BB2
:1047F00004D12B6F43F004032B67D0E72A6F22F01C
:1048000001022A672A6F22F004022A67002BCAD10C
:10481000FEF780FE41F2883806462B6F9807CBD50D
:10482000FEF778FE801B4045F7D915E7FEF772FECC
:10483000401B4045BDD90FE7003802400000474209
:1048400000700040364DAB6803F00C03082B3DD0E0
:10485000344B002202281A662BD1FEF75BFE064677
:104860002B6899011FD4D4E907321343626A43EAE3
:104870008213E26A43EA0263A26A5208013A43EAF7
:1048800002436B60274B264D01221A66FEF742FE5B
:1048900004462B689A013FF5B1AEFEF73BFE001BC4
:1048A0000228F6D9D8E6FEF735FE801B0228D7D9B4
:1048B000D2E6FEF72FFE04462B689B017FF59EAEE5
:1048C000FEF728FE001B0228F6D9C5E601283FF4B2
:1048D000C4AE6B68E26903F4800191427FF4A5AE37
:1048E000216A03F03F028A427FF49FAE616A47F675
:1048F000C0721A40B2EB811F7FF497AEA26A5208D1
:1049000003F44031013AB1EB024F7FF48EAEE26A1C
:1049100003F07063B3EB026F3FF470AE85E600BF47
:104920000038024000004742134908B58B6803F085
:104930000C03042B1CD0082B1CD14A684B68496817
:1049400013F4800314BF0D480D48C1F3881118BF3C
:10495000002302F03F02A1FB0001FCF7FFF8064B29
:104960005B68C3F3014301335B00B0FBF3F008BDA8
:104970000248FCE70248FAE70038024040787D012F
:104980000024F4002DE9F0410D46044610B9012041
:10499000BDE8F081434B1A6802F007028A4228D32F
:1049A00021688F072DD4C80740D43E4B1A6802F007
:1049B0000702AA4265D8226851076BD4130707D5AE
:1049C000394A2169936823F4604343EAC103936041
:1049D000FFF7AAFF344B354A9B68C3F30313D35C3C
:1049E000D840334B1860334B1868FEF7C5FC0020E5
:1049F000CEE7CAB21A701B6803F007038B42C6D118
:104A0000CEE7294B11F0040F1EBF9A6842F4E05222
:104A10009A600E0742BF9A6842F460429A609A68B0
:104A2000A06822F0F00202439A60BCE762681E4B65
:104A3000012A1CD11B6813F4003FA8D01A4EB3689A
:104A400023F003031343B360FEF764FD41F288389B
:104A50000746B368626803F00C03B3EB820FA4D07F
:104A6000FEF758FDC01B4045F3D9032090E7911E87
:104A700001291B6802D813F0007FDEE713F0020F54
:104A8000DBE7EAB21A701B6803F00703AB427FF45E
:104A90007EAF90E70449E0688B6823F4E05303435A
:104AA0008B608BE7003C0240003802402C7E0008FF
:104AB0003C01002044010020044B054A9B68C3F3DD
:104AC0008223D35C034A1068D84070470038024004
:104AD0003C7E00083C010020044B054A9B68C3F360
:104AE0004233D35C034A1068D84070470038024014
:104AF0003C7E00083C0100200F2303600B4B9A68AA
:104B000002F0030242609A6802F0F00282609A6842
:104B100002F4E052C2609B68DB0803F4E0530361D7
:104B2000034B1B6803F007030B607047003802401B
:104B3000003C0240036A23F001030362036A70B57C
:104B4000446882690D6822F073022A438D6823F05D
:104B500002032B430E4DA84202D00E4EB04210D19C
:104B6000CE6823F008033343A84223F0040302D0A5
:104B7000084DA84205D1D1E9055624F440743543C7
:104B80002C43446082614A684263036270BD00BF87
:104B90000000014000040140036A23F480730362B3
:104BA000036A70B54468C2690D6822F073022A4333
:104BB0008D6823F4007343EA0523114DA84203D006
:104BC00005F58065A84214D1CD6823F4006343EA5B
:104BD00005230B4DA84223F4806303D005F58065BF
:104BE000A84206D1D1E9055624F44054354344EA9D
:104BF00005144460C2614A68C263036270BD00BFAD
:104C000000000140036A23F480530362036A30B555
:104C10004468C2690D6822F4E64242EA05228D68C2
:104C200023F4005343EA0533084DA84203D005F5A9
:104C30008065A84204D14D6924F4804444EA851477
:104C40004460C2614A680264036230BD00000140F2
:104C500090F83D30012B30D1022380F83D300368BD
:104C6000DA6842F00102DA60154A93421AD0B3F1D1
:104C7000804F17D0A2F57C42934213D002F5806298
:104C800093420FD002F5806293420BD002F5784236
:104C9000934207D002F57052934203D0A2F59432AA
:104CA000934204D19A6802F00702062A03D01A68D8
:104CB00042F001021A60002070470120704700BFD7
:104CC00000000140704730B5034690F83E0093F86D
:104CD0003F2093F8425093F84340C0B2D2B2EDB2B5
:104CE000E4B2C1B9012845D1012D13D1022283F8C4
:104CF0003E2083F842201A68116A21F001011162F6
:104D0000116A41F0010111621A68136843F001034E
:104D10001360002030BD042911D1012A2AD1012CB1
:104D200028D1022283F83F2083F843201A68116AB1
:104D300021F010011162116A41F01001E3E701282E
:104D400018D1012AE6D1012DE4D1012CE2D10222B1
:104D500083F83E2083F83F2083F8422083F84320E5
:104D60001A68116A21F001011162116A41F0010112
:104D70001162DCE70120CDE770477047704770474C
:104D800003681A69910710B504460ED5DA689207D0
:104D90000BD56FF002021A61012202779B699B0713
:104DA00077D0FFF7EAFF0023237723681A695007BB
:104DB00010D5DA6851070DD56FF004021A6102228E
:104DC00022779B6913F4407F204668D0FFF7D5FF18
:104DD0000023237723681A6912070FD5DA681007B2
:104DE0000CD56FF008021A6104222277DB6999075B
:104DF00020465AD0FFF7C1FF0023237723681A69A2
:104E0000D20610D5DA68D0060DD56FF010021A61FF
:104E100008222277DB6913F4407F20464BD0FFF74E
:104E2000ACFF0023237723681A69D10708D5DA6815
:104E3000D20705D56FF001021A612046FEF72CF863
:104E400023681A69100608D5DA68110605D56FF0CF
:104E500080021A61204600F050FC23681A6952064D
:104E600008D5DA68500605D56FF040021A61204671
:104E7000FFF785FF23681A69910622D5DA68920642
:104E80001FD56FF0200220461A61BDE8104000F0E7
:104E900033BCFFF771FF2046FFF770FF83E7FFF792
:104EA0006BFF2046FFF76AFF92E7FFF765FF20469A
:104EB000FFF764FFA0E7FFF75FFF2046FFF75EFF05
:104EC000AFE710BD304A0368904212D0B0F1804F76
:104ED0000FD0A2F57C4290420BD002F58062904246
:104EE00007D002F58062904203D002F578429042EA
:104EF00019D14A6823F070031343234A904229D002
:104F0000B0F1804F26D0A2F57C42904222D002F52B
:104F1000806290421ED002F5806290421AD002F563
:104F20007842904216D0194A904213D002F580621E
:104F300090420FD002F5806290420BD0A2F59832D9
:104F4000904207D002F58062904203D002F5806261
:104F5000904203D1CA6823F4407313434A6923F093
:104F60008003134303608B68C3620B688362064B44
:104F7000984203D003F58063984201D10B69036323
:104F800001234361704700BF000001400040014021
:104F900010B5044630B390F83D3003F0FF021BB962
:104FA00080F83C20FEF760F80223206884F83D304A
:104FB000211DFFF787FF012384F84630002084F885
:104FC0003E3084F83F3084F8403084F8413084F833
:104FD000423084F8433084F8443084F8453084F813
:104FE0003D3010BD0120FCE710B5044630B390F809
:104FF0003D3003F0FF021BB980F83C20FFF762FE52
:105000000223206884F83D30211DFFF75BFF012358
:1050100084F84630002084F83E3084F83F3084F82D
:10502000403084F8413084F8423084F8433084F8CA
:10503000443084F8453084F83D3010BD0120FCE751
:1050400010B5044630B390F83D3003F0FF021BB9B1
:1050500080F83C20FEF7D6F80223206884F83D3023
:10506000211DFFF72FFF012384F84630002084F82C
:105070003E3084F83F3084F8403084F8413084F882
:10508000423084F8433084F8443084F8453084F862
:105090003D3010BD0120FCE7F8B50D460446002860
:1050A0004CD090F83D3003F0FF021BB980F83C2053
:1050B000FEF73AF82146022384F83D3051F8040BFC
:1050C000836823F4804323F007038360FFF7FAFE2D
:1050D00081682A688369AE69076A1143AA6823F464
:1050E000407323F0030342EA06221A432B69EE6958
:1050F0001B0143EA0623EE6833432E6A22F47C4206
:1051000022F0FC0243EA063313436E696A68816049
:1051100027F0AA0742EA06128361174301230762B8
:1051200084F84630002084F83E3084F83F3084F81C
:10513000423084F8433084F83D30F8BD0120FCE76C
:10514000036A23F010030362036A70B5446882693E
:105150000D6822F4E64242EA05228D6823F020031E
:1051600043EA0513104DA84203D005F58065A84217
:1051700014D1CD6823F0800343EA05130A4DA842F9
:1051800023F0400303D005F58065A84206D1D1E99C
:10519000055624F44064354344EA85044460826142
:1051A0004A688263036270BD0000014070B590F8E8
:1051B0003C30012B054650D00123082A80F83C30B2
:1051C0003BD007D8C2B1042A27D01846002385F85F
:1051D0003C3070BD0C2AF8D10068FFF713FDC3699D
:1051E0000A6943F40063C361C36923F48063C36144
:1051F000C36943EA02232EE00068FFF79BFC836942
:105200000A6943F008038361836923F0040383611F
:105210008369134383610020D8E70068FFF790FF9C
:1052200083690A6943F400638361836923F48063BB
:105230008361836943EA0223ECE70068FFF7ACFC73
:10524000C3690A6943F00803C361C36923F0040317
:10525000C361C3691343C361DDE70220B9E70000FE
:1052600070B5046A1A4E24F001040462B0428469E5
:10527000056A29D0B0F1804F26D0A6F57C46B04211
:1052800022D006F58066B0421ED006F58066B04298
:105290001AD006F57846B04216D006F57056B042E0
:1052A00012D0A6F59436B0420ED044F001021B0194
:1052B00022F0F002DBB2134301F00A0125F00A02EA
:1052C00011438361016270BD24F003042243EEE7C1
:1052D00000000140F8B590F83C30012B05460C4623
:1052E00000F08B80012380F83C3092B90068CB68D5
:1052F000D1E90012FFF7B4FF8369A26823F00C0321
:1053000083618369134383610020002385F83C3067
:10531000F8BD042A24D10368186A20F01000D1E9EE
:105320000027C968186298691E6A20F4407040EA34
:105330000720090320F4704089B21201014302F0F2
:10534000A00226F0A000024399611A629A69A1683E
:1053500022F440629A619A6942EA01229A61D3E793
:10536000082A22D103681E6A26F48076D1E900203B
:10537000C9681E62DF691E6A27F003073843090106
:1053800020F0F000C9B21202014302F4206226F4B8
:1053900020600243D9611A62DA69A16822F00C0226
:1053A000DA61DA690A43DA61AEE70C2A23D10368CD
:1053B000186A20F48050D1E90027C9681862D869BA
:1053C0001E6A20F4407040EA0720090320F4704070
:1053D00089B21203014302F4204226F42040024322
:1053E000D9611A62DA69A16822F44062DA61DA6985
:1053F00042EA0122D7E7184687E7022088E710B57E
:105400008468114324F47F4441EA032323438360E7
:1054100010BD38B590F83C30012B04464FF0020324
:1054200000F08E80012280F83D3080F83C2000683A
:10543000836823F47F4323F0770383600B68602B3A
:105440004FD032D8402B64D016D8202B0DD00AD89C
:1054500033F0100109D0012384F83D30002384F893
:105460003C30104638BD302BF5D1826822F07002F6
:10547000134343F0070328E0502BECD14A68CD6872
:10548000016A036A23F001030362836921F00A01C0
:1054900023F0F00343EA05130A4383610262836841
:1054A00023F0700343F057030FE0B3F5805F0DD096
:1054B000B3F5005F0CD0702BCDD1CB68D1E90121C1
:1054C000FFF79DFF836843F0770383600022C2E704
:1054D000CB68D1E90121FFF792FF836843F4804351
:1054E000F3E7036A4D68C96823F010030362826919
:1054F000036A22F4704223F0A00343EA051342EA50
:10550000013282610362836823F0700343F0670312
:10551000DBE74A68CD68016A036A23F0010303628E
:10552000836921F00A0123F0F00343EA05130A43DB
:1055300083610262836823F0700343F04703C4E78A
:105540001A468EE7036A01F01F0110B501248C4052
:1055500023EA04030362036A8A401A43026210BD0D
:1055600008B529B990F83E30012B18D001202CE065
:1055700004290DD190F83F30013B18BF0123002BC7
:10558000F4D104294FF0020320D180F83F3009E024
:1055900008290CBF90F8403090F84130ECE7022326
:1055A00080F83E3000680122FFF7CCFF1C4A904291
:1055B00013D01C4B984210D0B0F1804F14D18368A7
:1055C00003F00703062B26D1002008BD08290CBFD5
:1055D00080F8403080F84130E4E7436C904243F477
:1055E00000434364EBD0E7E70F4B9842E7D003F565
:1055F00080639842E3D003F580639842DFD003F5DF
:1056000078439842DBD003F570539842D7D0A3F586
:1056100094339842D3D0036843F001030360D3E787
:10562000000001400004014000040040FFF798BF63
:1056300030B590F83C30012B4FF0020332D080F8A7
:105640003D3003680D685C689A6824F070042C4350
:105650005C60154CA3421AD0B3F1804F17D0A4F56B
:105660007C44A34213D004F58064A3420FD004F518
:105670008064A3420BD004F57844A34207D004F51C
:105680007054A34203D0A4F59434A34204D14968D2
:1056900022F080020A439A60012380F83D30002303
:1056A00080F83C30184630BD0000014090F83C3096
:1056B000012B1FD0CB688A6823F4407313434A68D8
:1056C00023F4806313430A6823F4006313430A69D5
:1056D00023F4805313434A6923F400531343CA69E4
:1056E00023F48043134302685364002380F83C3062
:1056F000184670470220704770477047026802F1F1
:105700000C0353E8003F23F490730C3242E800315D
:1057100002680029F2D102F1140353E8003F23F09C
:10572000010302F1140C4CE800310029F3D1036BA2
:10573000012B0BD102F10C0353E8003F23F01003BF
:1057400002F10C0C4CE800310029F3D1202380F841
:105750003E300023036370470268C168136923F475
:1057600040530B4370B51361054683680069D168E7
:10577000034368690343E86921F4164121F00C01F1
:1057800003430B43D3605369A96923F440730B436C
:1057900053611F4B9A4203D003F580639A4223D191
:1057A000FFF79AF9EB691921B3F5004FD5E90046E7
:1057B000A0FB01011BD1B2194FF000035B41FBF7C5
:1057C000CDF96422B0FBF2F102FB1103DB003233AE
:1057D000B3FBF2F303F007025B0002EB011203F4E8
:1057E000F8731344A36070BDFFF766F9DAE7B200FF
:1057F000B30FFBF7B3F96422B0FBF2F102FB110324
:105800001B013233B3FBF2F303EB0113EAE700BFF2
:1058100000100140F8B504460E4617461D462268A2
:10582000136836EA030301D1002028E06B1CF7D08F
:1058300025B1FDF76FFEC01B8542F0D2226802F150
:105840000C0353E8003F23F4D0730C3242E80030DD
:1058500021680028F2D101F1140353E8003F23F03E
:10586000010301F1140040E80032002AF3D12023A3
:1058700084F83D3084F83C2084F83E300320F8BDA5
:1058800010B5044640B390F83D3003F0FF021BB959
:1058900080F83C20FDF732FD2268242384F83D3057
:1058A000D36823F40053D3602046FFF755FF2368E5
:1058B0001A6922F490421A615A6922F02A025A6146
:1058C000DA6842F40052DA6000202023206484F871
:1058D0003D3084F83E3010BD0120FCE7F7B5174697
:1058E00090F83D200093202A04460E4649D1002915
:1058F00045D0002F43D090F83C20012A41D001220E
:1059000080F83C2000252122056480F83D20FDF729
:1059100001FEA168009BA784B1F5805F0246E78481
:1059200003D1216909B935460E46002184F83C109F
:10593000E18C89B241B940212046FFF76BFF60B985
:10594000202384F83D3009E080212046CDE9002362
:10595000FFF760FFDDE9002310B1032003B0F0BDC5
:1059600020684EB935F8021BC1F308014160E18C93
:10597000013989B2E184DBE716F8011BF6E7012063
:10598000ECE70220EAE77047704708B5806B002318
:10599000C385C384FFF7F8FF08BD704790F83E3019
:1059A000222B07B541D18168836A0268B1F5805F17
:1059B0003ED1016900293ED15268C2F3080223F8A2
:1059C000022B8362C38D013B9BB2C385002B2CD17C
:1059D0000268D16821F02001D160D16821F4807182
:1059E000D160516921F001015161202280F83E20EF
:1059F000026B012A026828D1036302F10C0353E809
:105A0000003F23F0100302F10C0C4CE80031002998
:105A1000F3D11368DB0605D5019113680193536830
:105A20000193019B818DFFF7B8FF03B05DF804FB84
:105A300039B9016929B95268D2B21A70836A01333F
:105A4000BFE7526802F07F02F7E7FBF7C3FDECE720
:105A500003681A6873B51607D9685D69044608D1EA
:105A6000960668D58D0666D502B0BDE87040FFF792
:105A700095BF05F0010001F4907505435BD0D60792
:105A800005D5CD0542BF236C43F0010323645307C2
:105A900004D518B1236C43F002032364960704D5A0
:105AA00018B1236C43F004032364150707D501F0F4
:105AB000200303431EBF236C43F008032364236CBD
:105AC000002B32D0920604D58B0602D52046FFF774
:105AD00065FF26687369226C03F0400302F0080238
