:020000040800F2
:1000000000000220D53700086D3500087335000860
:10001000793500087F3500088535000800000000AC
:1000200000000000000000000000000061AD0008BA
:100030008B35000800000000B1AF000899350008BA
:10004000253800082538000825380008253800081C
:1000500025380008B3350008253800082538000881
:1000600025380008253800082538000825380008FC
:1000700025380008253800082538000825380008EC
:1000800025380008253800082538000825380008DC
:1000900025380008253800082538000825380008CC
:1000A000C1350008D5350008253800082538000876
:1000B0002538000825380008E935000825380008EB
:1000C000253800082538000825380008253800089C
:1000D000253800082538000825380008FD350008B7
:1000E000253800082538000825380008253800087C
:1000F0002538000811360008253800082538000882
:10010000253800082538000825380008253800085B
:10011000253800082538000825380008253800084B
:10012000253800082538000825380008253800083B
:10013000253800082538000825380008253800082B
:10014000253800082538000825380008253800081B
:10015000253800082538000825380008253800080B
:1001600025380008253800082538000825380008FB
:100170002538000825380008253800080000000050
:080180002538000825380008AD
:1001900010B5054C237833B9044B13B10448AFF3C1
:1001A00000800123237010BD080200200000000021
:1001B0006CE8000808B5034B1BB103490348AFF3D3
:1001C000008008BD000000000C0200206CE8000860
:1001D00001F0FF01102A2BDB10F0070F08D010F8F8
:1001E000013B013A8B422DD010F0070F42B3F6D1FC
:1001F000F0B441EA012141EA014122F007047FF015
:1002000000070023F0E80256083C85EA010586EA6B
:10021000010685FA47F5A3FA87F586FA47F6A5FAA7
:1002200087F68EB9EED1F0BC01F0FF0102F00702B3
:1002300032B110F8013B013A83EA010313B1F8D15E
:100240000020704701387047002D06BF354603383F
:10025000073815F0010F07D1013015F4807F02BF78
:10026000013015F4C03F0130F0BC0138704700BFC9
:10027000034613F8012B002AFBD1181A01387047E6
:1002800081F0004102E000BF83F0004330B54FEA47
:1002900041044FEA430594EA050F08BF90EA020FB4
:1002A0001FBF54EA000C55EA020C7FEA645C7FEA47
:1002B000655C00F0E2804FEA5454D4EB5555B8BF6A
:1002C0006D420CDD2C4480EA020281EA030382EADB
:1002D000000083EA010180EA020281EA0303362D6D
:1002E00088BF30BD11F0004F4FEA01314FF4801C40
:1002F0004CEA113102D0404261EB410113F0004F52
:100300004FEA03334CEA133302D0524263EB430308
:1003100094EA050F00F0A780A4F10104D5F1200EA6
:100320000DDB02FA0EFC22FA05F2801841F1000101
:1003300003FA0EF2801843FA05F359410EE0A5F1D5
:1003400020050EF1200E012A03FA0EFC28BF4CF006
:10035000020C43FA05F3C01851EBE37101F00045BC
:1003600007D54FF0000EDCF1000C7EEB00006EEBC9
:100370000101B1F5801F1BD3B1F5001F0CD3490853
:100380005FEA30004FEA3C0C04F101044FEA4452AA
:1003900012F5800F80F09A80BCF1004F08BF5FEA31
:1003A000500C50F1000041EB045141EA050130BD11
:1003B0005FEA4C0C404141EB0101013C28BFB1F523
:1003C000801FE9D291F0000F04BF01460020B1FA6E
:1003D00081F308BF2033A3F10B03B3F120020CDA41
:1003E0000C3208DD02F1140CC2F10C0201FA0CF01F
:1003F00021FA02F10CE002F11402D8BFC2F1200C84
:1004000001FA02F120FA0CFCDCBF41EA0C01904039
:10041000E41AA2BF01EB0451294330BD6FEA040482
:100420001F3C1CDA0C340EDC04F11404C4F120026D
:1004300020FA04F001FA02F340EA030021FA04F37F
:1004400045EA030130BDC4F10C04C4F1200220FAD6
:1004500002F001FA04F340EA0300294630BD21FA14
:1004600004F0294630BD94F0000F83F4801306BFDA
:1004700081F480110134013D4EE77FEA645C18BFCE
:100480007FEA655C29D094EA050F08BF90EA020F65
:1004900005D054EA000C04BF1946104630BD91EA5D
:1004A000030F1EBF0021002030BD5FEA545C05D160
:1004B0004000494128BF41F0004130BD14F580049F
:1004C0003CBF01F5801130BD01F0004545F0FE4113
:1004D00041F470014FF0000030BD7FEA645C1ABF48
:1004E000194610467FEA655C1CBF0B46024650EA7F
:1004F000013406BF52EA033591EA030F41F40021AB
:1005000030BD00BF90F0000F04BF0021704730B530
:100510004FF4806404F132044FF000054FF0000105
:1005200050E700BF90F0000F04BF0021704730B5C6
:100530004FF4806404F1320410F0004548BF40429B
:100540004FF000013EE700BF42004FEAE2014FEAF0
:1005500031014FEA02701FBF12F07F4393F07F4FCB
:1005600081F06051704732F07F4208BF704793F0CE
:100570007F4F04BF41F40021704730B54FF46074E1
:1005800001F0004521F000411CE700BF50EA0102E4
:1005900008BF704730B54FF000050AE050EA01028D
:1005A00008BF704730B511F0004502D5404261EBFD
:1005B00041014FF4806404F132045FEA915C3FF43E
:1005C000D8AE4FF003025FEADC0C18BF03325FEADB
:1005D000DC0C18BF033202EBDC02C2F1200300FA8C
:1005E00003FC20FA02F001FA03FE40EA0E0021FAB1
:1005F00002F11444BDE600BF70B54FF0FF0C4CF49F
:10060000E06C1CEA11541DBF1CEA135594EA0C0F50
:1006100095EA0C0F00F0DEF82C4481EA030621EA8B
:100620004C5123EA4C5350EA013518BF52EA0335C6
:1006300041F4801143F4801338D0A0FB02CE4FF078
:100640000005E1FB02E506F00042E0FB03E54FF0A8
:100650000006E1FB03569CF0000F18BF4EF0010EA0
:10066000A4F1FF04B6F5007F64F5407404D25FEA9C
:100670004E0E6D4146EB060642EAC62141EA55514F
:100680004FEAC52040EA5E504FEACE2EB4F1FD0C91
:1006900088BFBCF5E06F1ED8BEF1004F08BF5FEA0F
:1006A000500E50F1000041EB045170BD06F00046C1
:1006B00046EA010140EA020081EA0301B4EB5C046E
:1006C000C2BFD4EB0C0541EA045170BD41F4801166
:1006D0004FF0000E013C00F3AB8014F1360FDEBF8B
:1006E000002001F0004170BDC4F10004203C35DA67
:1006F0000C341BDC04F11404C4F1200500FA05F3EA
:1007000020FA04F001FA05F240EA020001F000428A
:1007100021F0004110EBD37021FA04F642EB060100
:100720005EEA430E08BF20EAD37070BDC4F10C042A
:10073000C4F1200500FA04F320FA05F001FA04F2EE
:1007400040EA020001F0004110EBD37041F10001DA
:100750005EEA430E08BF20EAD37070BDC4F12005E5
:1007600000FA05F24EEA020E20FA04F301FA05F24D
:1007700043EA020321FA04F001F0004121FA04F2F5
:1007800020EA020000EBD3705EEA430E08BF20EAC5
:10079000D37070BD94F0000F0FD101F000464000FF
:1007A00041EB010111F4801F08BF013CF7D041EA81
:1007B000060195F0000F18BF704703F00046520085
:1007C00043EB030313F4801F08BF013DF7D043EA56
:1007D0000603704794EA0C0F0CEA135518BF95EA0C
:1007E0000C0F0CD050EA410618BF52EA4306D1D193
:1007F00081EA030101F000414FF0000070BD50EAB2
:10080000410606BF1046194652EA430619D094EA3B
:100810000C0F02D150EA013613D195EA0C0F05D125
:1008200052EA03361CBF104619460AD181EA030179
:1008300001F0004141F0FE4141F470014FF0000031
:1008400070BD41F0FE4141F4780170BD70B54FF0CC
:10085000FF0C4CF4E06C1CEA11541DBF1CEA13554C
:1008600094EA0C0F95EA0C0F00F0A7F8A4EB05042E
:1008700081EA030E52EA03354FEA013100F0888025
:100880004FEA03334FF0805545EA131343EA1263EE
:100890004FEA022245EA111545EA10654FEA0026A3
:1008A0000EF000419D4208BF964244F1FD0404F55C
:1008B000407402D25B084FEA3202B61A65EB0305B8
:1008C0005B084FEA32024FF480104FF4002CB6EB75
:1008D000020E75EB030E22BFB61A754640EA0C00F5
:1008E0005B084FEA3202B6EB020E75EB030E22BF35
:1008F000B61A754640EA5C005B084FEA3202B6EB76
:10090000020E75EB030E22BFB61A754640EA9C0034
:100910005B084FEA3202B6EB020E75EB030E22BF04
:10092000B61A754640EADC0055EA060E18D04FEAC2
:10093000051545EA16754FEA06164FEAC30343EA62
:1009400052734FEAC2025FEA1C1CC0D111F4801F2F
:100950000BD141EA00014FF000004FF0004CB6E728
:1009600011F4801F04BF01430020B4F1FD0C88BFC7
:10097000BCF5E06F3FF6AFAEB5EB030C04BFB6EBD2
:10098000020C5FEA500C50F1000041EB045170BDC5
:100990000EF0004E4EEA113114EB5C04C2BFD4EBF2
:1009A0000C0541EA045170BD41F480114FF0000E76
:1009B000013C90E645EA060E8DE60CEA135594EAF2
:1009C0000C0F08BF95EA0C0F3FF43BAF94EA0C0FF5
:1009D0000AD150EA01347FF434AF95EA0C0F7FF46A
:1009E00025AF104619462CE795EA0C0F06D152EABE
:1009F00003353FF4FDAE1046194622E750EA4106A2
:100A000018BF52EA43067FF4C5AE50EA41047FF4B2
:100A10000DAF52EA43057FF4EBAE12E74FF0FF3C17
:100A200006E000BF4FF0010C02E000BF4FF0010CE8
:100A30004DF804CD4FEA410C7FEA6C5C4FEA430C61
:100A400018BF7FEA6C5C1BD001B050EA410C0CBFB0
:100A500052EA430C91EA030F02BF90EA020F002012
:100A6000704710F1000F91EA030F58BF994208BF79
:100A700090422CBFD8176FEAE37040F00100704736
:100A80004FEA410C7FEA6C5C02D150EA013C07D18D
:100A90004FEA430C7FEA6C5CD6D152EA033CD3D0D8
:100AA0005DF8040B704700BF8446104662468C46D2
:100AB0001946634600E000BF01B5FFF7B7FF002805
:100AC00048BF10F1000F01BD4DF808EDFFF7F4FF2E
:100AD0000CBF012000205DF808FB00BF4DF808EDB9
:100AE000FFF7EAFF34BF012000205DF808FB00BFDC
:100AF0004DF808EDFFF7E0FF94BF012000205DF8FE
:100B000008FB00BF4DF808EDFFF7CEFF94BF0120B2
:100B100000205DF808FB00BF4DF808EDFFF7C4FFAB
:100B200034BF012000205DF808FB00BF4FEA410CF4
:100B30007FEA6C5C02D150EA013C0AD14FEA430CD7
:100B40007FEA6C5C02D152EA033C02D14FF0000014
:100B500070474FF0010070474FEA410212F5001252
:100B600015D211D56FF47873B3EB625212D94FEAF4
:100B7000C12343F0004343EA505311F0004F23FADE
:100B800002F018BF404270474FF00000704750EA33
:100B9000013005D111F0004008BF6FF000407047F0
:100BA0004FF00000704700BF4A0011D212F500124A
:100BB00011D20DD56FF47873B3EB62520ED44FEAB5
:100BC000C12343F0004343EA505323FA02F0704735
:100BD0004FF00000704750EA013002D14FF0FF3073
:100BE00070474FF00000704753B94AB9002908BF59
:100BF00000281CBF4FF0FF314FF0FF3000F070B9FC
:100C0000ADF1080C6DE904CE00F006F8DDF804E063
:100C1000DDE9022304B070472DE9F047089E0D4638
:100C200004460F46002B4AD18A42944665D9B2FA4F
:100C300082F343B102FA03FCC3F120029F4020FA81
:100C400002F217439C404FEA1C4E1FFA8CF5B7FB8B
:100C5000FEF1220C0EFB117742EA074201FB05F080
:100C600090420AD91CEB020201F1FF3780F01C818F
:100C7000904240F2198102396244121AA4B2B2FBC6
:100C8000FEF00EFB102244EA024400FB05F5A542EB
:100C90000AD91CEB040400F1FF3280F00781A54261
:100CA00040F204816444023840EA0140641B0021A0
:100CB0001EB1DC400023C6E90043BDE8F0878B424B
:100CC00008D9002E00F0ED800021C6E90005084695
:100CD000BDE8F087B3FA83F1002949D1AB4202D3D2
:100CE000824200F2F880841A65EB03020120174665
:100CF000002EE2D0C6E90047DFE702B9FFDEB2FA14
:100D000082F3002B40F090808A1A4FEA1C471FFAAA
:100D10008CFE0121B2FBF7F507FB1520220C42EAFD
:100D200000420EFB05F0904208D91CEB020205F1CF
:100D3000FF3802D2904200F2CB804546121AA4B28C
:100D4000B2FBF7F007FB102244EA02440EFB00FE60
:100D5000A64508D91CEB040400F1FF3202D2A645D7
:100D600000F2BB801046A4EB0E0440EA05409FE76A
:100D7000C1F120078B4022FA07FC4CEA030C05FA6C
:100D800001F420FA07F3FD404FEA1C492343B5FB69
:100D9000F9F81FFA8CFE09FB18551C0C44EA0544AF
:100DA00008FB0EF5A54202FA01F200FA01F00BD998
:100DB0001CEB040408F1FF3A80F08880A54240F261
:100DC0008580A8F102086444641B9DB2B4FBF9F36A
:100DD00009FB134445EA044403FB0EFEA64508D96B
:100DE0001CEB040403F1FF356CD2A6456AD9023B23
:100DF000644443EA0843A3FB0295A4EB0E04AC420F
:100E0000C846AE4656D353D056B1B0EB080264EB99
:100E10000E0404FA07F7CA40CC401743C6E9007431
:100E200018460021BDE8F087C3F1200102FA03FC57
:100E300020FA01F225FA01F19D402A434FEA1C47AE
:100E40001FFA8CFEB1FBF7F007FB1015110C41EAFD
:100E5000054100FB0EF58D4204FA03F408D91CEBA2
:100E6000010100F1FF382FD28D422DD902386144A3
:100E7000491B92B2B1FBF7F507FB151142EA01429B
:100E800005FB0EF1914208D91CEB020205F1FF3877
:100E900016D2914214D9023D6244521A45EA0041E9
:100EA00038E73146304608E73946E6E61046FBE6C5
:100EB0004845A9D2B9EB020865EB0C0E013BA3E74C
:100EC0004546EAE72B4694E74046D1E7D0467BE724
:100ED000023D624432E708460AE76444023842E7CA
:100EE000704700BF80B500AF02F09EFC00F07CF8B8
:100EF00000F074FB00F004F900F0A0F900F0F2F942
:100F000000F098FA00F040FB00F0CCF800F03EFA58
:100F10000AF05AFD032200211E480AF050FB052268
:100F20001D491E4806F0ADFD07F078FD1C4A002162
:100F30001C4807F0BDFD03461B4A13601B4A0021F5
:100F40001B4807F0B5FD03461A4A13601A4A0021F0
:100F50001A4807F0ADFD0346194A1360194A0021EB
:100F6000194807F0A5FD0346184A1360184A0021E6
:100F7000184807F09DFD0346174A1360174A0021E1
:100F8000174807F095FD0346164A136007F06AFDFF
:100F9000FEE700BF240200203C040020E003002004
:100FA000D8E900089926000824040020FCE900087C
:100FB0003D2900082804002020EA0008E12C000850
:100FC0002C04002044EA0008B12E00083004002060
:100FD00068EA0008392F0008340400208CEA000871
:100FE000C12F00083804002080B594B000AF07F18D
:100FF00020033022002118460BF0EBFA07F10C0316
:1010000000221A605A609A60DA601A610023BB609D
:10101000224B1B6C214A43F0805313641F4B1B6C03
:1010200003F08053BB60BB6800237B601C4B1B68D4
:101030001B4A43F480431360194B1B6803F480433D
:101040007B607B6802233B620123FB6210233B63CE
:101050000023BB6307F12003184604F031FC03466C
:10106000002B01D002F016F80F23FB6000233B6138
:1010700000237B610023BB610023FB6107F10C03AC
:101080000021184604F094FE0346002B01D002F024
:1010900001F800BF5037BD4680BD00BF0038024098
:1010A0000070004080B500AF124B134A1A60114B1C
:1010B000124A5A600F4B00229A600E4B0022DA60EF
:1010C0000C4B4FF480421A610A4B00225A61094BC3
:1010D00000229A61074B0022DA61064B00221A6255
:1010E000044802F091FF0346002B01D001F0D2FF2B
:1010F00000BF80BD2402002000540040A0860100F3
:1011000080B596B000AF07F1480300221A605A601C
:101110009A60DA6007F1400300221A605A6007F112
:10112000240300221A605A609A60DA601A615A61D8
:101130009A613B1D2022002118460BF04AFA3D4BD4
:101140003D4A1A603B4BA0225A603A4B00229A60FB
:10115000384B4FF47A72DA60364B00221A61354B05
:1011600000225A61334B80229A61324805F000F820
:101170000346002B01D001F08DFF4FF48053BB6478
:1011800007F1480319462B4805F04CFD0346002B98
:1011900001D001F07FFF274805F039F80346002B06
:1011A00001D001F077FF00233B6400237B6407F14B
:1011B000400319461F4806F0A3FA0346002B01D04E
:1011C00001F068FF60237B620023BB620023FB62A7
:1011D00000237B630023BB630023FB6307F124032D
:1011E0000C221946134805F05BFC0346002B01D086
:1011F00001F050FF00237B600023BB600023FB60F5
:1012000000233B6100237B614FF40053BB6100234B
:101210003B623B1D1946074806F0EEFA0346002BD9
:1012200001D001F037FF034802F016F900BF58372C
:10123000BD4680BD780200200000014080B58CB022
:1012400000AF07F10C032422002118460BF0C1F96E
:101250003B1D00221A605A60214B4FF080421A60F9
:101260001F4B00225A601E4B00229A601C4B4FF607
:10127000FF72DA601A4B00221A61194B00229A6140
:101280000323FB6000233B6101237B610023BB61DF
:101290000A23FB6100233B6201237B620023BB62C4
:1012A0000A23FB6207F10C0319460D4805F01FF9EC
:1012B0000346002B01D001F0EDFE00237B600023EC
:1012C000BB603B1D1946064806F01AFA0346002B80
:1012D00001D001F0DFFE00BF3037BD4680BD00BF4A
:1012E000C002002080B58CB000AF07F10C032422AF
:1012F000002118460BF06DF93B1D00221A605A6060
:10130000204B214A1A601F4B00225A601D4B0022BD
:101310009A601C4B4FF6FF72DA601A4B00221A617A
:10132000184B00229A610323FB6000233B610123D9
:101330007B610023BB610A23FB6100233B62012325
:101340007B620023BB620A23FB6207F10C03194690
:101350000C4805F0CCF80346002B01D001F09AFEB2
:1013600000237B600023BB603B1D1946054806F047
:10137000C7F90346002B01D001F08CFE00BF3037C7
:10138000BD4680BD080300200004004080B586B043
:1013900000AF07F1100300221A605A603B4600229A
:1013A0001A605A609A60DA60204B214A1A601F4B1B
:1013B00000225A601D4B00229A601C4B4FF6FF72B0
:1013C000DA601A4B00221A61184B00229A61174802
:1013D00005F03EF80346002B01D001F05BFE002330
:1013E0003B6100237B6107F1100319460F4806F0AB
:1013F00087F90346002B01D001F04CFE00233B602F
:1014000001237B600023BB600023FB603B4600227E
:101410001946064805F0A7FA0346002B01D001F053
:1014200039FE00BF1837BD4680BD00BF5003002005
:101430000008004080B596B000AF07F148030022D5
:101440001A605A609A60DA6007F1400300221A605D
:101450005A6007F1240300221A605A609A60DA6029
:101460001A615A619A613B1D2022002118460BF037
:10147000B0F8434B434A1A60414B00225A60404B3C
:1014800000229A603E4B41F61F42DA603C4B00223C
:101490001A613B4B00225A61394B00229A6138484D
:1014A00004F066FE0346002B01D001F0F3FD4FF47B
:1014B0008053BB6407F148031946314805F0B2FB7D
:1014C0000346002B01D001F0E5FD2D4804F09FFEFE
:1014D0000346002B01D001F0DDFD00233B64002317
:1014E0007B6407F140031946254806F009F90346D5
:1014F000002B01D001F0CEFD60237B620023BB6294
:101500000023FB6200233B6300237B630023BB6358
:101510000023FB6307F1240300221946184805F055
:10152000BFFA0346002B01D001F0B4FD07F12403FC
:1015300004221946124805F0B3FA0346002B01D0E5
:1015400001F0A8FD00237B600023BB600023FB604B
:1015500000233B6100237B614FF40053BB610023F8
:101560003B623B1D1946064806F046F90346002B30
:1015700001D001F08FFD00BF5837BD4680BD00BFD0
:10158000980300200004014080B500AF114B124ABF
:101590001A60104B4FF4E1325A600E4B00229A60F1
:1015A0000C4B0022DA600B4B00221A61094B0C2213
:1015B0005A61084B00229A61064B0022DA61054805
:1015C00006F080F90346002B01D001F063FD00BF57
:1015D00080BD00BFE00300200048004080B58CB013
:1015E00000AF07F11C0300221A605A609A60DA60AB
:1015F0001A610023BB615B4B1B6B5A4A43F010031B
:101600001363584B1B6B03F01003BB61BB690023D2
:101610007B61544B1B6B534A43F080031363514B64
:101620001B6B03F080037B617B6900233B614D4BA7
:101630001B6B4C4A43F0010313634A4B1B6B03F0D3
:1016400001033B613B690023FB60464B1B6B454A32
:1016500043F002031363434B1B6B03F00203FB6075
:10166000FB680023BB603F4B1B6B3E4A43F0080303
:1016700013633C4B1B6B03F00803BB60BB68002388
:101680007B60384B1B6B374A43F004031363354BC5
:101690001B6B03F004037B607B6800224FF4BC618A
:1016A000314802F097FC00223C21304802F092FCC5
:1016B00000224FF480612E4802F08CFC00224FF48F
:1016C00000512C4802F086FC4FF4BC63FB610123FF
:1016D0003B6200237B620023BB6207F11C031946B7
:1016E000214802F0DBFA3C23FB6101233B6200232B
:1016F0007B620223BB6207F11C0319461B4802F000
:10170000CDFA4FF48063FB6101233B6200237B62CF
:101710000023BB6207F11C031946154802F0BEFA0C
:101720004FF48073FB614FF488133B6200237B62AC
:1017300007F11C0319460F4802F0B0FA4FF40053AA
:10174000FB6101233B6200237B620023BB6207F144
:101750001C031946074802F0A1FA00BF3037BD4606
:1017600080BD00BF0038024000100240000002406F
:1017700000040240000C024080B582B000AF7860E7
:1017800005220449044806F07CF900BF0837BD462D
:1017900080BD00BF3C040020E003002000000000EA
:1017A00080B582B000AF78607B681B7F012B40F072
:1017B0008A80494B1B68002B1BD10021786805F0FB
:1017C000F9FA03461A46454B1A60434B01221A6048
:1017D0007B681B681A6A7B681B6822F00A021A621F
:1017E0007B681B681A6A7B681B6842F002021A62F7
:1017F00069E0394B1B68012B65D10021786805F041
:10180000D9FA03461A46364B1A607B681B680022D9
:101810005A62334B1A68314B1B689A420DDD304BCC
:101820001A682E4B1B68D31A1846FEF77BFE024639
:101830000B462C49C1E9002315E0284B1A68284BB8
:101840001B689A420FDD254B1B68C3F57F43FF33AE
:10185000234A126813441846FEF764FE02460B46FC
:101860002049C1E900231F4BD3E9000118A3D3E9A4
:101870000023FEF7C1FE02460B46104619464FF004
:1018800000024FF08043FEF7E1FF02460B46164987
:10189000C1E90023104B00221A607B681B681A6A9A
:1018A0007B681B6822F00A021A627B681A687B68F0
:1018B0001B68126A1A620D4B1B68DA680B4B1B68B7
:1018C00022F00202DA6000BF0837BD4680BD00BFCB
:1018D000006F8104C58FA13FB0040020B404002034
:1018E000B8040020C0040020C804002050030020D9
:1018F00080B582B000AF87ED000B2DA3D3E90023A4
:10190000D7E90001FEF778FE02460B46C7E900233F
:101910001F4B92221A80642007F05CF91D4B0022B5
:101920001A601D4B00221A601C4B1D4A1A601D4B89
:101930001B4A1A601C4B1A4A1A601C4B184A1A6040
:10194000194B1B681846FEF7EDFDD7E90023FEF79B
:101950009DFC02460B4610461946FFF7FDF803466C
:10196000114A1360114B1B681846FEF7DBFDD7E9DF
:101970000023FEF78BFC02460B4610461946FFF784
:10198000EBF80346094A136000BF0837BD4680BD27
:10199000000000206404002060040020680400208F
:1019A000F82401006C04002070040020740400205E
:1019B0000000000000C0524080B582B000AF87ED4B
:1019C000000B0E4BE1221A80322007F003F90C4B7A
:1019D00000221A600B4B00221A600B4BD3E9000166
:1019E000D7E90023FEF750FC02460B460649C1E941
:1019F000002300BF0837BD4680BD00BF00000020A7
:101A000064040020600400207804002080B582B0C7
:101A100000AF87ED000B0E4B62221A80322007F0D8
:101A2000D9F80C4B00221A600B4B00221A600B4BAA
:101A3000D3E90001D7E90023FEF728FC02460B4654
:101A40000649C1E9002300BF0837BD4680BD00BF7D
:101A500000000020640400206004002078040020BE
:101A600080B584B000AF78607B68012B02D1012380
:101A7000FB6002E04FF0FF33FB60474B00221A602F
:101A8000464B00221A60FB685B001846FEF74AFDD1
:101A900002460B4643EC102BFFF72AFF00BF00F075
:101AA000FBFB0346002BFAD14FF4FA7007F092F8D3
:101AB0003A4B00221A60FA681346DB009B1A9B001F
:101AC00013441846FEF72EFD02460B4643EC102B3E
:101AD000FFF772FF00BF00F0DFFB0346002BFAD1D7
:101AE0004FF4FA7007F076F82C4B00221A60FB686E
:101AF000012B0ED1FA681346DB009B1A9B00184697
:101B0000FEF710FD02460B4643EC102BFFF77EFF5D
:101B10000CE0FA6813465B019B1A1846FEF702FDBB
:101B200002460B4643EC102BFFF770FF00BF00F09E
:101B3000B3FB0346002BFAD1322007F04BF8184BC9
:101B400078221A804FF4FA7007F044F8134B002201
:101B50001A60FB68012B09D1F868FEF7E3FC024626
:101B60000B4643EC102BFFF7C3FE03E09FED080B81
:101B7000FFF7BEFE00BF00F08FFB0346002BFAD13B
:101B8000322007F027F800BF1037BD4680BD00BFE8
:101B90000000000000000000640400206004002039
:101BA0000000002080B584B000AF78607B68012B16
:101BB00002D10123FB6002E04FF0FF33FB604F4B8B
:101BC00000221A604E4B00221A60FB685B00184628
:101BD000FEF7A8FC02460B4643EC102BFFF788FEED
:101BE00000BF00F059FB0346002BFAD1322006F06B
:101BF000F1FF434B00221A60FB68012B0DD1FB68FB
:101C00001A2202FB03F31846FEF78CFC02460B4631
:101C100043EC102BFFF7FAFE0DE0FA681346DB00E9
:101C20009B1A9B001846FEF77DFC02460B4643ECD0
:101C3000102BFFF7EBFE00BF00F02EFB0346002B3E
:101C4000FAD1322006F0C6FF2D4B00221A60FB6845
:101C5000012B0DD1FA6813465B0113441846FEF7B9
:101C600061FC02460B4643EC102BFFF7A5FE0DE08E
:101C7000FA681346DB009B1A9B001846FEF752FCDD
:101C800002460B4643EC102BFFF796FE00BF00F018
:101C900003FB0346002BFAD1322006F09BFF194BC1
:101CA00078221A804FF4FA7006F094FF144B002249
:101CB0001A60FB68012B09D1F868FEF733FC024675
:101CC0000B4643EC102BFFF713FE0CE0FA681346AB
:101CD0005B0013441846FEF725FC02460B4643EC16
:101CE000102BFFF705FE00BF00F0D6FA0346002BCD
:101CF000FAD100BF00BF1037BD4680BD640400208C
:101D0000600400200000002080B586B000AF87EDA1
:101D1000020B78604A4B00221A6001237B614FF06E
:101D200000024FF00003D7E90201FEF7D7FE034699
:101D3000002B02D04FF0FF337B61424B92221A807E
:101D4000414B00221A607B68002B04DD9FED340BB1
:101D5000FFF7CEFD03E09FED340BFFF7C9FD00BF99
:101D600000F09AFA0346002BFAD14FF4FA7006F00D
:101D700031FF354B00221A607B69012B11D14FF0E6
:101D80000002324BD7E90201FEF77EFA02460B460B
:101D900043EC172BB0EE470AF0EE670AFFF70CFE94
:101DA00003E097ED020BFFF707FE00BF00F074FAA7
:101DB0000346002BFAD1322006F00CFF224B002202
:101DC0001A607B68002B12DD1E4B6E221A804FF4C6
:101DD0007A7006F0FFFE1B4B94221A804FF47A7043
:101DE00006F0F8FE9FED120BFFF782FD0AE0154B9F
:101DF00078221A804FF47A7006F0ECFE9FED0E0BFD
:101E0000FFF776FD00BF00F047FA0346002BFAD13A
:101E10004FF4FA7006F0DEFE00BF1837BD4680BDF5
:101E2000000000000000000000000000000008406A
:101E300000000000000000C00000000000001CC006
:101E40006404002000000020600400200000E03F47
:101E500080B586B000AF87ED020B7860364B00226C
:101E60001A6001237B614FF000024FF00003D7E9B5
:101E70000201FEF733FE0346002B02D04FF0FF3382
:101E80007B612E4B92221A802D4B00221A607B68B8
:101E9000002B04DD9FED200BFFF72AFD03E09FEDF3
:101EA000200BFFF725FD00BF00F0F6F90346002BDD
:101EB000FAD14FF4FA7006F08DFE214B00221A6021
:101EC00097ED020BFFF7A2FD00BF00F0E5F9034616
:101ED000002BFAD1322006F07DFE194B00221A6049
:101EE0007B68002B04DD9FED100BFFF701FD03E085
:101EF0009FED0F0BFFF7FCFC00BF00F0CDF9034690
:101F0000002BFAD14FF4FA7006F064FE00BF1837C8
:101F1000BD4680BDAFF30080000000000000F03F30
:101F2000000000000000004000000000000000C0B1
:101F300000000000000010C0640400200000002029
:101F40006004002080B483B000AF78607B684FF0FD
:101F50000002DA607B684FF000021A6100BF0C37A4
:101F6000BD465DF8047B704790B58BB000AFF8605C
:101F7000B9607A60FB70FB6893ED007ABB6807EE8E
:101F8000903AF8EEE77A27EE277AFB68D3ED016AFC
:101F9000FB68D3ED047A66EEA77A37EE277AFB6802
:101FA000D3ED026ABB6807EE903AB8EEE76AFB68C9
:101FB000D3ED037A76EE677A66EEA77A77EE277A24
:101FC000FDEEE77A17EE903A7B60BB6807EE903A39
:101FD000F8EEE77AFB68C3ED037AFB6893ED047AC9
:101FE000BB6807EE903AF8EEE77A77EE277AFB685F
:101FF000C3ED047A224B07F114040FCB07C42380EE
:1020000007F1220300221A609A8007F114037A680C
:102010001C4918460AF07AFA07F114031A461E21E1
:102020000A2009F09FFC7B68B3F52F7F05DC7B68F5
:10203000154A9342B8BF134601E04FF42F737B60FB
:1020400097F903309AB27B689BB212FB03F39BB201
:1020500003F6B8339AB20D4B1A8097F903309AB24F
:102060007B689BB212FB03F39BB2C3F53B6308335F
:102070009AB2074B1A8000BF2C37BD4690BD00BFF7
:1020800048E900083CE9000844FDFFFF5E04002029
:102090005C04002080B485B000AFF860B9607A605D
:1020A000FB70FB6893ED007ABB6807EE903AF8EEA0
:1020B000E77A27EE277AFB68D3ED016AFB68D3ED58
:1020C000047A66EEA77A37EE277AFB68D3ED026AC8
:1020D000BB6807EE903AB8EEE76AFB68D3ED037A87
:1020E00076EE677A66EEA77A77EE277AFDEEE77AE4
:1020F00017EE903A7B60BB6807EE903AF8EEE77A0D
:10210000FB68C3ED037AFB6893ED047ABB6807EEC6
:10211000903AF8EEE77A77EE277AFB68C3ED047A17
:102120007B68B3F52F7F05DC7B68144A9342B8BF08
:10213000134601E04FF42F737B6097F903309AB296
:102140007B689BB212FB03F39BB203F57A739AB2DE
:102150000B4B1A8097F903309AB27B689BB212FB43
:1021600003F39BB2C3F57A739AB2064B1A8000BF91
:102170001437BD465DF8047B704700BF44FDFFFF88
:10218000A0040020A204002080B586B000AF87ED37
:10219000020B78604FF000023C4BD7E90201FEF7DA
:1021A0002BFA02460B4610461946FEF7D5FC0346AD
:1021B0007B617B68002B18D07B69002B0ADD012234
:1021C0001021334801F006FF00222021304801F0A1
:1021D00001FF22E0002210212D4801F0FBFE012228
:1021E00020212B4801F0F6FE17E07B69002B0ADA6C
:1021F00001220821264801F0EDFE00220421244896
:1022000001F0E8FE09E000220821214801F0E2FE89
:10221000012204211E4801F0DDFE7B69002BB8BFBE
:102220005B427B617B69B3F5967F02DD40F6B83394
:1022300028E07B69C82B02DD4FF4FA6322E07B695A
:10224000962B02DD4FF4C8631CE07B69642B02DD32
:102250004FF4AF6316E07B690A2B02DD4FF47A730B
:1022600010E07B69012B07DD0A4B1B680133094A2B
:1022700013604FF4167305E0064B1B680133054AE3
:102280001360002318461837BD4680BD0000244067
:10229000000002406004002080B500AF104B1B68B6
:1022A000142B19DD0F4B01221A600F4B00221A80EC
:1022B0000D4B1A880D4B1A800D4B1B680D4A13608D
:1022C0000D4B1B680D4A1360054B00221A6032202B
:1022D00006F080FC002300E00123184680BD00BF0B
:1022E00060040020640400205C0400205E040020E0
:1022F0006C04002074040020680400207004002096
:1023000080B584B002AF03463960FB710F4AFB7998
:1023100013700F4B1B789BB25B0099B20A2300939A
:1023200001230A4A0B4801F0B3FF094B1B789BB20B
:102330005B0099B21423009302233A68054802F027
:10234000A5F800BF0837BD4680BD00BF8804002047
:10235000020000202402002080B584B004AF4FF6B4
:10236000FF730293022301930A4B00930123372248
:10237000D021094802F0AAFB064B1B781B021AB2B7
:10238000044B5B781BB213431AB2044B1A8000BF94
:10239000BD4680BDA404002024020020A604002025
:1023A00080B584B002AF03460A46FB711346BB7189
:1023B0000A4AFB791370094ABB795370084B1B78A2
:1023C0009BB25B0099B2142300930223034A054891
:1023D00001F05EFF00BF0837BD4680BD88040020C5
:1023E000020000202402002080B582B000AF786097
:1023F00039603B68002B18D07B68002B0ADD012276
:102400001021184801F0E6FD00222021154801F0B6
:10241000E1FD22E000221021124801F0DBFD012243
:102420002021104801F0D6FD17E07B68002B0ADD63
:10243000012208210B4801F0CDFD002204210948AA
:1024400001F0C8FD09E000220821064801F0C2FDA4
:1024500001220421034801F0BDFD00BF0837BD463D
:1024600080BD00BF0000024080B584B000AF78603E
:1024700039607B68002BB8BF5B427B603B68002BF8
:10248000B8BF5B423B600023FB607A683B689A42BE
:1024900002DC7B68FB6001E03B68FB60FB68B3F536
:1024A000FA7F37DD4D4B4FF000021A604C4B002293
:1024B0001A804C48FFF746FDFFF74EFF4A4B1B685A
:1024C0001B6803F01003102B01D1012201E04FF033
:1024D000FF32464B1A70424BB3F9003007EE903A88
:1024E000B8EEE77A3D4BD3ED007A77EE277A3B4B97
:1024F000C3ED007A394BD3ED007AFDEEE77A3C4B21
:102500001A683A4B93F9003017EE901A3548FFF7E6
:102510002BFD5EE0FB68312B3FDD304B4FF00002BE
:102520001A602F4B00221A803248FFF70BFDFFF78D
:1025300013FF2D4B1B681B6803F01003102B01D1F8
:10254000012201E04FF0FF32284B1A70244BB3F9FF
:10255000003007EE903AB8EEE77A204BD3ED007AE0
:1025600077EE277A1D4BC3ED007A1C4BD3ED007A32
:10257000FDEEE77A1E4B1A681C4B93F9003017EEFC
:10258000901A1C48FFF786FD1B4B1A881B4B1A80BC
:102590001B4B1A881B4B1A801BE0FB68002B0CDDC1
:1025A000194B1B680133184A1360144B00221A8020
:1025B000124B1A88134B1A800BE0104B00221A8022
:1025C0000E4B1A880F4B1A800F4B1B6801330E4AB3
:1025D000136000BF1037BD4680BD00BFA8040020B7
:1025E000A604002004000020C002002003000020F8
:1025F0009C04002018000020A00400205E0400209D
:10260000A20400205C0400206004002080B500AF1C
:1026100000210620FFF7C4FE0A2006F0DBFA802125
:102620000320FFF7BDFE0A2006F0D4FA0721072099
:10263000FFF7B6FE0A2006F0CDFA01210620FFF7CB
:10264000AFFE0A2006F0C6FA20217F20FFF7A8FE81
:102650000A2006F0BFFA2F210120FFF7A1FE0A2071
:1026600006F0B8FA00210020FFF79AFE0A2006F0D3
:10267000B1FA00217F20FFF793FE0A2006F0AAFAA4
:1026800000210720FFF78CFE0A2006F0A3FA00BF06
:1026900080BD00000000000080B586B000AF78600B
:1026A000974B00221A80974B00221A8000237B61EF
:1026B0000021954803F004FE0421934803F000FE36
:1026C0000C21924803F0FCFD904B1B6892221A6487
:1026D000012210218E4801F07DFC002220218C482F
:1026E00001F078FC01220821894801F073FC0022E6
:1026F0000421874801F06EFC322006F06BFA854B0E
:102700001A88824B1B681A64834BD3E90001834B00
:10271000D3E90023FDF7B8FD02460B46C7E90223C3
:102720007C4B1B887E2B4CD8012097ED020BFFF7CA
:102730002BFD03461846FDF7F5FE4FF00002784BDF
:10274000FDF75AFF02460B4610461946FEF72CFAD3
:1027500003469AB26A4B1A80694B1B881846FDF7EC
:10276000E1FE65A3D3E90023FDF746FF02460B46D1
:1027700010461946FEF718FA03469AB2614B1A80C2
:102780004FF000024FF00003D7E90201FEF7C4F951
:102790000346002B0AD0012208215D4801F01AFCF3
:1027A000002204215A4801F015FC7AE00022082199
:1027B000574801F00FFC01220421554801F00AFCA2
:1027C0006FE0544B1B88BD2B4CD9002097ED020BBA
:1027D000FFF7DAFC03461846FDF7A4FE4FF00002AF
:1027E0004F4BFDF709FF02460B4610461946FEF710
:1027F000DBF903469AB2434B1A80424B1B881846BA
:10280000FDF790FE3CA3D3E90023FDF7F5FE024659
:102810000B4610461946FEF7C7F903469AB2384BE5
:102820001A804FF000024FF00003D7E90201FEF7D3
:1028300055F90346002B0AD001221021344801F03B
:10284000C9FB00222021324801F0C4FB29E000220C
:1028500010212F4801F0BEFB012220212C4801F05D
:10286000B9FB1EE02F4B1A682F4B1B68D31A0121AE
:102870001846FFF7B9FD2D4B1A682D4B1B68D31A6C
:1028800000211846FFF7B0FD264B1A68264B1B683F
:10289000D01A264B1A68264B1B68D31A1946FFF725
:1028A000E3FD244B1B68002B0ED0154B00221A8031
:1028B000134B1A88134B1A801B4B1B68194A136061
:1028C0001B4B1B68194A13600E4B1A880E4B1B6872
:1028D0005A630B4B1A880C4B1B689A63012006F055
:1028E00079F9154B1B68B3F57A7F7FF708AF124B68
:1028F00040F2E9321A6002E7333333333333D33FE4
:102900005C0400205E040020980300207802002070
:102910000000024000000020780400208004002015
:102920000000F83F740400206C04002070040020B4
:1029300068040020640400206004002090B58DB07D
:1029400000AF78604123FB77292387F827300123E4
:10295000FB62B94B2D221A70B74B57225A70B64BF7
:1029600041229A70B44B4922DA70B34B54221A7147
:10297000B24B07F10C040FCB84E80F0004233B6239
:102980000023BB6299E1BB6A9B0030333B4453F8A0
:10299000243C1A78A84B1A70BB6A9B0030333B4426
:1029A00053F8243C01331A78A34B5A70BB6A9B003E
:1029B00030333B4453F8243C02331A789E4B9A70D0
:1029C000BB6A9B0030333B4453F8243C03331A78F2
:1029D000994BDA70BB6A9B0030333B4453F8243C7C
:1029E00004331A78944B1A71954B00221A60924B5B
:1029F0001A78944B1A70904B5A78934B1A708E4BEE
:102A00009B78303B642202FB03F18B4BDB78A3F114
:102A1000300213469B0013445B00CA18864B1B7997
:102A2000303B1344864A13600123FB62864B1B78BC
:102A3000422B03D0844B1B78622B07D1804B1B6841
:102A40005B427F4A13604FF0FF33FB624FF4FA6042
:102A500006F0C0F87B4B1B78443B0F2B00F2138130
:102A600001A252F823F000BF872C0008872C000831
:102A7000872C0008872C0008872C0008872C00086A
:102A8000B12B0008F52B0008572B0008872C0008F5
:102A9000872C0008872C0008552C0008872C00087C
:102AA000FD2A0008A92A0008684B00221A60644B1E
:102AB0001B681846FDF736FD02460B4643EC102B0B
:102AC000FEF716FF00BFFFF7E7FB0346002BFAD126
:102AD0005F4B01221A60584B44221A70564B4F220A
:102AE0005A70554B4E229A70534B4522DA70524B16
:102AF00021221A71322006F06DF8C5E0534B0022F6
:102B00001A60FB6A592202FB03F31846FDF70AFD1F
:102B100002460B46F86A43EC102BFFF7F5F800BFAE
:102B2000FFF7BAFB0346002BFAD1494B01221A608A
:102B3000414B44221A70404B4F225A703E4B4E225A
:102B40009A703D4B4522DA703B4B21221A7132209C
:102B500006F040F898E03D4B00221A60FB6A5922CB
:102B600002FB03F31846FDF7DDFC02460B46F86A4C
:102B700043EC102BFFF76CF900BFFFF78DFB03460A
:102B8000002BFAD1324B01221A602B4B44221A70CF
:102B9000294B4F225A70284B4E229A70264B4522C1
:102BA000DA70254B21221A71322006F013F86BE0FF
:102BB000264B00221A60F86AFEF752FF00BFFFF7AB
:102BC0006BFB0346002BFAD1214B01221A601A4BF2
:102BD00044221A70184B4F225A70174B4E229A708B
:102BE000154B4522DA70144B21221A71322005F060
:102BF000F1FF49E0154B00221A60F86AFEF7D2FF98
:102C000000BFFFF749FB0346002BFAD1104B01220E
:102C10001A60094B44221A70074B4F225A70064B18
:102C20004E229A70044B4522DA70034B21221A710E
:102C3000322005F0CFFF27E03C04002084E90008A3
:102C40005804002054040020550400206004002093
:102C5000500400201E4B01221A601E4B00221A60F5
:102C60001D4B44221A701C4B4F225A701A4B4E2295
:102C70009A70194B4522DA70174B21221A713220B3
:102C800005F0A8FF00E000BF134B1B7887F8273042
:102C90000F4B1B68012B0DD1642005F09BFF07F142
:102CA0001F014FF6FF7301220C4804F058FE084B39
:102CB00000221A60BB6A0133BB62BA6A3B6A9A425D
:102CC000FFF461AE00BF00BF3437BD4690BD00BF0A
:102CD00050040020600400203C040020E003002099
:102CE000B0B58AB000AF7860FFF790FC00233B815D
:102CF00000237B624FF000024FF00003C7E9062378
:102D00004FF000024FF00003C7E904230023FB60EB
:102D100058E0322005F05EFF07F10803194637201E
:102D2000FFF7EEFA3B7A5BB29BB21B029AB27B7A58
:102D30009BB213449BB21AB25B4B1A803B7A1B02C4
:102D40001AB27B7A1BB213431AB2574B1A80564BF6
:102D5000B3F900301846FDF7E5FB04460D4600F0D8
:102D6000C9FD02467B6AD31A1846FDF7CBFB4CA37C
:102D7000D3E90023FDF76AFD02460B4620462946AB
:102D8000FDF73AFC02460B46D7E90401FDF77EFA4F
:102D900002460B46C7E90423434BB3F900301846FB
:102DA000FDF7C0FB02460B46D7E90601FDF76EFAB8
:102DB00002460B46C7E9062300F09CFD7862FB68DB
:102DC0000133FB60FB68632BA3DDF868FDF7AAFB0A
:102DD00002460B46D7E90601FDF738FD02460B46D1
:102DE000C7E90623322005F0F5FE07F1080319466E
:102DF0003720FFF785FAFFF7AFFA3B7A1B021AB2CA
:102E00007B7A1BB213431AB2274B1A803B7A5BB210
:102E10009BB21B029AB27B7A9BB213449BB21AB24A
:102E2000214B1A80204BB3F900301846FDF77AFB8E
:102E3000D7E90623FDF728FA02460B4614461D463D
:102E400000F058FD02467B6AD31A1846FDF75AFB7C
:102E500013A3D3E90023FDF7F9FC02460B462046F5
:102E60002946FDF7C9FB02460B46104619460F4B93
:102E7000D3E90023FDF70AFA02460B460B49C1E9E4
:102E80000023094BB3F900301A46FB689B1AFB601C
:102E900000F030FD7862FB680133FB60A2E700BF01
:102EA000000000000004D040AC040020800400209A
:102EB00080B586B000AF78603C211D4803F0BDFBB3
:102EC00001237B6100F016FDF86000F013FD02465F
:102ED000FB68D31A0A2BF8D9154B1B685B6ABB60D9
:102EE000BB68B3F5FA4F06DD01237B61BB68C3F510
:102EF00080333B6104E04FF0FF337B61BB683B6193
:102F00007B69012B06D10B4B1A683B69D31A094A1E
:102F1000136005E0074B1A683B691344054A1360C8
:102F2000034B1B6800225A6200F0E4FCF860CCE717
:102F3000080300206804002080B586B000AF7860E8
:102F40003C211D4803F079FB01237B6100F0D2FC9A
:102F5000F86000F0CFFC0246FB68D31A0A2BF8D9C0
:102F6000154B1B685B6ABB60BB68B3F5FA4F06DDA7
:102F700001237B61BB68C3F580333B6104E04FF004
:102F8000FF337B61BB683B617B69012B06D10B4B37
:102F90001A683B691344094A136005E0074B1A6835
:102FA0003B69D31A054A1360034B1B6800225A621F
:102FB00000F0A0FCF860CCE7C00200206C04002008
:102FC00090B589B000AF7860294B07F10C040FCBA6
:102FD00007C4238007F11A0300221A609A8007F1C0
:102FE0000C03244A2449184609F090FA07F10C030F
:102FF0001A460A210A2008F0B5FC204B1A6807F18E
:103000000C031F49184609F081FA07F10C031A4610
:1030100014210A2008F0A6FC1A4BB3F900301A4616
:1030200007F10C031849184609F070FA07F10C0370
:103030001A4628210A2008F095FC144BD3E90023F6
:1030400010461946FDF788FD024607F10C031049AA
:10305000184609F05BFA07F10C031A4632210A20E0
:1030600008F080FC08F00AFB012005F0B3FDB6E78C
:1030700048E900083C04002094E9000860040020AE
:10308000A0E90008A6040020ACE9000878040020AC
:10309000B8E9000880B400AF72B600BFFEE70000D8
:1030A00080B582B000AF00237B60164B5B6C154A85
:1030B00043F480435364134B5B6C03F480437B60A5
:1030C0007B6800233B600F4B1B6C0E4A43F0805320
:1030D00013640C4B1B6C03F080533B603B68002275
:1030E0000F216FF0010000F010FD002205210520E6
:1030F00000F00BFD052000F024FD00BF0837BD46A1
:1031000080BD00BF0038024080B58AB000AF786053
:1031100007F1140300221A605A609A60DA601A619B
:103120007B681B68194A93422CD100233B61184BE2
:103130001B6B174A43F002031363154B1B6B03F021
:1031400002033B613B694FF440737B611223BB6117
:103150000023FB6103233B6204237B6207F114031A
:1031600019460C4800F09AFD0023FB60084B1B6CCD
:10317000074A43F400131364054B1B6C03F400135C
:10318000FB60FB6800BF2837BD4680BD005400408F
:10319000003802400004024080B58AB000AF786079
:1031A00007F1140300221A605A609A60DA601A610B
:1031B0007B681B682F4A93421ED100233B612E4B34
:1031C0005B6C2D4A43F0010353642B4B5B6C03F0A3
:1031D00001033B613B6900220521182000F095FCAA
:1031E000182000F0AEFC00220521192000F08DFC13
:1031F000192000F0A6FC38E07B681B681F4A934248
:1032000033D10023FB601C4B5B6C1B4A43F0020371
:103210005364194B5B6C03F00203FB60FB680023F3
:10322000BB60154B1B6B144A43F004031363124B32
:103230001B6B03F00403BB60BB68C0237B610223EC
:10324000BB610023FB6100233B6203237B6207F128
:10325000140319460A4800F021FD002205212D2003
:1032600000F053FC2D2000F06CFC00BF2837BD4659
:1032700080BD00BF00000140003802400004014052
:103280000008024080B58CB000AF786007F11C03E5
:1032900000221A605A609A60DA601A617B681B68C3
:1032A000B3F1804F4BD10023BB613F4B1B6C3E4AB7
:1032B00043F0010313643C4B1B6C03F00103BB613F
:1032C000BB6900237B61384B1B6B374A43F001031A
:1032D0001363354B1B6B03F001037B617B69002398
:1032E0003B61314B1B6B304A43F0020313632E4B9F
:1032F0001B6B03F002033B613B694FF40043FB612E
:1033000002233B6200237B620023BB620123FB623A
:1033100007F11C031946254800F0C0FC0823FB6197
:1033200002233B6200237B620023BB620123FB621A
:1033300007F11C0319461E4800F0B0FC30E07B6822
:103340001B681C4A93422BD10023FB60164B1B6C5D
:10335000154A43F002031364134B1B6C03F0020382
:10336000FB60FB680023BB600F4B1B6B0E4A43F0F6
:10337000010313630C4B1B6B03F00103BB60BB68C1
:10338000C023FB6102233B6200237B620023BB62FC
:103390000223FB6207F11C031946044800F07EFC7F
:1033A00000BF3037BD4680BD0038024000000240FB
:1033B000000402400004004080B58AB000AF78608D
:1033C00007F1140300221A605A609A60DA601A61E9
:1033D0007B681B681D4A934234D100233B611C4B20
:1033E0001B6C1B4A43F004031364194B1B6C03F062
:1033F00004033B613B690023FB60154B1B6B144AC4
:1034000043F008031363124B1B6B03F00803FB60CC
:10341000FB684FF480537B610223BB610023FB6197
:1034200000233B6202237B6207F11403194609481B
:1034300000F034FC002205211E2000F066FB1E2057
:1034400000F07FFB00BF2837BD4680BD000800406C
:1034500000380240000C024080B588B000AF7860B0
:1034600007F10C0300221A605A609A60DA601A6150
:103470007B681B68124A93421ED10023BB60114B2C
:103480001B6B104A43F0100313630E4B1B6B03F0CE
:103490001003BB60BB684FF48043FB6002233B61B9
:1034A00000237B610023BB610123FB6107F10C0357
:1034B0001946054800F0F2FB00BF2037BD4680BD2D
:1034C00000000140003802400010024080B58AB080
:1034D00000AF786007F1140300221A605A609A6006
:1034E000DA601A617B681B681D4A934234D100235D
:1034F0003B611C4B1B6C1B4A43F480231364194B28
:103500001B6C03F480233B613B690023FB60154B7C
:103510001B6B144A43F004031363124B1B6B03F041
:103520000403FB60FB684FF440637B610223BB61D3
:103530000023FB6103233B6207237B6207F1140333
:103540001946094800F0AAFB00220521272000F0B7
:10355000DCFA272000F0F5FA00BF2837BD4680BD11
:1035600000480040003802400008024080B400AF2C
:10357000FEE780B400AFFEE780B400AFFEE780B4A2
:1035800000AFFEE780B400AFFEE780B400AF00BF3D
:10359000BD465DF8047B704780B500AF00F096F93A
:1035A00006F050FF0346012B01D007F035FD00BFA8
:1035B00080BD80B400AF00BFBD465DF8047B70479E
:1035C00080B500AF024803F0C6F800BF80BD00BF61
:1035D0007802002080B500AF024803F0BCF800BFBD
:1035E00080BD00BF7802002080B500AF024803F024
:1035F000B2F800BF80BD00BF5003002080B500AF0F
:10360000024804F06FFA00BF80BD00BFE003002055
:1036100080B500AF024803F09EF800BF80BD00BF38
:103620009803002080B400AF01231846BD465DF822
:10363000047B704780B582B000AF7860396009F0D4
:1036400071F8034616221A604FF0FF331846083708
:10365000BD4680BD80B582B000AF78604FF0FF31CD
:103660007868FFF7E7FFFEE780B586B000AFF86047
:10367000B9607A6000237B610AE0AFF30080014605
:10368000BB685A1CBA60CAB21A707B6901337B618D
:103690007A697B689A42F0DB7B6818461837BD462A
:1036A00080BD80B586B000AFF860B9607A60002355
:1036B0007B6109E0BB685A1CBA601B781846AFF3FF
:1036C00000807B6901337B617A697B689A42F1DB18
:1036D0007B6818461837BD4680BD80B483B000AF04
:1036E00078604FF0FF3318460C37BD465DF8047B19
:1036F000704780B483B000AF786039603B684FF4A6
:1037000000525A60002318460C37BD465DF8047B12
:10371000704780B483B000AF7860012318460C373F
:10372000BD465DF8047B704780B485B000AFF8609B
:10373000B9607A60002318461437BD465DF8047BF3
:103740007047000080B586B000AF7860144A154B12
:10375000D31A7B617B693B61134B1B68002B02D141
:10376000114B124A1A60104B1A687B6813443A696D
:103770009A4207D208F0D6FF03460C221A604FF097
:10378000FF3309E0084B1B68FB60074B1A687B6836
:103790001344054A1360FB6818461837BD4680BDC0
:1037A0000000022000040000D0040020105400207B
:1037B00080B400AF064BD3F88830054A43F4700359
:1037C000C2F8883000BFBD465DF8047B704700BF7B
:1037D00000ED00E0DFF834D00D480E490E4A00231A
:1037E00002E0D458C4500433C4188C42F9D30B4AB5
:1037F0000B4C002301E013600432A242FBD3FFF71D
:10380000D7FF08F095FFFDF76DFB70470000022021
:103810000000002004020020ACF80008080200208C
:103820000C540020FEE7000080B500AF0E4B1B6873
:103830000D4A43F4007313600B4B1B680A4A43F4B0
:1038400080631360084B1B68074A43F4807313605E
:10385000032000F04FF90F2000F008F8FFF720FCDC
:103860000023184680BD00BF003C024080B582B0F6
:1038700000AF7860124B1A68124B1B7819464FF450
:103880007A73B3FBF1F3B2FBF3F3184600F067F978
:103890000346002B01D001230EE07B680F2B0AD8D2
:1038A000002279684FF0FF3000F02FF9064A7B685C
:1038B0001360002300E0012318460837BD4680BD91
:1038C0002C000020340000203000002080B400AF25
:1038D000064B1B781A46064B1B681344044A1360B8
:1038E00000BFBD465DF8047B704700BF3400002078
:1038F000D404002080B400AF034B1B681846BD46BB
:103900005DF8047B704700BFD404002080B584B00C
:1039100000AF7860FFF7EEFFB8607B68FB60FB6884
:10392000B3F1FF3F05D00A4B1B781A46FB681344DE
:10393000FB6000BFFFF7DEFF0246BB68D31AFA68E0
:103940009A42F7D800BF00BF1037BD4680BD00BF08
:103950003400002080B485B000AF78607B6803F04D
:103960000703FB600C4BDB68BB60BA684FF6FF03D4
:103970001340BB60FB681A02BB68134343F0BF638C
:1039800043F40033BB60044ABB68D36000BF143704
:10399000BD465DF8047B704700ED00E080B400AFE9
:1039A000044BDB681B0A03F007031846BD465DF8AD
:1039B000047B704700ED00E080B483B000AF0346A5
:1039C000FB7197F90730002B0BDBFB7903F01F022B
:1039D000074997F907305B09012000FA02F241F824
:1039E000232000BF0C37BD465DF8047B704700BF45
:1039F00000E100E080B483B000AF03463960FB71A2
:103A000097F90730002B0ADB3B68DAB20C4997F9CB
:103A100007301201D2B20B4483F800230AE03B685E
:103A2000DAB20849FB7903F00F03043B1201D2B26A
:103A30000B441A7600BF0C37BD465DF8047B704717
:103A400000E100E000ED00E080B489B000AFF86074
:103A5000B9607A60FB6803F00703FB61FB69C3F19F
:103A60000703042B28BF0423BB61FB690433062B27
:103A700002D9FB69033B00E000237B614FF0FF327A
:103A8000BB6902FA03F3DA43BB681A407B699A40C8
:103A90004FF0FF317B6901FA03F3D9437B680B4098
:103AA000134318462437BD465DF8047B7047000079
:103AB00080B582B000AF78607B68013BB3F1807F56
:103AC00001D301230FE00A4A7B68013B53600F21B9
:103AD0004FF0FF30FFF78EFF054B00229A60044B3A
:103AE00007221A60002318460837BD4680BD00BF74
:103AF00010E000E080B582B000AF78607868FFF732
:103B000029FF00BF0837BD4680BD80B586B000AF35
:103B10000346B9607A60FB7300237B61FFF73EFFC9
:103B200078617A68B9687869FFF78EFF024697F97D
:103B30000F3011461846FFF75DFF00BF1837BD462E
:103B400080BD80B582B000AF0346FB7197F90730A6
:103B50001846FFF731FF00BF0837BD4680BD80B56E
:103B600082B000AF78607868FFF7A2FF034618467E
:103B70000837BD4680BD80B584B000AF78607B68F3
:103B80009B6DFB60FFF7B6FEB8607B6893F835303D
:103B9000DBB2022B08D07B6880225A657B6800224A
:103BA00083F83420012352E07B681B681A687B6825
:103BB0001B6822F016021A607B681B685A697B68D2
:103BC0001B6822F080025A617B681B6C002B03D1BA
:103BD0007B689B6C002B07D07B681B681A687B682E
:103BE0001B6822F008021A607B681B681A687B68F1
:103BF0001B6822F001021A6013E0FFF77BFE024609
:103C0000BB68D31A052B0CD97B6820225A657B68C8
:103C1000032283F835207B68002283F834200323B5
:103C200015E07B681B681B6803F00103002BE4D1DF
:103C30007B68DB6D3F229A40FB689A607B680122BB
:103C400083F835207B68002283F83420002318464F
:103C50001037BD4680BD80B483B000AF78607B680C
:103C600093F83530DBB2022B04D07B6880225A6592
:103C700001230CE07B68052283F835207B681B68F4
:103C80001A687B681B6822F001021A60002318463C
:103C90000C37BD465DF8047B7047000080B489B0E6
:103CA00000AF7860396000237B6100233B61002313
:103CB000BB610023FB616BE10122FB6902FA03F3A4
:103CC0007B613B681B687A6913403B613A697B6999
:103CD0009A4240F05A813B685B6803F00303012B72
:103CE00005D03B685B6803F00303022B30D17B688F
:103CF0009B68BB61FB695B00032202FA03F3DB43B1
:103D0000BA691340BB613B68DA68FB695B0002FA81
:103D100003F3BA691343BB617B68BA699A607B6835
:103D20005B68BB610122FB6902FA03F3DB43BA69FA
:103D30001340BB613B685B681B0903F00102FB6930
:103D400002FA03F3BA691343BB617B68BA695A602C
:103D50003B685B6803F00303032B17D07B68DB68C9
:103D6000BB61FB695B00032202FA03F3DB43BA6920
:103D70001340BB613B689A68FB695B0002FA03F37E
:103D8000BA691343BB617B68BA69DA603B685B68F8
:103D900003F00303022B23D1FB69DA087B680832A6
:103DA00053F82230BB61FB6903F007039B000F222D
:103DB00002FA03F3DB43BA691340BB613B681A693B
:103DC000FB6903F007039B0002FA03F3BA6913438C
:103DD000BB61FB69DA087B680832B96943F82210D5
:103DE0007B681B68BB61FB695B00032202FA03F37B
:103DF000DB43BA691340BB613B685B6803F00302B5
:103E0000FB695B0002FA03F3BA691343BB617B6889
:103E1000BA691A603B685B6803F44033002B00F01A
:103E2000B4800023FB60604B5B6C5F4A43F48043CB
:103E300053645D4B5B6C03F48043FB60FB685B4A3F
:103E4000FB699B08023352F82330BB61FB6903F026
:103E500003039B000F2202FA03F3DB43BA6913400A
:103E6000BB617B68524A93422BD07B68514A934294
:103E700025D07B68504A93421FD07B684F4A9342BB
:103E800019D07B684E4A934213D07B684D4A9342C7
:103E90000DD07B684C4A934207D07B684B4A9342D3
:103EA00001D107230EE008230CE006230AE00523D6
:103EB00008E0042306E0032304E0022302E00123D8
:103EC00000E00023FA6902F0030292009340BA690D
:103ED0001343BB613549FB699B080233BA6941F85A
:103EE00023203B4B9B68BB613B69DB43BA691340B2
:103EF000BB613B685B6803F48013002B03D0BA6995
:103F00003B691343BB61324ABB699360304BDB684A
:103F1000BB613B69DB43BA691340BB613B685B68CB
:103F200003F40013002B03D0BA693B691343BB6150
:103F3000274ABB69D360264B5B68BB613B69DB43A7
:103F4000BA691340BB613B685B6803F40033002B24
:103F500003D0BA693B691343BB611D4ABB69536017
:103F60001B4B1B68BB613B69DB43BA691340BB61F8
:103F70003B685B6803F48033002B03D0BA693B696C
:103F80001343BB61124ABB691360FB690133FB61D8
:103F9000FB690F2B7FF690AE00BF00BF2437BD46F4
:103FA0005DF8047B704700BF0038024000380140D4
:103FB000000002400004024000080240000C0240E1
:103FC000001002400014024000180240001C024091
:103FD000003C014080B483B000AF78600B467B802A
:103FE00013467B707B78002B03D07A887B689A61BC
:103FF00003E07B881A047B689A6100BF0C37BD46DA
:104000005DF8047B7047000080B584B000AF786035
:104010007B68002B01D101232BE17B6893F83D30B5
:10402000DBB2002B06D17B68002283F83C20786845
:10403000FFF76AF87B68242283F83D207B681B68C1
:104040001A687B681B6822F001021A607B681B6893
:104050001A687B681B6842F400421A607B681B6820
:104060001A687B681B6822F400421A6002F058F854
:10407000F8607B685B68814A934207D8FB68804A96
:10408000934294BF01230023DBB206E0FB687D4A24
:10409000934294BF01230023DBB2002B01D0012304
:1040A000E7E0FB68784AA2FB03239B0CBB607B68BC
:1040B0001B685B6823F03F017B681B68BA680A4392
:1040C0005A607B681B681B6A23F03F017B685B6852
:1040D0006A4A934202D8BB68013309E0BB684FF4D7
:1040E000967202FB03F3694AA2FB03239B09013387
:1040F0007A6812680B4313627B681B68DB6923F4E0
:104100004F4222F0FF027B685B685C498B4219D802
:10411000FB68591E7B685B685B00B1FBF3F3591CBD
:1041200040F6FC730B40002B0AD0FB68591E7B68DD
:104130005B685B00B1FBF3F30133C3F30B0351E0A6
:1041400004234FE07B689B68002B11D1FB68581E4D
:104150007B6859680B465B000B44B0FBF3F30133FB
:10416000C3F30B03002B0CBF01230023DBB212E0CF
:10417000FB68581E7B6859680B469B000B449900EE
:104180000B44B0FBF3F30133C3F30B03002B0CBF61
:1041900001230023DBB2002B01D0012322E07B6846
:1041A0009B68002B0ED1FB68581E7B6859680B4634
:1041B0005B000B44B0FBF3F30133C3F30B0343F495
:1041C00000430FE0FB68581E7B6859680B469B0054
:1041D0000B4499000B44B0FBF3F30133C3F30B031F
:1041E00043F44043796809681343CB617B681B68DB
:1041F0001B6823F0C0017B68DA697B681B6A1A437D
:104200007B681B680A431A607B681B689B6823F401
:10421000034323F0FF037A6811697A68D268114377
:104220007A6812680B4393607B681B68DB6823F035
:10423000FF017B685A697B689B691A437B681B682E
:104240000A43DA607B681B681A687B681B6842F067
:1042500001021A607B6800221A647B68202283F8BE
:104260003D207B6800221A637B68002283F83E2091
:10427000002318461037BD4680BD00BFA086010050
:104280007F841E00FF083D0083DE1B43D34D621078
:1042900080B588B002AFF8607A601A460B467B8121
:1042A00013463B81FFF726FB7861FB6893F83D30AE
:1042B000DBB2202B40F0E0807B69009319230122C0
:1042C0007049F86801F0F6F80346002B01D002238C
:1042D000D3E0FB6893F83C30012B01D10223CCE002
:1042E000FB68012283F83C20FB681B681B6803F015
:1042F0000103012B07D0FB681B681A68FB681B6869
:1043000042F001021A60FB681B681A68FB681B68B0
:1043100022F400621A60FB68212283F83D20FB68CA
:10432000102283F83E20FB6800221A64FB687A683A
:104330005A62FB683A895A85FB685B8D9AB2FB68C2
:104340001A85FB68504ADA6279897B693A6AF868AB
:1043500000F0E2FD0346002B01D001238DE0002395
:104360003B61FB681B685B693B61FB681B689B6981
:104370003B613B6966E07A69396AF86801F070F977
:104380000346002B0DD0FB681B6C042B07D1FB6888
:104390001B681A68FB681B6842F400721A600123EC
:1043A0006BE0FB685B6A1A78FB681B681A61FB6844
:1043B0005B6A5A1CFB685A62FB685B8D9BB2013BCF
:1043C0009AB2FB685A85FB681B8D013B9AB2FB6869
:1043D0001A85FB681B685B6903F00403042B1BD17F
:1043E000FB681B8D002B17D0FB685B6A1A78FB6893
:1043F0001B681A61FB685B6A5A1CFB685A62FB689F
:104400005B8D9BB2013B9AB2FB685A85FB681B8DA2
:10441000013B9AB2FB681A857A69396AF86801F03B
:1044200060F90346002B0DD0FB681B6C042B07D1F1
:10443000FB681B681A68FB681B6842F400721A600C
:1044400001231AE0FB681B8D002B94D1FB681B68CD
:104450001A68FB681B6842F400721A60FB6820222D
:1044600083F83D20FB68002283F83E20FB68002291
:1044700083F83C20002300E0022318461837BD468D
:1044800080BD00BF020010000000FFFF80B58CB0AF
:1044900002AFF8607A601A460B467B8113463B8177
:1044A000FFF728FA7862FB6893F83D30DBB2202BE7
:1044B00040F00B827B6A0093192301227C49F86843
:1044C00000F0F8FF0346002B01D00223FEE1FB6859
:1044D00093F83C30012B01D10223F7E1FB68012264
:1044E00083F83C20FB681B681B6803F00103012B69
:1044F00007D0FB681B681A68FB681B6842F0010262
:104500001A60FB681B681A68FB681B6822F400626B
:104510001A60FB68222283F83D20FB68102283F892
:104520003E20FB6800221A64FB687A685A62FB68C6
:104530003A895A85FB685B8D9AB2FB681A85FB68DD
:104540005C4ADA6279897B6A3A6BF86800F066FD4A
:104550000346002B01D00123B8E1FB681B8D002B23
:1045600013D100233B62FB681B685B693B62FB68FD
:104570001B689B693B623B6AFB681B681A68FB68A7
:104580001B6842F400721A608CE1FB681B8D012BE2
:104590001BD1FB681B681A68FB681B6822F48062E9
:1045A0001A600023FB61FB681B685B69FB61FB68A9
:1045B0001B689B69FB61FB69FB681B681A68FB68E9
:1045C0001B6842F400721A606CE1FB681B8D022BC1
:1045D0001BD1FB681B681A68FB681B6822F48062A9
:1045E0001A60FB681B681A68FB681B6842F400626B
:1045F0001A600023BB61FB681B685B69BB61FB68D9
:104600001B689B69BB61BB694CE1FB681B681A684E
:10461000FB681B6842F480621A6000237B61FB68C0
:104620001B685B697B61FB681B689B697B617B69BD
:1046300038E1FB681B8D032B00F2F180FB681B8DBA
:10464000012B23D17A6A396BF86801F08BF80346A5
:10465000002B01D0012339E1FB681B681A69FB6854
:104660005B6AD2B21A70FB685B6A5A1CFB685A62BA
:10467000FB681B8D013B9AB2FB681A85FB685B8D5A
:104680009BB2013B9AB2FB685A850BE1FB681B8D1C
:10469000022B4ED17B6A00933B6B00220649F868DF
:1046A00000F008FF0346002B08D001230EE100BFF5
:1046B000020010000000FFFF04000100FB681B68FF
:1046C0001A68FB681B6842F400721A60FB681B687A
:1046D0001A69FB685B6AD2B21A70FB685B6A5A1C83
:1046E000FB685A62FB681B8D013B9AB2FB681A8516
:1046F000FB685B8D9BB2013B9AB2FB685A85FB68F5
:104700001B681A69FB685B6AD2B21A70FB685B6A45
:104710005A1CFB685A62FB681B8D013B9AB2FB680E
:104720001A85FB685B8D9BB2013B9AB2FB685A8588
:10473000B8E07B6A00933B6B00226649F86800F0A2
:10474000B9FE0346002B01D00123BFE0FB681B68C4
:104750001A68FB681B6822F480621A60FB681B6899
:104760001A69FB685B6AD2B21A70FB685B6A5A1CF2
:10477000FB685A62FB681B8D013B9AB2FB681A8585
:10478000FB685B8D9BB2013B9AB2FB685A857B6AE2
:1047900000933B6B00224F49F86800F08BFE034604
:1047A000002B01D0012391E0FB681B681A68FB68AD
:1047B0001B6842F400721A60FB681B681A69FB6888
:1047C0005B6AD2B21A70FB685B6A5A1CFB685A6259
:1047D000FB681B8D013B9AB2FB681A85FB685B8DF9
:1047E0009BB2013B9AB2FB685A85FB681B681A6949
:1047F000FB685B6AD2B21A70FB685B6A5A1CFB6882
:104800005A62FB681B8D013B9AB2FB681A85FB68F4
:104810005B8D9BB2013B9AB2FB685A8542E07A6A93
:10482000396BF86800F09EFF0346002B01D001238E
:104830004CE0FB681B681A69FB685B6AD2B21A70AD
:10484000FB685B6A5A1CFB685A62FB681B8D013B64
:104850009AB2FB681A85FB685B8D9BB2013B9AB2EA
:10486000FB685A85FB681B685B6903F00403042B33
:1048700018D1FB681B681A69FB685B6AD2B21A70B0
:10488000FB685B6A5A1CFB685A62FB681B8D013B24
:104890009AB2FB681A85FB685B8D9BB2013B9AB2AA
:1048A000FB685A85FB681B8D002B7FF4C2AEFB684A
:1048B000202283F83D20FB68002283F83E20FB681D
:1048C000002283F83C20002300E00223184628370A
:1048D000BD4680BD0400010080B588B002AFF8601D
:1048E000084611461A4603467B810B463B81134618
:1048F000FB80FEF7FFFF7861FB6893F83D30DBB289
:10490000202B40F0D9807B690093192301226D4947
:10491000F86800F0CFFD0346002B01D00223CCE065
:10492000FB6893F83C30012B01D10223C5E0FB6802
:10493000012283F83C20FB681B681B6803F001031D
:10494000012B07D0FB681B681A68FB681B6842F0E4
:1049500001021A60FB681B681A68FB681B6822F476
:1049600000621A60FB68212283F83D20FB68402228
:1049700083F83E20FB6800221A64FB683A6A5A6298
:10498000FB68BA8C5A85FB685B8D9AB2FB681A8506
:10499000FB684D4ADA62F8883A8979897B69019324
:1049A000BB6A00930346F86800F006FC0346002B40
:1049B00052D0012381E07A69B96AF86800F050FEAC
:1049C0000346002B0DD0FB681B6C042B07D1FB6842
:1049D0001B681A68FB681B6842F400721A600123A6
:1049E0006BE0FB685B6A1A78FB681B681A61FB68FE
:1049F0005B6A5A1CFB685A62FB681B8D013B9AB2CA
:104A0000FB681A85FB685B8D9BB2013B9AB2FB6821
:104A10005A85FB681B685B6903F00403042B1BD1F8
:104A2000FB681B8D002B17D0FB685B6A1A78FB684C
:104A30001B681A61FB685B6A5A1CFB685A62FB6858
:104A40001B8D013B9AB2FB681A85FB685B8D9BB29C
:104A5000013B9AB2FB685A85FB681B8D002BAAD1DB
:104A60007A69B96AF86800F03CFE0346002B0DD065
:104A7000FB681B6C042B07D1FB681B681A68FB687A
:104A80001B6842F400721A60012316E0FB681B6881
:104A90001A68FB681B6842F400721A60FB682022E7
:104AA00083F83D20FB68002283F83E20FB6800224B
:104AB00083F83C20002300E0022318461837BD4647
:104AC00080BD00BF020010000000FFFF80B58CB069
:104AD00002AFF860084611461A4603467B810B4632
:104AE0003B811346FB80FEF705FF7862FB6893F875
:104AF0003D30DBB2202B40F008827B6A0093192303
:104B000001227B49F86800F0D5FC0346002B01D058
:104B10000223FBE1FB6893F83C30012B01D1022317
:104B2000F4E1FB68012283F83C20FB681B681B68EA
:104B300003F00103012B07D0FB681B681A68FB68B0
:104B40001B6842F001021A60FB681B681A68FB6868
:104B50001B6822F400621A60FB68222283F83D2061
:104B6000FB68402283F83E20FB6800221A64FB6841
:104B70003A6B5A62FB68BA8E5A85FB685B8D9AB2B3
:104B8000FB681A85FB685B4ADA62F8883A8979899A
:104B90007B6A0193BB6B00930346F86800F0A2FBAD
:104BA0000346002B01D00123B0E1FB681B8D002BD5
:104BB00013D100233B62FB681B685B693B62FB68A7
:104BC0001B689B693B623B6AFB681B681A68FB6851
:104BD0001B6842F400721A6084E1FB681B8D012B94
:104BE0001BD1FB681B681A68FB681B6822F4806293
:104BF0001A600023FB61FB681B685B69FB61FB6853
:104C00001B689B69FB61FB69FB681B681A68FB6892
:104C10001B6842F400721A6064E1FB681B8D022B72
:104C20001BD1FB681B681A68FB681B6822F4806252
:104C30001A60FB681B681A68FB681B6842F4006214
:104C40001A600023BB61FB681B685B69BB61FB6882
:104C50001B689B69BB61BB6944E100237B61FB6806
:104C60001B685B697B61FB681B689B697B617B6977
:104C700038E1FB681B8D032B00F2F180FB681B8D74
:104C8000012B23D17A6AB96BF86800F06BFD0346FB
:104C9000002B01D0012339E1FB681B681A69FB680E
:104CA0005B6AD2B21A70FB685B6A5A1CFB685A6274
:104CB000FB681B8D013B9AB2FB681A85FB685B8D14
:104CC0009BB2013B9AB2FB685A850BE1FB681B8DD6
:104CD000022B4ED17B6A0093BB6B00220649F86819
:104CE00000F0E8FB0346002B08D001230EE100BFD3
:104CF000020010000000FFFF04000100FB681B68B9
:104D00001A68FB681B6842F400721A60FB681B6833
:104D10001A69FB685B6AD2B21A70FB685B6A5A1C3C
:104D2000FB685A62FB681B8D013B9AB2FB681A85CF
:104D3000FB685B8D9BB2013B9AB2FB685A85FB68AE
:104D40001B681A69FB685B6AD2B21A70FB685B6AFF
:104D50005A1CFB685A62FB681B8D013B9AB2FB68C8
:104D60001A85FB685B8D9BB2013B9AB2FB685A8542
:104D7000B8E07B6A0093BB6B00226649F86800F0DC
:104D800099FB0346002B01D00123BFE0FB681B68A1
:104D90001A68FB681B6822F480621A60FB681B6853
:104DA0001A69FB685B6AD2B21A70FB685B6A5A1CAC
:104DB000FB685A62FB681B8D013B9AB2FB681A853F
:104DC000FB685B8D9BB2013B9AB2FB685A857B6A9C
:104DD0000093BB6B00224F49F86800F06BFB034661
:104DE000002B01D0012391E0FB681B681A68FB6867
:104DF0001B6842F400721A60FB681B681A69FB6842
:104E00005B6AD2B21A70FB685B6A5A1CFB685A6212
:104E1000FB681B8D013B9AB2FB681A85FB685B8DB2
:104E20009BB2013B9AB2FB685A85FB681B681A6902
:104E3000FB685B6AD2B21A70FB685B6A5A1CFB683B
:104E40005A62FB681B8D013B9AB2FB681A85FB68AE
:104E50005B8D9BB2013B9AB2FB685A8542E07A6A4D
:104E6000B96BF86800F07EFC0346002B01D00123EB
:104E70004CE0FB681B681A69FB685B6AD2B21A7067
:104E8000FB685B6A5A1CFB685A62FB681B8D013B1E
:104E90009AB2FB681A85FB685B8D9BB2013B9AB2A4
:104EA000FB685A85FB681B685B6903F00403042BED
:104EB00018D1FB681B681A69FB685B6AD2B21A706A
:104EC000FB685B6A5A1CFB685A62FB681B8D013BDE
:104ED0009AB2FB681A85FB685B8D9BB2013B9AB264
:104EE000FB685A85FB681B8D002B7FF4C2AEFB6804
:104EF000202283F83D20FB68002283F83E20FB68D7
:104F0000002283F83C20002300E0022318462837C3
:104F1000BD4680BD0400010080B588B002AFF860D6
:104F20007A603B600B467B81FB68DB6A7B617B6957
:104F3000082B06D07B69012B03D07B6913F5803FDA
:104F400008D1FB681B681A68FB681B6842F4807212
:104F50001A600BE0FB681B6B122B07D1FB681B6808
:104F60001A68FB681B6842F480721A603B68009301
:104F70007B6800224FF00111F86800F09BFA0346AD
:104F8000002B0DD0FB681B681B6803F48073B3F51E
:104F9000807F03D1FB684FF400721A64032335E06D
:104FA000FB681B69B3F5804F08D17B89DBB21A46D9
:104FB000FB681B6802F0FE021A611BE07B89DB11B3
:104FC000DBB203F00603DBB263F00F03DAB2FB6877
:104FD0001B681A613B687A680E49F86800F0C1FAEC
:104FE0000346002B01D0012310E07B89DAB2FB6875
:104FF0001B681A613B687A680749F86800F0B1FAE3
:105000000346002B01D0012300E000231846183787
:10501000BD4680BD080001000200010080B588B0D7
:1050200002AFF8607A603B600B467B81FB68DB6A0D
:105030007B61FB681B681A68FB681B6842F480622E
:105040001A607B69082B06D07B69012B03D07B6932
:1050500013F5803F08D1FB681B681A68FB681B6862
:1050600042F480721A600BE0FB681B6B112B07D1B6
:10507000FB681B681A68FB681B6842F480721A6040
:105080003B6800937B6800224FF00111F86800F044
:1050900011FA0346002B0DD0FB681B681B6803F454
:1050A0008073B3F5807F03D1FB684FF400721A64FC
:1050B000032379E0FB681B69B3F5804F08D17B8936
:1050C000DBB243F00103DAB2FB681B681A615FE0F0
:1050D0007B89DB11DBB203F00603DBB263F00F0365
:1050E000DAB2FB681B681A613B687A683049F86875
:1050F00000F037FA0346002B01D0012354E07B89EE
:10510000DAB2FB681B681A613B687A682949F8685B
:1051100000F027FA0346002B01D0012344E00023CE
:105120003B61FB681B685B693B61FB681B689B69B3
:105130003B613B69FB681B681A68FB681B6842F4AB
:1051400080721A603B6800937B6800224FF0011167
:10515000F86800F0AFF90346002B0DD0FB681B6820
:105160001B6803F48073B3F5807F03D1FB684FF4B1
:1051700000721A64032317E07B89DB11DBB203F0B2
:105180000603DBB263F00E03DAB2FB681B681A6138
:105190003B687A680749F86800F0E3F90346002B9A
:1051A00001D0012300E0002318461837BD4680BD1A
:1051B000080001000200010080B588B002AFF8606D
:1051C000084611461A4603467B810B463B8113462F
:1051D000FB80FB681B681A68FB681B6842F48072DE
:1051E0001A607B6A00933B6A00224FF00111F86855
:1051F00000F060F90346002B0DD0FB681B681B68AC
:1052000003F48073B3F5807F03D1FB684FF4007221
:105210001A6403235FE07B89DBB21A46FB681B68D4
:1052200002F0FE021A617B6A3A6A2D49F86800F0C2
:1052300098F90346002B01D001234CE000237B6149
:10524000FB681B685B697B61FB681B689B697B6112
:105250007B697A6A396AF86800F002FA0346002B23
:105260000DD0FB681B6C042B07D1FB681B681A6808
:10527000FB681B6842F400721A6001232BE0FB8874
:10528000012B05D13B89DAB2FB681B681A6121E06A
:105290003B891B0A9BB2DAB2FB681B681A617A6A07
:1052A000396AF86800F0DCF90346002B0DD0FB6882
:1052B0001B6C042B07D1FB681B681A68FB681B6812
:1052C00042F400721A60012305E03B89DAB2FB6800
:1052D0001B681A61002318461837BD4680BD00BF01
:1052E0000200010080B588B002AFF86008461146A0
:1052F0001A4603467B810B463B811346FB80FB68C5
:105300001B681A68FB681B6842F480621A60FB68BD
:105310001B681A68FB681B6842F480721A607B6A1B
:1053200000933B6A00224FF00111F86800F0C2F8C8
:105330000346002B0DD0FB681B681B6803F48073C9
:10534000B3F5807F03D1FB684FF400721A64032326
:10535000AAE07B89DBB21A46FB681B6802F0FE02FA
:105360001A617B6A3A6A5249F86800F0FAF8034613
:10537000002B01D0012397E000237B61FB681B68B1
:105380005B697B61FB681B689B697B617B697A6AEF
:10539000396AF86800F064F90346002B0DD0FB6809
:1053A0001B6C042B07D1FB681B681A68FB681B6821
:1053B00042F400721A60012376E0FB88012B05D1CC
:1053C0003B89DAB2FB681B681A6121E03B891B0A42
:1053D0009BB2DAB2FB681B681A617A6A396AF868AC
:1053E00000F03EF90346002B0DD0FB681B6C042B2C
:1053F00007D1FB681B681A68FB681B6842F40072DF
:105400001A60012350E03B89DAB2FB681B681A611D
:105410007A6A396AF86800F023F90346002B0DD048
:10542000FB681B6C042B07D1FB681B681A68FB68C0
:105430001B6842F400721A60012335E0FB681B68A8
:105440001A68FB681B6842F480721A607B6A0093DA
:105450003B6A00224FF00111F86800F02BF8034678
:10546000002B0DD0FB681B681B6803F48073B3F539
:10547000807F03D1FB684FF400721A64032313E0AA
:105480007B89DBB243F00103DAB2FB681B681A6167
:105490007B6A3A6A0649F86800F063F80346002B15
:1054A00001D0012300E0002318461837BD4680BD17
:1054B0000200010080B584B000AFF860B9603B60C5
:1054C0001346FB7125E03B68B3F1FF3F21D0FEF7A7
:1054D00011FA0246BB69D31A3A689A4202D33B6872
:1054E000002B16D1FB6800221A63FB68202283F888
:1054F0003D20FB68002283F83E20FB681B6C43F0D4
:105500002002FB681A64FB68002283F83C20012318
:1055100023E0BB681B0CDBB2012B0DD1FB681B68C1
:105520005B69DA43BB6813409BB2002B0CBF0123BD
:105530000023DBB21A460CE0FB681B689B69DA4368
:10554000BB6813409BB2002B0CBF01230023DBB2CE
:105550001A46FB799A42B6D0002318461037BD464A
:1055600080BD80B584B000AFF860B9607A603B6000
:1055700051E0FB681B685B6903F48063B3F5806FDF
:1055800023D1FB681B681A68FB681B6842F4007231
:105590001A60FB681B686FF480625A61FB68002226
:1055A0001A63FB68202283F83D20FB68002283F801
:1055B0003E20FB681B6C43F00402FB681A64FB6826
:1055C000002283F83C20012346E07B68B3F1FF3FD3
:1055D00021D0FEF78FF902463B68D31A7A689A42C7
:1055E00002D37B68002B16D1FB6800221A63FB688C
:1055F000202283F83D20FB68002283F83E20FB68D0
:105600001B6C43F02002FB681A64FB68002283F8DD
:105610003C20012320E0BB681B0CDBB2012B0CD12A
:10562000FB681B685B69DA43BB6813409BB2002BC5
:1056300014BF01230023DBB20BE0FB681B689B69EE
:10564000DA43BB6813409BB2002B14BF0123002335
:10565000DBB2002B8DD1002318461037BD4680BD2C
:1056600080B584B000AFF860B9607A602DE0F8686A
:1056700000F0CEF80346002B01D001232DE0BB68DB
:10568000B3F1FF3F21D0FEF735F902467B68D31A0C
:10569000BA689A4202D3BB68002B16D1FB6800227D
:1056A0001A63FB68202283F83D20FB68002283F800
:1056B0003E20FB681B6C43F02002FB681A64FB6809
:1056C000002283F83C20012307E0FB681B685B692C
:1056D00003F08003802BCAD1002318461037BD4643
:1056E00080BD80B584B000AFF860B9607A602DE00D
:1056F000F86800F08DF80346002B01D001232DE05F
:10570000BB68B3F1FF3F21D0FEF7F4F802467B6897
:10571000D31ABA689A4202D3BB68002B16D1FB6831
:1057200000221A63FB68202283F83D20FB680022D8
:1057300083F83E20FB681B6C43F02002FB681A6470
:10574000FB68002283F83C20012307E0FB681B680C
:105750005B6903F00403042BCAD1002318461037F9
:10576000BD4680BD80B584B000AFF860B9607A6096
:1057700042E0FB681B685B6903F01003102B19D132
:10578000FB681B686FF010025A61FB6800221A6305
:10579000FB68202283F83D20FB68002283F83E202E
:1057A000FB681A6CFB681A64FB68002283F83C20D3
:1057B000012329E0FEF79EF802467B68D31ABA68F7
:1057C0009A4202D3BB68002B16D1FB6800221A63F1
:1057D000FB68202283F83D20FB68002283F83E20EE
:1057E000FB681B6C43F02002FB681A64FB68002214
:1057F00083F83C20012307E0FB681B685B6903F02A
:105800004003402BB5D1002318461037BD4680BD5C
:1058100080B483B000AF78607B681B685B6903F479
:105820008063B3F5806F1BD17B681B686FF4806267
:105830005A617B6800221A637B68202283F83D202E
:105840007B68002283F83E207B681B6C43F00402D7
:105850007B681A647B68002283F83C20012300E007
:10586000002318460C37BD465DF8047B70470000E6
:1058700080B483B000AF064B01221A60054B1B6851
:105880007B607B6800BF0C37BD465DF8047B7047CA
:1058900020000E420070004080B483B000AF064B81
:1058A00000221A60054B1B687B607B6800BF0C37C9
:1058B000BD465DF8047B704720000E42007000403A
:1058C00080B586B000AF78607B68002B01D10123E2
:1058D00067E27B681B6803F00103002B75D0884BDF
:1058E0009B6803F00C03042B0CD0854B9B6803F0E2
:1058F0000C03082B12D1824B5B6803F48003B3F5D1
:10590000800F0BD17E4B1B6803F40033002B5BD060
:105910007B685B68002B57D1012342E27B685B68A0
:10592000B3F5803F06D1764B1B68754A43F480334C
:1059300013601DE07B685B68B3F5A02F0CD1704B42
:105940001B686F4A43F4802313606D4B1B686C4ADD
:1059500043F4803313600BE0694B1B68684A23F4FF
:1059600080331360664B1B68654A23F48023136001
:105970007B685B68002B13D0FDF7BCFF386108E043
:10598000FDF7B8FF02463B69D31A642B01D9032304
:1059900007E25B4B1B6803F40033002BF0D014E0EC
:1059A000FDF7A8FF386108E0FDF7A4FF02463B6958
:1059B000D31A642B01D90323F3E1514B1B6803F481
:1059C0000033002BF0D100E000BF7B681B6803F0C0
:1059D0000203002B63D04A4B9B6803F00C03002B9F
:1059E0000BD0474B9B6803F00C03082B1CD1444B96
:1059F0005B6803F48003002B16D1414B1B6803F056
:105A00000203002B05D07B68DB68012B01D001234A
:105A1000C7E13B4B1B6823F0F8027B681B69DB0086
:105A2000374913430B603AE07B68DB68002B20D0DA
:105A3000344B01221A60FDF75DFF386108E0FDF785
:105A400059FF02463B69D31A022B01D90323A8E16F
:105A50002B4B1B6803F00203002BF0D0284B1B6874
:105A600023F0F8027B681B69DB00254913430B60B8
:105A700015E0244B00221A60FDF73CFF386108E076
:105A8000FDF738FF02463B69D31A022B01D90323E5
:105A900087E11B4B1B6803F00203002BF0D17B68EE
:105AA0001B6803F00803002B36D07B685B69002B72
:105AB00016D0154B01221A60FDF71CFF386108E073
:105AC000FDF718FF02463B69D31A022B01D90323C5
:105AD00067E10B4B5B6F03F00203002BF0D01BE080
