:020000040800F2
:100000000000022069550008355400083B540008E0
:1000100041540008475400084D54000800000000F7
:10002000000000000000000000000000E1D2000815
:10003000535400080000000031D50008B5AF000897
:10004000B9550008B9550008B9550008B955000858
:10005000B9550008B9550008B9550008B955000848
:10006000B9550008B9550008B9550008B955000838
:10007000B9550008B9550008B9550008B955000828
:10008000B9550008B9550008B9550008B955000818
:10009000B9550008B9550008B9550008B955000808
:1000A000B955000861540008B9550008B955000851
:1000B000B955000875540008B9550008B95500082D
:1000C000B9550008B9550008B9550008B9550008D8
:1000D000B9550008B9550008B955000889540008F9
:1000E000B9550008B9550008B9550008B9550008B8
:1000F000B9550008B9550008B9550008B9550008A8
:10010000B9550008B9550008B9550008B955000897
:10011000B9550008B95500089D540008B9550008A4
:10012000B1540008B9550008C5540008B955000875
:10013000B9550008B9550008B9550008B955000867
:10014000B9550008B9550008B9550008B955000857
:10015000B9550008B9550008B9550008B955000847
:10016000B9550008B9550008B9550008B955000837
:10017000B9550008B9550008B9550008000000003D
:08018000B9550008B95500084B
:1001900010B5054C237833B9044B13B10448AFF3C1
:1001A00000800123237010BD6C00002000000000BF
:1001B000D4E7000808B5034B1BB103490348AFF36C
:1001C000008008BD0000000070000020D4E7000897
:1001D00001F0FF01102A2BDB10F0070F08D010F8F8
:1001E000013B013A8B422DD010F0070F42B3F6D1FC
:1001F000F0B441EA012141EA014122F007047FF015
:1002000000070023F0E80256083C85EA010586EA6B
:10021000010685FA47F5A3FA87F586FA47F6A5FAA7
:1002200087F68EB9EED1F0BC01F0FF0102F00702B3
:1002300032B110F8013B013A83EA010313B1F8D15E
:100240000020704701387047002D06BF354603383F
:10025000073815F0010F07D1013015F4807F02BF78
:10026000013015F4C03F0130F0BC0138704700BFC9
:1002700081F0004102E000BF83F0004330B54FEA57
:1002800041044FEA430594EA050F08BF90EA020FC4
:100290001FBF54EA000C55EA020C7FEA645C7FEA57
:1002A000655C00F0E2804FEA5454D4EB5555B8BF7A
:1002B0006D420CDD2C4480EA020281EA030382EAEB
:1002C000000083EA010180EA020281EA0303362D7D
:1002D00088BF30BD11F0004F4FEA01314FF4801C50
:1002E0004CEA113102D0404261EB410113F0004F62
:1002F0004FEA03334CEA133302D0524263EB430319
:1003000094EA050F00F0A780A4F10104D5F1200EB6
:100310000DDB02FA0EFC22FA05F2801841F1000111
:1003200003FA0EF2801843FA05F359410EE0A5F1E5
:1003300020050EF1200E012A03FA0EFC28BF4CF016
:10034000020C43FA05F3C01851EBE37101F00045CC
:1003500007D54FF0000EDCF1000C7EEB00006EEBD9
:100360000101B1F5801F1BD3B1F5001F0CD3490863
:100370005FEA30004FEA3C0C04F101044FEA4452BA
:1003800012F5800F80F09A80BCF1004F08BF5FEA41
:10039000500C50F1000041EB045141EA050130BD21
:1003A0005FEA4C0C404141EB0101013C28BFB1F533
:1003B000801FE9D291F0000F04BF01460020B1FA7E
:1003C00081F308BF2033A3F10B03B3F120020CDA51
:1003D0000C3208DD02F1140CC2F10C0201FA0CF02F
:1003E00021FA02F10CE002F11402D8BFC2F1200C94
:1003F00001FA02F120FA0CFCDCBF41EA0C0190404A
:10040000E41AA2BF01EB0451294330BD6FEA040492
:100410001F3C1CDA0C340EDC04F11404C4F120027D
:1004200020FA04F001FA02F340EA030021FA04F38F
:1004300045EA030130BDC4F10C04C4F1200220FAE6
:1004400002F001FA04F340EA0300294630BD21FA24
:1004500004F0294630BD94F0000F83F4801306BFEA
:1004600081F480110134013D4EE77FEA645C18BFDE
:100470007FEA655C29D094EA050F08BF90EA020F75
:1004800005D054EA000C04BF1946104630BD91EA6D
:10049000030F1EBF0021002030BD5FEA545C05D170
:1004A0004000494128BF41F0004130BD14F58004AF
:1004B0003CBF01F5801130BD01F0004545F0FE4123
:1004C00041F470014FF0000030BD7FEA645C1ABF58
:1004D000194610467FEA655C1CBF0B46024650EA8F
:1004E000013406BF52EA033591EA030F41F40021BB
:1004F00030BD00BF90F0000F04BF0021704730B541
:100500004FF4806404F132044FF000054FF0000115
:1005100050E700BF90F0000F04BF0021704730B5D6
:100520004FF4806404F1320410F0004548BF4042AB
:100530004FF000013EE700BF42004FEAE2014FEA00
:1005400031014FEA02701FBF12F07F4393F07F4FDB
:1005500081F06051704732F07F4208BF704793F0DE
:100560007F4F04BF41F40021704730B54FF46074F1
:1005700001F0004521F000411CE700BF50EA0102F4
:1005800008BF704730B54FF000050AE050EA01029D
:1005900008BF704730B511F0004502D5404261EB0D
:1005A00041014FF4806404F132045FEA915C3FF44E
:1005B000D8AE4FF003025FEADC0C18BF03325FEAEB
:1005C000DC0C18BF033202EBDC02C2F1200300FA9C
:1005D00003FC20FA02F001FA03FE40EA0E0021FAC1
:1005E00002F11444BDE600BF70B54FF0FF0C4CF4AF
:1005F000E06C1CEA11541DBF1CEA135594EA0C0F61
:1006000095EA0C0F00F0DEF82C4481EA030621EA9B
:100610004C5123EA4C5350EA013518BF52EA0335D6
:1006200041F4801143F4801338D0A0FB02CE4FF088
:100630000005E1FB02E506F00042E0FB03E54FF0B8
:100640000006E1FB03569CF0000F18BF4EF0010EB0
:10065000A4F1FF04B6F5007F64F5407404D25FEAAC
:100660004E0E6D4146EB060642EAC62141EA55515F
:100670004FEAC52040EA5E504FEACE2EB4F1FD0CA1
:1006800088BFBCF5E06F1ED8BEF1004F08BF5FEA1F
:10069000500E50F1000041EB045170BD06F00046D1
:1006A00046EA010140EA020081EA0301B4EB5C047E
:1006B000C2BFD4EB0C0541EA045170BD41F4801176
:1006C0004FF0000E013C00F3AB8014F1360FDEBF9B
:1006D000002001F0004170BDC4F10004203C35DA77
:1006E0000C341BDC04F11404C4F1200500FA05F3FA
:1006F00020FA04F001FA05F240EA020001F000429B
:1007000021F0004110EBD37021FA04F642EB060110
:100710005EEA430E08BF20EAD37070BDC4F10C043A
:10072000C4F1200500FA04F320FA05F001FA04F2FE
:1007300040EA020001F0004110EBD37041F10001EA
:100740005EEA430E08BF20EAD37070BDC4F12005F5
:1007500000FA05F24EEA020E20FA04F301FA05F25D
:1007600043EA020321FA04F001F0004121FA04F205
:1007700020EA020000EBD3705EEA430E08BF20EAD5
:10078000D37070BD94F0000F0FD101F0004640000F
:1007900041EB010111F4801F08BF013CF7D041EA91
:1007A000060195F0000F18BF704703F00046520095
:1007B00043EB030313F4801F08BF013DF7D043EA66
:1007C0000603704794EA0C0F0CEA135518BF95EA1C
:1007D0000C0F0CD050EA410618BF52EA4306D1D1A3
:1007E00081EA030101F000414FF0000070BD50EAC2
:1007F000410606BF1046194652EA430619D094EA4C
:100800000C0F02D150EA013613D195EA0C0F05D135
:1008100052EA03361CBF104619460AD181EA030189
:1008200001F0004141F0FE4141F470014FF0000041
:1008300070BD41F0FE4141F4780170BD70B54FF0DC
:10084000FF0C4CF4E06C1CEA11541DBF1CEA13555C
:1008500094EA0C0F95EA0C0F00F0A7F8A4EB05043E
:1008600081EA030E52EA03354FEA013100F0888035
:100870004FEA03334FF0805545EA131343EA1263FE
:100880004FEA022245EA111545EA10654FEA0026B3
:100890000EF000419D4208BF964244F1FD0404F56C
:1008A000407402D25B084FEA3202B61A65EB0305C8
:1008B0005B084FEA32024FF480104FF4002CB6EB85
:1008C000020E75EB030E22BFB61A754640EA0C0005
:1008D0005B084FEA3202B6EB020E75EB030E22BF45
:1008E000B61A754640EA5C005B084FEA3202B6EB86
:1008F000020E75EB030E22BFB61A754640EA9C0045
:100900005B084FEA3202B6EB020E75EB030E22BF14
:10091000B61A754640EADC0055EA060E18D04FEAD2
:10092000051545EA16754FEA06164FEAC30343EA72
:1009300052734FEAC2025FEA1C1CC0D111F4801F3F
:100940000BD141EA00014FF000004FF0004CB6E738
:1009500011F4801F04BF01430020B4F1FD0C88BFD7
:10096000BCF5E06F3FF6AFAEB5EB030C04BFB6EBE2
:10097000020C5FEA500C50F1000041EB045170BDD5
:100980000EF0004E4EEA113114EB5C04C2BFD4EB02
:100990000C0541EA045170BD41F480114FF0000E86
:1009A000013C90E645EA060E8DE60CEA135594EA02
:1009B0000C0F08BF95EA0C0F3FF43BAF94EA0C0F05
:1009C0000AD150EA01347FF434AF95EA0C0F7FF47A
:1009D00025AF104619462CE795EA0C0F06D152EACE
:1009E00003353FF4FDAE1046194622E750EA4106B2
:1009F00018BF52EA43067FF4C5AE50EA41047FF4C3
:100A00000DAF52EA43057FF4EBAE12E74FF0FF3C27
:100A100006E000BF4FF0010C02E000BF4FF0010CF8
:100A20004DF804CD4FEA410C7FEA6C5C4FEA430C71
:100A300018BF7FEA6C5C1BD001B050EA410C0CBFC0
:100A400052EA430C91EA030F02BF90EA020F002022
:100A5000704710F1000F91EA030F58BF994208BF89
:100A600090422CBFD8176FEAE37040F00100704746
:100A70004FEA410C7FEA6C5C02D150EA013C07D19D
:100A80004FEA430C7FEA6C5CD6D152EA033CD3D0E8
:100A90005DF8040B704700BF8446104662468C46E2
:100AA0001946634600E000BF01B5FFF7B7FF002815
:100AB00048BF10F1000F01BD4DF808EDFFF7F4FF3E
:100AC0000CBF012000205DF808FB00BF4DF808EDC9
:100AD000FFF7EAFF34BF012000205DF808FB00BFEC
:100AE0004DF808EDFFF7E0FF94BF012000205DF80E
:100AF00008FB00BF4DF808EDFFF7CEFF94BF0120C3
:100B000000205DF808FB00BF4DF808EDFFF7C4FFBB
:100B100034BF012000205DF808FB00BF4A0011D25D
:100B200012F5001211D20DD56FF47873B3EB625247
:100B30000ED44FEAC12343F0004343EA505323FA53
:100B400002F070474FF00000704750EA013002D1C8
:100B50004FF0FF3070474FF0000070474FEA4102FE
:100B6000B2F1E04324BFB3F5001CDCF1FE5C0DD90B
:100B700001F0004C4FEAC0024CEA5070B2F1004F55
:100B800040EB830008BF20F00100704711F0804F58
:100B900021D113F13872BCBF01F00040704741F41D
:100BA00080114FEA5252C2F11802C2F1200C10FA21
:100BB0000CF320FA02F018BF40F001004FEAC12305
:100BC0004FEAD32303FA0CFC40EA0C0023FA02F3A9
:100BD0004FEA4303CCE77FEA625307D150EA01337F
:100BE0001EBF4FF0FE4040F44000704701F000404F
:100BF00040F0FE4040F40000704700BF53B94AB9CE
:100C0000002908BF00281CBF4FF0FF314FF0FF3014
:100C100000F070B9ADF1080C6DE904CE00F006F8F3
:100C2000DDF804E0DDE9022304B070472DE9F04768
:100C3000089E0D4604460F46002B4AD18A42944630
:100C400065D9B2FA82F343B102FA03FCC3F1200280
:100C50009F4020FA02F217439C404FEA1C4E1FFAB5
:100C60008CF5B7FBFEF1220C0EFB117742EA07422E
:100C700001FB05F090420AD91CEB020201F1FF379B
:100C800080F01C81904240F2198102396244121AAC
:100C9000A4B2B2FBFEF00EFB102244EA024400FBB9
:100CA00005F5A5420AD91CEB040400F1FF3280F0DF
:100CB0000781A54240F204816444023840EA0140C1
:100CC000641B00211EB1DC400023C6E90043BDE8DF
:100CD000F0878B4208D9002E00F0ED800021C6E994
:100CE00000050846BDE8F087B3FA83F1002949D131
:100CF000AB4202D3824200F2F880841A65EB030211
:100D000001201746002EE2D0C6E90047DFE702B90E
:100D1000FFDEB2FA82F3002B40F090808A1A4FEA8D
:100D20001C471FFA8CFE0121B2FBF7F507FB1520CB
:100D3000220C42EA00420EFB05F0904208D91CEB5F
:100D4000020205F1FF3802D2904200F2CB80454604
:100D5000121AA4B2B2FBF7F007FB102244EA0244D5
:100D60000EFB00FEA64508D91CEB040400F1FF327F
:100D700002D2A64500F2BB801046A4EB0E0440EA66
:100D800005409FE7C1F120078B4022FA07FC4CEA9F
:100D9000030C05FA01F420FA07F3FD404FEA1C4961
:100DA0002343B5FBF9F81FFA8CFE09FB18551C0C00
:100DB00044EA054408FB0EF5A54202FA01F200FAE6
:100DC00001F00BD91CEB040408F1FF3A80F0888095
:100DD000A54240F28580A8F102086444641B9DB2DC
:100DE000B4FBF9F309FB134445EA044403FB0EFE8C
:100DF000A64508D91CEB040403F1FF356CD2A645C7
:100E00006AD9023B644443EA0843A3FB0295A4EB7E
:100E10000E04AC42C846AE4656D353D056B1B0EBE2
:100E2000080264EB0E0404FA07F7CA40CC401743EB
:100E3000C6E9007418460021BDE8F087C3F120011F
:100E400002FA03FC20FA01F225FA01F19D402A433F
:100E50004FEA1C471FFA8CFEB1FBF7F007FB101599
:100E6000110C41EA054100FB0EF58D4204FA03F432
:100E700008D91CEB010100F1FF382FD28D422DD98A
:100E800002386144491B92B2B1FBF7F507FB15111B
:100E900042EA014205FB0EF1914208D91CEB020225
:100EA00005F1FF3816D2914214D9023D6244521A1C
:100EB00045EA004138E73146304608E73946E6E67C
:100EC0001046FBE64845A9D2B9EB020865EB0C0ECB
:100ED000013BA3E74546EAE72B4694E74046D1E7C6
:100EE000D0467BE7023D624432E708460AE76444A5
:100EF000023842E7704700BF80B582B000AF04F00F
:100F00005DFB00F0E1F800F04DFD00F023FD00F086
:100F1000A9FA00F009FA00F0F3FC00F0D7F900F0AC
:100F200043FC00F02FF900F07FF900F0B3FB00F074
:100F3000EDFA00F003FC00F059FB0CF007FF4C4801
:100F400007F044FA4B4B1B789BB21A464A494B4870
:100F500009F06DF80322002149480CF0F0FD494BDF
:100F600064221A70474B00225A80474B00221A70A5
:100F7000454B00225A70454B1A78434B9A70002318
:100F80007B600CE064233B7000237B803E4A7B68DF
:100F90009B0013443A685A607B6801337B603B4B8B
:100FA0001B781A467B689342ECDB9FED252B9FED67
:100FB000261B9FED270B364801F0FEFA00219FED1E
:100FC000221B9FED250B334801F0F6FA00219FED1F
:100FD0001E1B9FED230B304801F0EEFA00219FED20
:100FE0001A1B9FED210B2D4801F0E6FA0C212C482D
:100FF00007F01EFB00212B4807F01AFB04212948AB
:1010000007F016FB3C21284807F0F8FD3C21274853
:1010100007F0F4FD09F0E8FF254A002125480AF011
:101020002DF80346244A1360244A002124480AF07C
:1010300025F80346234A136009F0FAFFFEE700BFD4
:101040009A9999999999E93F0000000000000000E1
:101050000000000000000C40000000000000044000
:10106000AE47E17A14AEF73F273108AC1C5AF83F7F
:1010700094030020040000209C040020240400208D
:10108000D8010020D4040020A00400200500002086
:1010900000050020EC040020140500202805002095
:1010A0002C020020DC03002074020020BC0200207F
:1010B00050E90008F14700086804002074E90008BE
:1010C000214800086C04002080B594B000AF07F1FF
:1010D00020033022002118460CF0F8FE07F10C0323
:1010E00000221A605A609A60DA601A610023BB60BD
:1010F000224B1B6C214A43F0805313641F4B1B6C23
:1011000003F08053BB60BB6800237B601C4B1B68F3
:101110001B4A43F480431360194B1B6803F480435C
:101120007B607B6802233B620123FB6210233B63ED
:101130000023BB6307F12003184606F06DFC03464D
:10114000002B01D003F074FD0F23FB6000233B61F3
:1011500000237B610023BB610023FB6107F10C03CB
:101160000021184606F0D0FE0346002B01D003F004
:101170005FFD00BF5037BD4680BD00BF0038024054
:101180000070004080B584B000AF3B4600221A607A
:101190005A609A60DA60214B214A1A601F4B002284
:1011A0005A601E4B00229A601C4B00221A611B4B96
:1011B00000221A76194B002283F82020174B0022B8
:1011C000DA62164B174A9A62144B0022DA60134B0C
:1011D0000122DA61114B002283F830200F4B0122EB
:1011E0005A610E4804F050FA0346002B01D003F078
:1011F0001FFD0B233B6001237B600023BB603B464C
:101200001946064804F0EEFB0346002B01D003F01C
:101210000FFD00BF1037BD4680BD00BF8800002015
:10122000002001400100000F80B584B000AF3B46B4
:1012300000221A605A609A60DA60214B214A1A60D3
:101240001F4B00225A601E4B00229A601C4B00224A
:101250001A611B4B00221A76194B002283F82020BA
:10126000174B0022DA62164B174A9A62144B00227F
:10127000DA60134B0122DA61114B012283F830202E
:101280000F4B01225A610E4804F0FEF90346002B71
:1012900001D003F0CDFC0C233B6001237B600023D5
:1012A000BB603B461946064804F09CFB0346002BF6
:1012B00001D003F0BDFC00BF1037BD4680BD00BFAC
:1012C000D0000020002101400100000F80B500AFD8
:1012D000124B134A1A60114B124A5A600F4B0022EC
:1012E0009A600E4B0022DA600C4B4FF480421A6178
:1012F0000A4B00225A61094B00229A61074B0022D7
:10130000DA61064B00221A62044805F09DFB034691
:10131000002B01D003F08CFC00BF80BDD801002061
:1013200000540040A086010080B596B000AF07F1E0
:10133000480300221A605A609A60DA6007F140039D
:1013400000221A605A6007F1240300221A605A60D2
:101350009A60DA601A615A619A613B1D202200216D
:1013600018460CF0B3FD3D4B3D4A1A603B4BA022A2
:101370005A603A4B00229A60384B4FF47A72DA6026
:10138000364B00221A61354B00225A61334B8022C2
:101390009A61324806F0CAFF0346002B01D003F0E1
:1013A00047FC4FF48053BB6407F1480319462B48B0
:1013B00007F018FF0346002B01D003F039FC274843
:1013C00007F0DCF80346002B01D003F031FC0023CA
:1013D0003B6400237B6407F1400319461F4808F073
:1013E00065FC0346002B01D003F022FC60237B62E6
:1013F0000023BB620023FB6204237B630023BB63E7
:101400000023FB6307F124030C221946134807F05D
:1014100027FE0346002B01D003F00AFC00237B606B
:101420000023BB600023FB6000233B6100237B6142
:101430004FF40053BB6100233B623B1D1946074834
:1014400008F0B0FC0346002B01D003F0F1FB034889
:1014500003F0C2FE00BF5837BD4680BD2C020020FD
:101460000000014080B58CB000AF07F10C032422CE
:10147000002118460CF02AFD3B1D00221A605A601C
:10148000214B4FF080421A601F4B00225A601E4BC6
:1014900000229A601C4B4FF6FF72DA601A4B002252
:1014A0001A61194B00229A610323FB6000233B6100
:1014B00001237B610023BB610023FB6100233B62AE
:1014C00001237B620023BB620023FB6207F10C0354
:1014D00019460D4807F0ECFA0346002B01D003F043
:1014E000A7FB00237B600023BB603B1D1946064819
:1014F00008F0DCFB0346002B01D003F099FB00BF92
:101500003037BD4680BD00BF7402002080B58AB070
:1015100000AF07F1180300221A605A609A60DA607F
:1015200007F1100300221A605A603B4600221A603D
:101530005A609A60DA602B4B2B4A1A60294B0F22B3
:101540005A60284B00229A60264B4FF6FF72DA60F1
:10155000244B00221A61234B00229A61214806F095
:10156000E5FE0346002B01D003F062FB4FF48053ED
:10157000BB6107F1180319461A4807F033FE03460A
:10158000002B01D003F054FB164807F019F903466D
:10159000002B01D003F04CFB00233B6100237B6157
:1015A00007F1100319460F4808F080FB0346002B93
:1015B00001D003F03DFB00233B6001237B6000234F
:1015C000BB600023FB603B4604221946054807F038
:1015D000ABFC0346002B01D003F02AFB00BF2837E9
:1015E000BD4680BDBC0200200004004080B586B02E
:1015F00000AF07F1100300221A605A603B46002238
:101600001A605A609A60DA60204B214A1A601F4BB8
:1016100000225A601D4B00229A601C4B4FF6FF724D
:10162000DA601A4B00221A61184B00229A6117489F
:1016300007F0C6F80346002B01D003F0F9FA0023A7
:101640003B6100237B6107F1100319460F4808F046
:101650002DFB0346002B01D003F0EAFA00233B6088
:1016600001237B600023BB600023FB603B46042218
:101670001946064807F058FC0346002B01D003F03A
:10168000D7FA00BF1837BD4680BD00BF0403002055
:101690000008004080B586B000AF07F110030022BB
:1016A0001A605A603B4600221A605A609A60DA60FB
:1016B000204B214A1A601F4B00225A601D4B00220A
:1016C0009A601C4B4FF0FF32DA601A4B00221A610D
:1016D000184B00229A61174807F072F80346002B56
:1016E00001D003F0A5FA00233B6100237B6107F1E1
:1016F000100319460F4808F0D9FA0346002B01D011
:1017000003F096FA00233B6001237B600023BB605B
:101710000023FB603B4600221946064807F004FC04
:101720000346002B01D003F083FA00BF1837BD46F3
:1017300080BD00BF4C030020000C004080B582B08B
:1017400000AF3B4600221A605A60154B154A1A60DA
:10175000134B0F225A60124B00229A60104B4FF627
:10176000FF72DA600E4B00229A610D4806F0DEFD32
:101770000346002B01D003F05BFA00233B600023FB
:101780007B603B461946064808F090FA0346002B5A
:1017900001D003F04DFA00BF0837BD4680BD00BF41
:1017A000940300200014004080B596B000AF07F10C
:1017B000480300221A605A609A60DA6007F1400319
:1017C00000221A605A6007F1240300221A605A604E
:1017D0009A60DA601A615A619A613B1D20220021E9
:1017E00018460CF073FB444B444A1A60424B0022EB
:1017F0005A60414B00229A603F4B41F61F42DA602B
:101800003D4B00221A613C4B00225A613A4B0022A8
:101810009A61394806F08AFD0346002B01D003F097
:1018200007FA4FF48053BB6407F148031946324866
:1018300007F0D8FC0346002B01D003F0F9F92E483D
:1018400006F09CFE0346002B01D003F0F1F90023C3
:101850003B6400237B6407F140031946264808F0E7
:1018600025FA0346002B01D003F0E2F960237B62E6
:101870000023BB620023FB6200233B6300237B63E6
:101880000023BB630023FB6307F1240300221946F6
:10189000194807F0E5FB0346002B01D003F0C8F917
:1018A00007F1240304221946134807F0D9FB034625
:1018B000002B01D003F0BCF900237B600023BB6048
:1018C0000023FB6000233B6100237B614FF4005346
:1018D000BB6100233B623B1D1946074808F062FAD2
:1018E0000346002B01D003F0A3F9034803F074FC76
:1018F00000BF5837BD4680BDDC0300200004014016
:1019000080B500AF114B124A1A60104B4FF4E13210
:101910005A600E4B00229A600C4B0022DA600B4B8F
:1019200000221A61094B0C225A61084B00229A616D
:10193000064B0022DA61054808F09AFA0346002BAC
:1019400001D003F075F900BF80BD00BF2404002062
:101950000048004080B582B000AF00237B60104B90
:101960001B6B0F4A43F4800313630D4B1B6B03F493
:1019700080037B607B6800220521382004F008FB8F
:10198000382004F021FB002205213A2004F000FB5E
:101990003A2004F019FB00BF0837BD4680BD00BFE8
:1019A0000038024080B58CB000AF07F11C03002264
:1019B0001A605A609A60DA601A610023BB61454B75
:1019C0001B6B444A43F010031363424B1B6B03F041
:1019D0001003BB61BB6900237B613E4B1B6B3D4A1F
:1019E00043F0800313633B4B1B6B03F080037B616D
:1019F0007B6900233B61374B1B6B364A43F0040382
:101A00001363344B1B6B03F004033B613B690023FE
:101A1000FB60304B1B6B2F4A43F0010313632D4BCC
:101A20001B6B03F00103FB60FB680023BB60294BC9
:101A30001B6B284A43F008031363264B1B6B03F010
:101A40000803BB60BB6800237B60224B1B6B214AF1
:101A500043F0020313631F4B1B6B03F002037B6015
:101A60007B6800224FF45E611B4804F0D3FF002224
:101A70003C211A4804F0CEFF4FF45E63FB61012362
:101A80003B6200237B620023BB6207F11C03194603
:101A9000114804F023FE3C23FB6101233B62002339
:101AA0007B620223BB6207F11C0319460B4804F05A
:101AB00015FE4FF48073FB6100233B6200237B62C1
:101AC00007F11C031946064804F008FE00BF303732
:101AD000BD4680BD003802400010024000000240B8
:101AE000000C024080B483B000AF0346FB80094B7A
:101AF0001B6800225A6200BF064B1B685A6AFB88AB
:101B00009A42F9D300BF00BF0C37BD465DF8047B95
:101B1000704700BF9403002080B500AF01224FF44E
:101B200000610B4804F076FF0A20FFF7DBFF00227C
:101B30004FF40061064804F06DFF064B1B68DA683D
:101B4000044B1B6842F00402DA6000BF80BD00BF96
:101B500000100240BC02002080B584B000AF786065
:101B60008F4B9B78A3F1300213469B0013445B001C
:101B70001A468B4BDB78303B1344FB60884B5B7819
:101B80002F2B0CD9864B5B78392B08D8844B5B788C
:101B9000303B642202FB03F3FA681344FB60814B81
:101BA00000221A707E4B1B78532B59D17C4B5B78EB
:101BB000542B55D17C4B1B6800225A637A4B1B680F
:101BC00000229A63794B1A78794B1A70774B0B2263
:101BD0001A70784B4FF000021A60774B00221A807F
:101BE000764800F00AFD764800F007FD754800F0E1
:101BF00004FD754B00221A80744B1A78734B5B7886
:101C00009A4212D1724B64221A70714B00225A8090
:101C1000704A0F2170480CF025F94FF6FF73062229
:101C20006E496F4808F071F9E7E3684B5B78684AE2
:101C300066499B000B445B681360644B5B7801331F
:101C4000624A927893FBF2F101FB02F29B1ADAB23C
:101C50005E4B5A70634A0F215F480CF003F9CCE3E6
:101C60004F4B1B78462B3DD14D4B5B78572B03D008
:101C70004B4B5B78532B35D1494B9B782D2B05D1A2
:101C8000474BDB782D2B01D1012300E00023DAB292
:101C9000444B1A70424B5B78532B14BF0123002333
:101CA000DBB21A46504B1A70484B1B78474A9B00D0
:101CB000134401221A71454B1B78FA6891B2434ACA
:101CC0009B0013440A46DA80404B1B7801333F4A9D
:101CD000927893FBF2F101FB02F29B1ADAB23B4BD2
:101CE0001A708AE32E4B1B78422B3DD12C4B5B782C
:101CF000572B03D02A4B5B78532B35D1284B9B783D
:101D00002D2B05D1264BDB782D2B01D1012300E0B3
:101D10000023DAB2234B1A70214B5B78532B14BF8C
:101D200001230023DBB21A462F4B1A70274B1B7876
:101D3000264A9B00134402221A71244B1B78FA682E
:101D400091B2224A9B0013440A46DA801F4B1B784B
:101D500001331E4A927893FBF2F101FB02F29B1AC7
:101D6000DAB21A4B1A7048E30D4B1B78462B5CD144
:101D70000B4B5B784C2B58D1094B9B782D2B05D105
:101D8000074BDB782D2B01D1012300E00023DAB2D1
:101D9000044B1A70034B1B78002B27D0032126E03D
:101DA0009C040020E8040020DC0300200800002040
:101DB00009000020740400207A040020000500209F
:101DC000EC0400201405002094040020A00400204E
:101DD000D4040020D8E80008D8040020E0E8000877
:101DE00024040020E8E800080A00002007219D4B99
:101DF0001B789C4A9B0013440A461A71994B1B7826
:101E0000FA6891B2974A9B0013440A46DA80954BD0
:101E10001B780133934A927893FBF2F101FB02F2B3
:101E20009B1ADAB28F4B1A70E7E28F4B1B78462B66
:101E300036D18D4B5B78522B32D18B4B9B782D2B2F
:101E400005D1894BDB782D2B01D1012300E0002344
:101E5000DAB2864B1A70854B1B78002B01D0042117
:101E600000E008217F4B1B787E4A9B0013440A4602
:101E70001A717C4B1B78FA6891B27A4A9B00134422
:101E80000A46DA80774B1B780133764A927893FBC7
:101E9000F2F101FB02F29B1ADAB2724B1A70ACE259
:101EA000714B1B78422B36D16F4B5B784C2B32D168
:101EB0006D4B9B782D2B05D16B4BDB782D2B01D1F6
:101EC000012300E00023DAB2684B1A70674B1B78DD
:101ED000002B01D0052100E00921624B1B78614AEB
:101EE0009B0013440A461A715E4B1B78FA6891B244
:101EF0005C4A9B0013440A46DA805A4B1B78013334
:101F0000584A927893FBF2F101FB02F29B1ADAB283
:101F1000544B1A7071E2544B1B78422B36D1524B02
:101F20005B78522B32D1504B9B782D2B05D14E4BE9
:101F3000DB782D2B01D1012300E00023DAB24B4BDB
:101F40001A704A4B1B78002B01D0062100E00A21B1
:101F5000444B1B78434A9B0013440A461A71414B79
:101F60001B78FA6891B23F4A9B0013440A46DA8014
:101F70003C4B1B7801333B4A927893FBF2F101FB17
:101F800002F29B1ADAB2374B1A7036E2364B1B78E4
:101F9000462B31D1344B5B78303B642202FB03F19A
:101FA000314B9B78A3F1300213469B0013445B0036
:101FB000CA182D4BDB78303B1344FB60294B1B7850
:101FC000284A9B00134412221A71264B1B78FA6888
:101FD00091B2244A9B0013440A46DA80214B1B78B5
:101FE0000133204A927893FBF2F101FB02F29B1A33
:101FF000DAB21C4B1A7000E21B4B1B78422B37D114
:10200000194B5B78303B642202FB03F1164B9B7843
:10201000A3F1300213469B0013445B00CA18124B15
:10202000DB78303B1344FB600E4B1B780D4A9B0062
:10203000134413221A710B4B1B78FA6891B2094AA8
:102040009B0013440A46DA80064B1B780133054A8D
:10205000927893FBF2F101FB02F29B1ADAB2014B88
:102060001A70CAE1A00400209C040020E8040020AB
:10207000904B1B78582B29D18E4B5B78302B25D178
:102080008C4B9B78302B21D18A4BDB78302B1DD1A8
:10209000894B1B78884A9B00134417221A71864B80
:1020A0001B78FA6891B2844A9B0013440A46DA808E
:1020B000814B1B780133804A927893FBF2F101FB4C
:1020C00002F29B1ADAB27C4B1A7096E1794B1B78BC
:1020D0005A2B03D0774B1B78592B53D1754B5B7818
:1020E000303B642202FB03F1724B9B78A3F1300278
:1020F00013469B0013445B00CA186E4BDB78303BE1
:102100001344FB606B4B1B785A2B1DD16A4B1B7819
:10211000694A9B00134414221A71674B1B78FA68B2
:1021200091B2654A9B0013440A46DA80624B1B78E1
:102130000133614A927893FBF2F101FB02F29B1AA0
:10214000DAB25D4B1A7058E15B4B1B785A4A9B0020
:10215000134416221A71584B1B78FA6891B2564AEA
:102160009B0013440A46DA80534B1B780133524AD2
:10217000927893FBF2F101FB02F29B1ADAB24E4B1A
:102180001A703AE14B4B1B78542B21D1494B5B78A9
:102190004C2B1DD1484B1B78474A9B0013440B2204
:1021A0001A71454B1B78FA6891B2434A9B0013445D
:1021B0000A46DA80404B1B7801333F4A927893FB02
:1021C000F2F101FB02F29B1ADAB23B4B1A7014E1F6
:1021D000384B1B78542B21D1364B5B78522B1DD1B9
:1021E000354B1B78344A9B0013440C221A71324B36
:1021F0001B78FA6891B2304A9B0013440A46DA8091
:102200002D4B1B7801332C4A927893FBF2F101FBA2
:1022100002F29B1ADAB2284B1A70EEE0254B1B78BB
:10222000492B21D1234B5B78522B1DD1224B1B789C
:10223000214A9B0013440D221A711F4B1B78FA6828
:1022400091B21D4A9B0013440A46DA801A4B1B7850
:102250000133194A927893FBF2F101FB02F29B1AC7
:10226000DAB2154B1A70C8E0124B1B78442B25D1FB
:10227000104B5B78542B21D10F4B1B780E4A9B00DF
:1022800013440E221A710C4B1B78FA6891B20A4A59
:102290009B0013440A46DA80074B1B780133064A39
:1022A000927893FBF2F101FB02F29B1ADAB2024B35
:1022B0001A70A2E09C040020A0040020664B1B784A
:1022C000412B1DD1654B1B78644A9B001344582257
:1022D0001A71624B1B78FA6891B2604A9B001344F2
:1022E0000A46DA805D4B1B7801335C4A927893FB97
:1022F000F2F101FB02F29B1ADAB2584B1A707CE041
:10230000554B1B78432B1DD1544B1B78534A9B00D4
:10231000134459221A71514B1B78FA6891B24F4AF3
:102320009B0013440A46DA804C4B1B7801334B4A1E
:10233000927893FBF2F101FB02F29B1ADAB2474B5F
:102340001A705AE0444B1B784E2B29D1424B5B78D4
:10235000562B25D1404B9B78472B21D13E4BDB7828
:10236000542B1DD13D4B1B783C4A9B001344152236
:102370001A713A4B1B78FA6891B2384A9B001344A1
:102380000A46DA80354B1B780133344A927893FB46
:10239000F2F101FB02F29B1ADAB2304B1A702CE018
:1023A0002D4B1B78502B28D12B4B5B78412B24D104
:1023B000294B9B78542B20D1274BDB78482B1CD101
:1023C000264B1B78254A9B00134418221A71234B75
:1023D0001B78FA6891B2214A9B0013440A46DA80BE
:1023E0001E4B1B7801331D4A927893FBF2F101FBDF
:1023F00002F29B1ADAB2194B1A70184B1A78174B63
:102400005B789A4219D0154B5B78154A13499B00AB
:102410000B445B681360114B5B7801330F4A927871
:1024200093FBF2F101FB02F29B1ADAB20B4B5A70EA
:102430000C4A0F210C480BF015FD0C4B1B685B6818
:102440000B4B1B789BB21A460349084807F0EFFD77
:1024500000BF1037BD4680BD9C040020A0040020B2
:10246000D4040020E8E80008D80400202404002058
:10247000040000200000000080B588B000AF786044
:102480007B681B7F022B40F08380454B1B78002B21
:102490001AD10421786806F06DFF0346414A1360A3
:1024A0003F4B01221A707B681B681A6A7B681B68A5
:1024B00022F0A0021A627B681B681A6A7B681B689C
:1024C00042F020021A6263E0354B1B78012B5FD18A
:1024D0000421786806F04EFF0346334A13607B6898
:1024E0001B6800225A62304B1A682E4B1B689A42B6
:1024F00007D92D4B1A682B4B1B68D31A2B4A136034
:102500000FE0284B1A68284B1B689A4209D9264BC2
:102510001A68244B1B68D31A03F57F43FF33234A01
:102520001360224B1B681846FDF7E4FF1AA3D3E99A
:102530000023FEF759F802460B46104619464FF0A5
:1025400000024FF08043FEF779F902460B46104631
:102550001946FEF7E3FA0346DAB2154B1A70104B30
:1025600000221A707B681B681A6A7B681B6822F05D
:10257000A0021A627B681A687B681B68126A1A627A
:102580000C4B1B68DA680B4B1B6822F00402DA6004
:1025900000BF2037BD4680BD9CC420B07268A13FFB
:1025A000480500203C05002040050020440500208F
:1025B00007000020BC02002080B485B000AFF860A6
:1025C00087ED020AC7ED010A87ED001AFB68BA68B9
:1025D0001A60FB687A685A60FB683A689A60FB6820
:1025E0004FF00002DA60FB684FF000021A6100BF92
:1025F0001437BD465DF8047B704780B483B000AFEC
:1026000078607B684FF00002DA607B684FF0000270
:102610001A6100BF0C37BD465DF8047B70470000AF
:1026200080B586B004AF0346FB714FF6FF7302938B
:1026300002230193584B009301233722D02157489E
:1026400004F040FC544B1B781B021AB2524B5B78CF
:102650001BB213431AB2524B1A80524B1B681B68B1
:1026600003F01003102B01D1012201E04FF0FF32E3
:102670004D4B1A704A4BB3F9003013F10A0F04DBCB
:10268000474BB3F90030082B07DD454BB3F9003059
:1026900007EE903AF8EEE77A01E0DFED447A444B3A
:1026A00093ED007A77EE877A414BC3ED007A414B88
:1026B00093ED007A3E4BD3ED007A27EE277A3D4B1F
:1026C000D3ED016A3B4BD3ED047A66EEA77A37EE81
:1026D000277A384BD3ED026A354B93ED006A354BC0
:1026E000D3ED037A76EE677A66EEA77A77EE277AED
:1026F000FDEEE77A17EE902A2F4B1A602C4B1B68E1
:102700002C4AD3602B4B93ED047A294BD3ED007AFE
:1027100077EE277A274BC3ED047A274B1B68B3F576
:102720002F7F06DC244B1B68244A9342B8BF134614
:1027300001E04FF42F73204A13601B4B93F90030D4
:102740009AB21D4B1B689BB212FB03F39BB203F5BD
:102750009C5308339AB21A4B1A80134B93F90030EA
:102760009AB2154B1B689BB212FB03F39BB2C3F5E5
:102770009C5308339AB2134B1A80114B1A88124B90
:102780001B685A630F4B1A880F4B1B689A6300BF74
:102790000837BD4680BD00BF78040020D801002066
:1027A0007A040020740200200B00002000000000CA
:1027B00074040020140500205C05002044FDFFFF88
:1027C0007C0400207E040020DC03002080B586B05D
:1027D00004AF0346FB714FF6FF730293022301938C
:1027E000584B009301233722D021574804F06AFB4D
:1027F000544B1B781B021AB2524B5B781BB213432B
:102800001AB2524B1A80524B1B681B6803F010031C
:10281000102B01D1012201E04FF0FF324D4B1A7015
:102820004A4BB3F9003013F10A0F04DB474BB3F9FD
:102830000030082B07DD454BB3F9003007EE903A26
:10284000F8EEE77A01E0DFED447A444B93ED007A4D
:1028500077EE877A414BC3ED007A414B93ED007AD6
:102860003E4BD3ED007A27EE277A3D4BD3ED016A3C
:102870003B4BD3ED047A66EEA77A37EE277A384BD6
:10288000D3ED026A354B93ED006A354BD3ED037AF5
:1028900076EE677A66EEA77A77EE277AFDEEE77A2C
:1028A00017EE902A2F4B1A602C4B1B682C4AD360D2
:1028B0002B4B93ED047A294BD3ED007A77EE277AF0
:1028C000274BC3ED047A274B1B68B3F52F7F06DC3B
:1028D000244B1B68244A9342B8BF134601E04FF4CF
:1028E0002F73204A13601B4B93F900309AB21D4B93
:1028F0001B689BB212FB03F39BB203F59C53083396
:102900009AB21A4B1A80134B93F900309AB2154BB6
:102910001B689BB212FB03F39BB2C3F59C530833B5
:102920009AB2134B1A80114B1A88124B1B685A63C8
:102930000F4B1A880F4B1B689A6300BF0837BD46C0
:1029400080BD00BF78040020D80100207A04002058
:10295000740200200B00002000000000740400201E
:10296000140500205C05002044FDFFFF7C040020CE
:102970007E040020DC03002080B586B004AF03464F
:102980003960FB714FF6FF730293022301939F4B53
:10299000009301233722D0219D4804F093FA9B4BEA
:1029A0001B781B021AB2994B5B781BB213431AB205
:1029B000984B1A80984B1B681B6803F01003102B70
:1029C00001D1012201E04FF0FF32944B1A70934B7A
:1029D00093F90030012B1DD18E4BB3F9003013F168
:1029E0000F0F04DB8B4BB3F900300F2B07DD894B46
:1029F000B3F9003007EE903AF8EEE77A01E0DFED48
:102A0000887A884B93ED007A77EE877A854BC3ED11
:102A1000007A22E0814B93F90030B3F1FF3F1CD1E3
:102A20007C4BB3F9003013F1060F04DB794BB3F99B
:102A30000030062B07DD774BB3F9003007EE903AF4
:102A4000F8EEE77A01E0DFED767A764B93ED007AE7
:102A500077EE877A734BC3ED007AFB79012B64D153
:102A6000714B93ED007A6F4BD3ED007A27EE277A06
:102A70006D4BD3ED016A6C4BD3ED047A66EEA77A09
:102A800037EE277A684BD3ED026A664B93ED006A06
:102A9000654BD3ED037A76EE677A66EEA77A77EE2A
:102AA000277AFDEEE77A17EE902A604B1A605D4BAD
:102AB0001B685D4AD3605C4B93ED047A594BD3EDB0
:102AC000007A77EE277A584BC3ED047A574B1B6890
:102AD000B3F5C87F06DC554B1B68554A9342B8BF17
:102AE000134601E04FF4C873504A13604B4B93F9FF
:102AF00000309AB24D4B1B689BB212FB03F39BB2A2
:102B000003F596639AB24B4B1A80444B93F900300D
:102B10009AB2464B1B689BB212FB03F39BB2C3F500
:102B200096639AB2444B1A80F8E0FB79022B40F08E
:102B3000F5803A4B93F90030012B40F083803F4BF6
:102B400093ED007A374BD3ED007A27EE277A3B4B93
:102B5000D3ED016A394BD3ED047A66EEA77A37EEEE
:102B6000277A364BD3ED026A2E4B93ED006A334B36
:102B7000D3ED037A76EE677A66EEA77A77EE277A58
:102B8000FDEEE77A17EE902A284B1A60254B1B685A
:102B90002A4AD360294B93ED047A224BD3ED007A75
:102BA00077EE277A254BC3ED047A204B1B68B3F5EB
:102BB0002F7F06DC1D4B1B68214A9342B8BF13468A
:102BC00001E04FF42F73194A1360144B93F900304E
:102BD0009AB2164B1B689BB212FB03F39BB203F530
:102BE0009C5308339AB2134B1A800C4B93F9003064
:102BF0009AB20E4B1B689BB212FB03F39BB2C3F558
:102C00009C5308339AB20C4B1A8087E0780400205A
:102C1000D80100207A040020740200200B0000205C
:102C20000000000074040020EC0400205C0500207B
:102C300070FEFFFF7C0400207E04002014050020AD
:102C400044FDFFFF494B93F90030B3F1FF3F65D1DD
:102C5000474B93ED007A474BD3ED007A27EE277A66
:102C6000434BD3ED016A424BD3ED047A66EEA77A6B
:102C700037EE277A3E4BD3ED026A3E4B93ED006A66
:102C80003B4BD3ED037A76EE677A66EEA77A77EE62
:102C9000277AFDEEE77A17EE902A374B1A60354B0C
:102CA0001B68334AD360324B93ED047A314BD3ED3A
:102CB000007A77EE277A2E4BC3ED047A2E4B1B68F1
:102CC000B3F52F7F06DC2C4B1B682C4A9342B8BF10
:102CD000134601E04FF42F73274A1360234B93F9F7
:102CE00000309AB2244B1B689BB212FB03F39BB2D9
:102CF00003F59C5308339AB2214B1A801B4B93F96E
:102D000000309AB21C4B1B689BB212FB03F39BB2C0
:102D1000C3F59C5308339AB21A4B1A80184B1B8880
:102D200007EE903AB8EEE77A3B68D3ED007A67EEAB
:102D3000277A154B1B68FCEEE77A17EE902A5A6348
:102D4000104B1B8807EE903AB8EEE77A3B68D3ED5C
:102D5000007A67EE277A0C4B1B68FCEEE77A17EED9
:102D6000902A9A6300BF0837BD4680BD0B00002043
:102D700028050020740400205C05002044FDFFFFAE
:102D80007C0400207E040020DC03002080B586B097
:102D900004AF03463960FB714FF6FF7302930223C1
:102DA00001938E4B009301233722D0218C4804F0ED
:102DB00089F88A4B1B781B021AB2884B5B781BB2CE
:102DC00013431AB2874B1A80874B1B681B6803F0AA
:102DD0001003102B01D1012201E04FF0FF32834B91
:102DE0001A70824B93F90030012B1DD17D4BB3F942
:102DF000003013F10A0F04DB7A4BB3F900300A2BD1
:102E000007DD784BB3F9003007EE903AF8EEE77A39
:102E100001E0DFED777A774B93ED007A77EE877AF2
:102E2000744BC3ED007A22E0704B93F90030B3F19C
:102E3000FF3F1CD16B4BB3F9003013F1060F04DBDD
:102E4000684BB3F90030062B07DD664BB3F9003051
:102E500007EE903AF8EEE77A01E0DFED657A654B30
:102E600093ED007A77EE877A624BC3ED007AFB79B7
:102E7000022B40F0EF805D4B93F90030012B64D1C1
:102E80005D4B93ED007A5B4BD3ED007A27EE277A0A
:102E9000594BD3ED016A584BD3ED047A66EEA77A0D
:102EA00037EE277A544BD3ED026A524B93ED006A0A
:102EB000514BD3ED037A76EE677A66EEA77A77EE1A
:102EC000277AFDEEE77A17EE902A4C4B1A60494BB1
:102ED0001B68494AD360484B93ED047A454BD3EDC8
:102EE000007A77EE277A444BC3ED047A434B1B6894
:102EF000B3F52F7F06DC414B1B68414A9342B8BFB4
:102F0000134601E04FF42F733C4A1360374B93F99B
:102F100000309AB2394B1B689BB212FB03F39BB291
:102F200003F57A639AB2374B1A80304B93F900302D
:102F30009AB2324B1B689BB212FB03F39BB2C3F5F0
:102F40007A639AB2304B1A8084E0284B93F90030B0
:102F5000B3F1FF3F7ED12D4B93ED007A254BD3ED9E
:102F6000007A27EE277A294BD3ED016A274BD3ED60
:102F7000047A66EEA77A37EE277A244BD3ED026AFD
:102F80001C4B93ED006A214BD3ED037A76EE677A02
:102F900066EEA77A77EE277AFDEEE77A17EE902AAB
:102FA000164B1A60134B1B68184AD360174B93EDEE
:102FB000047A104BD3ED007A77EE277A134BC3EDEA
:102FC000047A0E4B1B68B3F52F7F21DC0B4B1B687B
:102FD0000B4A9342B8BF13461CE000BF78040020A0
:102FE000D80100207A040020740200200B00002089
:102FF0000000000074040020140500205C0500207F
:1030000044FDFFFF7C0400207E04002028050020F2
:103010004FF42F73234A1360234B93F900309AB275
:10302000204B1B689BB212FB03F39BB203F57A6340
:103030009AB21E4B1A801C4B93F900309AB2194B6E
:103040001B689BB212FB03F39BB2C3F57A639AB27F
:10305000174B1A80154B1B8807EE903AB8EEE77AAB
:103060003B68D3ED007A67EE277A124B1B68FCEEC3
:10307000E77A17EE902A5A630D4B1B8807EE903AB9
:10308000B8EEE77A3B68D3ED007A67EE277A094B12
:103090001B68FCEEE77A17EE902A9A6300BF0837A8
:1030A000BD4680BD5C0500200B0000207C04002094
:1030B0007E040020DC03002080B586B004AF034608
:1030C0003960FB714FF6FF730293022301938F4B1C
:1030D000009301233722D0218D4803F0F3FE8B4B60
:1030E0001B781B021AB2894B5B781BB213431AB2CE
:1030F000884B1A80884B1B681B6803F01003102B49
:1031000001D1012201E04FF0FF32844B1A70834B52
:1031100093F90030012B1DD17E4BB3F9003013F130
:103120000A0F04DB7B4BB3F900300A2B07DD794B28
:10313000B3F9003007EE903AF8EEE77A01E0DFED00
:10314000787A784B93ED007A77EE877A754BC3EDFA
:10315000007A22E0714B93F90030B3F1FF3F1CD1AC
:103160006C4BB3F9003013F1060F04DB694BB3F974
:103170000030062B07DD674BB3F9003007EE903ABD
:10318000F8EEE77A01E0DFED667A664B93ED007AC0
:1031900077EE877A634BC3ED007AFB79022B40F020
:1031A000F3805E4B93F90030012B66D15E4B93EDBB
:1031B000007A5C4BD3ED007A27EE277A5A4BD3ED99
:1031C000016A594BD3ED047A66EEA77A37EE277A77
:1031D000554BD3ED026A534B93ED006A524BD3ED3E
:1031E000037A76EE677A66EEA77A77EE277AFDEEB7
:1031F000E77A17EE902A4D4B1A604A4B1B684A4AF1
:10320000D360494B93ED047A464BD3ED007A77EEC9
:10321000277A454BC3ED047A444B1B68B3F52F7FE7
:1032200006DC424B1B68424A9342B8BF134601E09A
:103230004FF42F733D4A1360384B93F900309AB224
:103240003A4B1B689BB212FB03F39BB203F59C53F2
:1032500008339AB2374B1A80304B93F900309AB248
:10326000324B1B689BB212FB03F39BB2C3F59C531A
:1032700008339AB2304B1A8086E0284B93F900301D
:10328000B3F1FF3F40F080802C4B93ED007A254B4B
:10329000D3ED007A27EE277A284BD3ED016A274B2E
:1032A000D3ED047A66EEA77A37EE277A234BD3ED77
:1032B000026A1C4B93ED006A204BD3ED037A76EE45
:1032C000677A66EEA77A77EE277AFDEEE77A17EE51
:1032D000902A164B1A60134B1B68184AD360174B81
:1032E00093ED047A0F4BD3ED007A77EE277A134BE8
:1032F000C3ED047A0D4B1B68B3F52F7F20DC0B4B1D
:103300001B680B4A9342B8BF13461BE078040020A9
:10331000D80100207A040020740200200B00002055
:103320000000000074040020140500205C0500204B
:1033300044FDFFFF7C0400207E04002028050020BF
:103340004FF42F73244A1360244B93F900309AB240
:10335000214B1B689BB212FB03F39BB203F59C53FA
:1033600008339AB21E4B1A801C4B93F900309AB264
:10337000194B1B689BB212FB03F39BB2C3F59C5322
:1033800008339AB2174B1A80154B1B8807EE903AF8
:10339000B8EEE77A3B68D3ED007A67EE277A124BF6
:1033A0001B68FCEEE77A17EE902A5A630D4B1B88D8
:1033B00007EE903AB8EEE77A3B68D3ED007A67EE15
:1033C000277A094B1B68FCEEE77A17EE902A9A637E
:1033D00000BF0837BD4680BD5C0500200B00002003
:1033E0007C0400207E040020DC030020000000009C
:1033F00080B584B000AF78600B46FB701346BB709D
:10340000A34B4FF000021A60A24B00221A80A24880
:10341000FFF7F3F8A148FFF7F0F8A148FFF7EDF840
:10342000A04B00221A807B681B681846FDF784F8C1
:1034300091A3D3E90023FDF7D7F802460B461046C7
:1034400019468FA3D3E90023FCF716FF02460B466B
:10345000104619464FF00002934BFDF7C5F802469F
:103460000B46104619464FF00002904BFDF7E6F967
:1034700002460B46104619464FF000028C4BFCF7F3
:10348000FBFE02460B4610461946FDF747FB034676
:103490009AB2884B1A8002F0C7F80346864A136036
:1034A000FB78002B0CBF01230023DBB21A4604215A
:1034B000824803F0AFFAFB78002B14BF01230023EE
:1034C000DBB21A4608217D4803F0A4FAFB78002BF2
:1034D0000CBF01230023DBB21A462021774803F0FA
:1034E00099FAFB78002B14BF01230023DBB21A46A4
:1034F0001021724803F08EFA714B1B685B6A9AB216
:10350000704B1A806E4B1B685B6AFB606C4B1B68D0
:103510001B6803F01003102B17D16A4B1B881A4647
:10352000FB68934206D8674B1A88FB689BB2D31A94
:103530009BB207E0634B1A88FB689BB2D31A9BB21D
:10354000013B9BB2604A138016E05E4B1B881A4613
:10355000FB68934206D3FB689AB25A4B1B88D31A76
:103560009BB207E0FB689AB2564B1B88D31A9BB2FA
:10357000013B9BB2544A1380FB689AB2514B1A80AC
:10358000484B1A88504B1B8813449AB2454B1A80FB
:1035900000237B8100233B81424B1A88454B1B88CB
:1035A0009A4280F0A68002F03FF80246424B1B6828
:1035B000D31A092BA6D9BB78002B03D10020FFF723
:1035C0002FF890E0374B1B881A463A4B1B88D31ACA
:1035D000002BB8BF5B423D4A82FB0312D211DB17BE
:1035E000D31A07EE903AF8EEE77A394BC3ED007A3A
:1035F000BB78012B1ED1364BD3ED007AB7EE007AA3
:10360000F4EEC77AF1EE10FA02DD4FF07E530EE0D1
:103610002F4BD3ED007AB6EE087AF4EEC77AF1EECE
:1036200010FA02D54FF07D5301E0294B1B68284A60
:10363000136053E0BB78022B50D1254BD3ED007AB9
:10364000B7EE007AF4EEC77AF1EE10FA02DD4FF031
:103650007E5341E01E4B1B681846FCF76DFF0AA322
:10366000D3E90023FDF732FA0346002B32D04FF0A6
:103670007C5331E0AFF300802AB266FCAC66F23FC7
:10368000F82625BBD4E3EE3F333333333333E33F04
:10369000740400207A04002000050020EC040020BF
:1036A000140500209404002000A094400000344041
:1036B0000000244096040020800400200000024006
:1036C000740200209A0400209804002067571921F2
:1036D000000000200D4B1B680C4A1360BB780B499F
:1036E0001846FFF749F901F09FFF0346084A1360A7
:1036F00008E700BF074B1B6800225A63054B1B6895
:1037000000229A6300BF1037BD4680BD0000002034
:1037100080040020DC03002080B584B000AF786016
:103720000B46FB701346BB70A34B4FF000021A60B0
:10373000A24B00221A80A248FEF75FFFA148FEF7C5
:103740005CFFA148FEF759FFA04B00221A807B685E
:103750001B681846FCF7F0FE91A3D3E90023FCF7A1
:1037600043FF02460B46104619468FA3D3E90023B8
:10377000FCF782FD02460B46104619464FF0000248
:10378000934BFCF731FF02460B46104619464FF0AB
:103790000002904BFDF752F802460B4610461946C0
:1037A0004FF000028C4BFCF767FD02460B461046BB
:1037B0001946FDF7B3F903469AB2884B1A8001F017
:1037C00033FF0346864A1360FB78002B0CBF0123AE
:1037D0000023DBB21A460421824803F01BF9FB7870
:1037E000002B14BF01230023DBB21A4608217D48B9
:1037F00003F010F9FB78002B0CBF01230023DBB290
:103800001A462021774803F005F9FB78002B14BFF6
:1038100001230023DBB21A461021724803F0FAF8A4
:10382000714B1B685B6A9AB2704B1A806E4B1B68B7
:103830005B6AFB606C4B1B681B6803F01003102B6A
:1038400017D16A4B1B881A46FB68934206D8674B10
:103850001A88FB689BB2D31A9BB207E0634B1A88A5
:10386000FB689BB2D31A9BB2013B9BB2604A1380A8
:1038700016E05E4B1B881A46FB68934206D3FB6832
:103880009AB25A4B1B88D31A9BB207E0FB689AB2D4
:10389000564B1B88D31A9BB2013B9BB2544A1380F0
:1038A000FB689AB2514B1A80484B1A88504B1B88C0
:1038B00013449AB2454B1A8000237B8100233B813D
:1038C000424B1A88454B1B889A4280F0A68001F033
:1038D000ABFE0246424B1B68D31A092BA6D9BB7814
:1038E000002B03D10020FEF771FF90E0374B1B88BF
:1038F0001A463A4B1B88D31A002BB8BF5B423D4A8D
:1039000082FB0312D211DB17D31A07EE903AF8EEBE
:10391000E77A394BC3ED007ABB78012B1ED1364BC9
:10392000D3ED007AB7EE007AF4EEC77AF1EE10FA32
:1039300002DD4FF07E530EE02F4BD3ED007AB6EE52
:10394000087AF4EEC77AF1EE10FA02D54FF07D5303
:1039500001E0294B1B68284A136053E0BB78022B17
:1039600050D1254BD3ED007AB7EE007AF4EEC77A4A
:10397000F1EE10FA02DD4FF07E5341E01E4B1B6862
:103980001846FCF7D9FD0AA3D3E90023FDF79EF8FA
:103990000346002B32D04FF07C5331E0AFF3008070
:1039A0002AB266FCAC66F23FF82625BBD4E3EE3FB4
:1039B000333333333333E33F740400207A0400207D
:1039C00000050020EC0400201405002094040020D1
:1039D00000A09440000034400000244096040020E1
:1039E0008004002000000240740200209A0400209D
:1039F0009804002067571921000000200D4B1B6818
:103A00000C4A1360BB780B491846FFF755FB01F0D1
:103A10000BFE0346084A136008E700BF074B1B680C
:103A200000225A63054B1B6800229A6300BF1037BF
:103A3000BD4680BD0000002080040020DC03002083
:103A400080B582B000AF78600B46FB707E4B4FF0C4
:103A500000021A607D4B00221A807D48FEF7CDFDE2
:103A60007C48FEF7CAFD7C48FEF7C7FD01F0DCFD8F
:103A700003467A4A13607B6893ED007A784B1B7893
:103A800007EE903AF8EEE77A77EE677AFDEEE77A9E
:103A900017EE903A13F1020F11DB7B6893ED007A79
:103AA0006F4B1B7807EE903AF8EEE77A77EE677A7D
:103AB000FDEEE77A17EE903A022B40F3B280684BA6
:103AC0001B7807EE903AB8EEE77A7B68D3ED007A80
:103AD000B4EEE77AF1EE10FAACBF01230023DBB2BB
:103AE00083F00103DBB2DBB21A4604215D4802F029
:103AF00091FF5B4B1B7807EE903AB8EEE77A7B6854
:103B0000D3ED007AB4EEE77AF1EE10FAACBF012300
:103B10000023DBB21A460821524802F07BFF504BCB
:103B20001B7807EE903AB8EEE77A7B68D3ED007A1F
:103B3000B4EEE77AF1EE10FAACBF01230023DBB25A
:103B400083F00103DBB2DBB21A462021454802F0C4
:103B500061FF434B1B7807EE903AB8EEE77A7B683B
:103B6000D3ED007AB4EEE77AF1EE10FAACBF0123A0
:103B70000023DBB21A4610213A4802F04BFF01F055
:103B800053FD0246354B1B68D31A132B7FF673AFD8
:103B9000334B1B7807EE903AB8EEE77A7B68D3EDAB
:103BA000007A77EE677AFDEEE77A17EE903A002B0F
:103BB000B8BF5B422C4A82FB0312D210DB17D31A28
:103BC00007EE903AF8EEE77A284BC3ED007A274BE0
:103BD000D3ED007AB7EE007AF4EEC77AF1EE10FA80
:103BE00002DD4FF07E5310E0204B1B681846FCF7B7
:103BF000A3FC13A3D3E90023FCF768FF0346002BC3
:103C000001D01B4B01E0194B1B68184A1360174980
:103C10000220FFF7BBF801F007FD03460F4A1360CF
:103C200029E700BF134B1B6800225A63114B1B6826
:103C300000229A6300BF0837BD4680BDAFF3008005
:103C40009A9999999999D93F740400207A0400208F
:103C500000050020EC040020140500208004002052
:103C60000600002000000240676666660000002033
:103C70009A99993EDC03002080B58AB000AF0346D4
:103C80003960FB71884B4FF000021A60874B0022AD
:103C90001A808748FEF7B1FC8648FEF7AEFC8648DE
:103CA000FEF7ABFC854BE8221A7001F0BDFC034621
:103CB000834A13603B68002B52D0824B00221A804B
:103CC0001FE0814801F024FD14217F4801F0F2FD3E
:103CD0007D4801F07AFE02467C4B1B6813447B4A08
:103CE0001360784B1B880133794A82FB0312511110
:103CF000DA178A1A642101FB02F29A1A92B2714B06
:103D00001A80704B1B88622BDBD9704B1B686D4A85
:103D10001288B3FBF2F31846FCF7ECFB5EA3D3E981
:103D20000023FCF7A9FA02460B465DA1D1E9000188
:103D3000FCF784FD02460B4610461946FCF70EFFC1
:103D40000346644A1360614B1B685E4A1288B3FBEA
:103D5000F2F39AB2604B1A805C4B00221A6051E079
:103D6000584B00221A801FE05C4801F0D1FC14215E
:103D70005A4801F09FFD594801F027FE0246534B77
:103D80001B681344514A13604E4B1B880133504A41
:103D900082FB03125111DA178A1A642101FB02F225
:103DA0009A1A92B2474B1A80464B1B88622BDBD97A
:103DB000464B1B68434A1288B3FBF2F31846FCF7E4
:103DC00099FB35A3D3E90023FCF756FA02460B46CC
:103DD00033A1D1E90001FCF731FD02460B46104644
:103DE0001946FCF7BBFE03463A4A1360374B1B6883
:103DF000344A1288B3FBF2F39AB2374B1A80334B32
:103E000000221A60334BD3ED007AFCEEE77A17EE0E
:103E1000903A7B627B6A3C2B30D87B6A002B2DD09A
:103E20004FF07E53FB60002204212D4802F0F2FD8A
:103E3000012208212A4802F0EDFD00222021284815
:103E400002F0E8FD01221021254802F0E3FD01F017
:103E5000EBFB02461A4B1B68D31A132B7FF62AAFD3
:103E6000204B4FF07E521A601E490220FEF784FD5F
:103E700001F0DAFB0346124A13601BE71A4B1B687A
:103E800000225A63184B1B6800229A6300BF283730
:103E9000BD4680BDAFF30080D32357FBC5467040BD
:103EA00066834C32340BD940740400207A0400201D
:103EB00000050020EC04002014050020060000206E
:103EC00080040020500500208800002054050020B8
:103ED0001F85EB514C0500204A050020D000002032
:103EE0000000024000000020DC0300200000000071
:103EF00080B584B000AF03463960FB71884B4FF04A
:103F000000021A60874B00221A808748FEF775FB73
:103F10008648FEF772FB8648FEF76FFB854BE8226A
:103F20001A7001F081FB0346834A13603B68002B43
:103F300052D0824B00221A801FE0814801F0E8FB3A
:103F400014217F4801F0B6FC7D4801F03EFD024699
:103F50007C4B1B6813447B4A1360784B1B880133EE
:103F6000794A82FB03125111DA178A1A642101FB84
:103F700002F29A1A92B2714B1A80704B1B88622B14
:103F8000DBD9704B1B686D4A1288B3FBF2F31846FD
:103F9000FCF7B0FA5EA3D3E90023FCF76DF9024603
:103FA0000B465DA1D1E90001FCF748FC02460B4637
:103FB00010461946FCF7D2FD0346644A1360614B74
:103FC0001B685E4A1288B3FBF2F39AB2604B1A8008
:103FD0005C4B00221A6051E0584B00221A801FE00F
:103FE0005C4801F095FB14215A4801F063FC5948E4
:103FF00001F0EBFC0246534B1B681344514A13601B
:104000004E4B1B880133504A82FB03125111DA17C1
:104010008A1A642101FB02F29A1A92B2474B1A8063
:10402000464B1B88622BDBD9464B1B68434A1288E0
:10403000B3FBF2F31846FCF75DFA35A3D3E900238E
:10404000FCF71AF902460B4633A1D1E90001FCF74F
:10405000F5FB02460B4610461946FCF77FFD03466A
:104060003A4A1360374B1B68344A1288B3FBF2F3A9
:104070009AB2374B1A80334B00221A60334BD3ED80
:10408000007AFCEEE77A17EE903AFB60FB68452B6E
:104090000BD8FB680A2B08D92F4B1B6800225A63E8
:1040A0002D4B1B6800229A632DE04FF07E53BB60BE
:1040B00000220421294802F0ADFC012208212748F2
:1040C00002F0A8FC00222021244802F0A3FC0122D7
:1040D0001021224802F09EFC01F0A6FA0246164B7F
:1040E0001B68D31A132B7FF621AF1D4B4FF07E5266
:1040F0001A601B490220FEF73FFC01F095FA0346C7
:104100000D4A136012E71037BD4680BDAFF3008043
:10411000D32357FBC546704066834C32340BD940DD
:10412000740400207A04002000050020EC04002024
:104130001405002006000020800400205005002007
:1041400088000020540500201F85EB514C050020FD
:104150004A050020D0000020DC03002000000240BF
:104160000000002000000000B0B586B004AF786009
:104170004B4B4FF000021A604A4B00221A8001F0AC
:1041800053FA0346484A136001F04EFA0246464B82
:104190001B68D31A092BF7D94FF6FF73029302233A
:1041A0000193424B009301233722D021404802F073
:1041B00089FE3E4B1B781B021AB23C4B5B781BB24C
:1041C00013431AB2374B1A80354B1B681846FCF75D
:1041D000B3F904460D46334BB3F900301846FCF7EB
:1041E00099F92BA3D3E90023FCF7FEF902460B460D
:1041F0001046194628A3D3E90023FCF71FFB02460B
:104200000B4620462946FCF739F802460B46104675
:104210001946FCF7A3FC0346214A1360204B93ED9B
:10422000007A7B68D3ED007A77EE677AFDEEE77A65
:1042300017EE903A002B0DDB194B93ED007A7B685B
:10424000D3ED007A77EE677AFDEEE77A17EE903AD3
:10425000002B05DD01F0E8F90346134A136093E7EC
:1042600000BF144B1B6800225A63124B1B680022CC
:104270009A63114B1B6896221A644FF4967001F0F2
:10428000DFF900BF0837BD46B0BD00BFAFF3008007
:104290007B14AE47E17A843F6666666666663040A8
:1042A000740400207A040020800400207804002098
:1042B000D8010020DC0300202C02002000000000B8
:1042C000B0B586B004AF7860474B4FF000021A607B
:1042D000464B00221A8001F0A7F90346444A1360B6
:1042E00001F0A2F90246424B1B68D31A092BF7D9F9
:1042F0004FF6FF730293022301933E4B0093012379
:104300003722D0213C4802F0DDFD3A4B1B781B02DE
:104310001AB2384B5B781BB213431AB2334B1A8074
:10432000314B1B681846FCF707F904460D462F4B26
:10433000B3F900301846FCF7EDF827A3D3E90023C2
:10434000FCF752F902460B461046194624A3D3E95E
:104350000023FCF773FA02460B4620462946FBF77A
:104360008DFF02460B4610461946FCF7F7FB034645
:104370001D4A13601C4B93ED007A7B68D3ED007AE5
:1043800077EE677AFDEEE77A17EE903A002B0DDBB9
:10439000154B93ED007A7B68D3ED007A77EE677A60
:1043A000FDEEE77A17EE903A002B05DD01F03CF9BF
:1043B00003460F4A136093E700BF104B1B680022AF
:1043C0005A630E4B1B6800229A6300BF0837BD4634
:1043D000B0BD00BFAFF300807B14AE47E17A843FED
:1043E0006666666666663040740400207A040020C3
:1043F0008004002078040020D8010020DC03002085
:1044000080B500AF164B174A1A60174B1B68502235
:104410001A644FF4967001F013F900220421134836
:1044200002F0F8FA01220821104802F0F3FA002203
:1044300020210E4802F0EEFA012210210B4802F072
:10444000E9FA0B4B1B684FF448725A63084B1B6820
:1044500041F27C529A630248FFF786FE00BF80BD9E
:104460007004002000009C422C020020000002404A
:10447000DC03002080B500AF1E4B1F4A1A601F4BA3
:104480001B68E6221A644FF4967001F0D9F80022F6
:1044900004211B4802F0BEFA01220821184802F04C
:1044A000B9FA00222021164802F0B4FA01221021A4
:1044B000134802F0AFFA134B1B6841F27C525A6367
:1044C000104B1B684FF448729A630A48FFF7F8FED6
:1044D0000A4B1B6878221A644FF4FA7006F060FEEB
:1044E000064B1B6896221A644FF4967001F0A8F8E8
:1044F00000BF80BD700400200000A0C22C0200207C
:1045000000000240DC03002080B500AF474B484A62
:104510001A60484B1B686E221A644FF4967001F0C3
:104520008FF800220421444802F074FA0122082185
:10453000414802F06FFA002220213F4802F06AFA57
:10454000012210213C4802F065FA3C4B1B684FF4F5
:104550007A725A63394B1B6841F294129A6333485A
:10456000FFF7AEFE00F016F9304B354A1A60314BBA
:104570001B68C8221A644FF4967001F061F800229B
:1045800004212D4802F046FA012208212A4802F0AF
:1045900041FA00222021284802F03CFA0122102191
:1045A000254802F037FA254B1B6841F294125A63F2
:1045B000224B1B684FF448729A631C48FFF780FE39
:1045C0001A4B1B4A1A601B4B1B686E221A644FF46D
:1045D000967001F035F800220421174802F01AFA0B
:1045E00001220821144802F015FA00222021124865
:1045F00002F010FA012210210F4802F00BFA0F4BC3
:104600001B684FF47A725A630C4B1B6841F2941288
:104610009A630648FFF754FE064B1B6896221A64FD
:104620004FF4967001F00CF800BF80BD70040020BC
:10463000000048422C02002000000240DC03002061
:104640000000D2C280B500AF4B4B4C4A1A604C4BB5
:104650001B68C8221A644FF4967000F0F1FF002224
:104660000421484802F0D6F901220821454802F009
:10467000D1F900222021434802F0CCF90122102177
:10468000404802F0C7F9404B1B6840F6B8325A6305
:104690003D4B1B684FF448729A633748FFF710FE92
:1046A00000F078F8344B394A1A60354B1B686E229B
:1046B0001A644FF4967000F0C3FF002204213148C1
:1046C00002F0A8F9012208212E4802F0A3F90022E5
:1046D00020212C4802F09EF901221021294802F0E5
:1046E00099F9294B1B684FF47A725A63264B1B6861
:1046F00041F294129A632048FFF7E2FD1E4B244AD0
:104700001A601F4B1B68C8221A644FF4967000F0A1
:1047100097FF002204211B4802F07CF901220821A6
:10472000184802F077F900222021164802F072F9A9
:1047300001221021134802F06DF9134B1B6840F65B
:10474000B8325A63104B1B684FF448729A630A4898
:10475000FFF7B6FD0A4B1B6878221A644FF4967077
:1047600006F01EFD064B1B6896221A644FF49670E5
:1047700000F066FF00BF80BD70040020000034C25E
:104780002C02002000000240DC0300200000AE42AA
:10479000000028C280B582B000AF4123FB71F91D33
:1047A0004FF6FF730122054805F0AFFB0A2006F023
:1047B000F7FC00BF0837BD4680BD00BF24040020C1
:1047C00080B483B000AF094B1B78FB71FB794C2B95
:1047D00002D0FB79522BF6D1044B2D221A70FB79B3
:1047E00018460C37BD465DF8047B70479C040020DA
:1047F00080B588B000AF78600421064804F030F836
:10480000FDF78AF9044B1A78044B1A700A2006F057
:10481000C7FCF5E7BC0200200700002006000020CE
:1048200080B586B000AF7860BB4B1B6896221A64D7
:104830004FF4967000F004FF00E000BFB74B1B7808
:10484000532BFAD10A2006F0ABFCB54B1B7807EED0
:10485000903AB8EEE77AB34BD3ED007A77EE277A49
:10486000B04BC3ED007AFFF795FFAF4BAF4A1A602C
:104870000221AD48FFF7E4F8FFF7A2FF0346FB75FE
:10488000FB7D4C2B04D1FFF73FFEFFF783FF03E0D6
:10489000FFF7D8FEFFF77EFFA14B1B7807EE903A9B
:1048A000B8EEE77A9F4BD3ED007A77EE277A9D4BEF
:1048B000C3ED007A9E4B9D4A1A6002219C48FFF787
:1048C000BFF80A2006F06CFCFFF77AFF0346FB7581
:1048D000FB7D4C2B40F0B880FFF792FD0A2006F0DC
:1048E0005FFC01210220FFF7C7F9924B3B6107F102
:1048F0001003002201211846FEF77AFDC82006F0B9
:104900004FFCFFF7B7FD0A2006F04AFC8A4B3B61DB
:1049100007F11003002201211846FEF769FDC820A7
:1049200006F03EFCFFF7A6FD0A2006F039FC834B9B
:104930003B6107F11003002201211846FEF758FDE4
:10494000C82006F02DFC01210220FFF795F90A206E
:1049500006F026FC784B3B6107F110030022012191
:104960001846FEF745FDC82006F01AFCFFF782FD49
:104970000A2006F015FC6B4BD3ED007A9FED707AA0
:10498000F4EEC77AF1EE10FA13DD664B1B68184699
:10499000FBF7D2FD5EA3D3E90023FBF725FE024619
:1049A0000B4610461946FCF7D9F803465D4A1360DA
:1049B00012E05C4B1B681846FBF7BEFD4FF033322C
:1049C000604BFBF711FE02460B4610461946FCF7FA
:1049D000C5F80346534A1360002201215148FEF7EF
:1049E0009BFEC82006F0DCFBFFF744FD0A2006F022
:1049F000D7FB554B3B6107F11003002200211846FD
:104A0000FEF7F6FC4FF4FA7006F0CAFB0021022014
:104A1000FFF76EFA4FF4FA7006F0C2FB4B4B3B61A6
:104A200007F11003002201211846FEF7E1FC0A20DD
:104A300006F0B6FBFFF7E4FC454B444A1A6002213E
:104A40004348FEF7FDFFD2E0FFF714FD0A2006F011
:104A5000A7FB00210220FFF70FF9384BFB6007F19D
:104A60000C03002201211846FEF7C2FCC82006F004
:104A700097FBFFF7C5FC0A2006F092FB2E4BFB606C
:104A800007F10C03002201211846FEF7B1FCC820F3
:104A900006F086FBFFF7B4FC0A2006F081FB274BEB
:104AA000FB6007F10C03002201211846FEF7A0FC71
:104AB000C82006F075FB00210220FFF7DDF8C820B2
:104AC00006F06EFBFFF79CFC0A2006F069FB154B15
:104AD000D3ED007A9FED1A7AF4EEC77AF1EE10FA70
:104AE00038DD104B1B681846FBF726FD08A3D3E9F9
:104AF0000023FBF779FD02460B4610461946FCF7EA
:104B00002DF80346074A136037E000BFAFF300807B
:104B1000666666666666F23F2C0200209C040020F2
:104B20000600002058050020840400200000F04109
:104B30008804002000002041000070410000A040D7
:104B4000000048433333F33F000034420000A041EB
:104B50008C040020284B1B681846FBF7EDFC4FF037
:104B60003332264BFBF740FD02460B4610461946F2
:104B7000FBF7F4FF0346204A1360002201211E4880
:104B8000FEF7CAFDC82006F00BFBFFF739FC0A2030
:104B900006F006FB1A4BFB6007F10C030022002114
:104BA0001846FEF725FC4FF4FA7006F0F9FA0121D9
:104BB0000220FFF79DF94FF4FA7006F0F1FA114B5D
:104BC000FB6007F10C03002201211846FEF710FCE0
:104BD0000A2006F0E5FAFFF74DFC0A2006F0E0FA9D
:104BE000094B084A1A6002210748FEF729FF00BF57
:104BF0001837BD4680BD00BF580500203333F33F52
:104C0000000020420000A0419004002080B582B046
:104C100000AF78607B681B68044A934201D100F0C2
:104C2000EFFC00BF0837BD4680BD00BF001000404C
:104C300080B400AF72B600BFFEE7000080B582B05E
:104C400000AF00237B60124B5B6C114A43F480433E
:104C500053640F4B5B6C03F480437B607B680023E1
:104C60003B600B4B1B6C0A4A43F080531364084BA8
:104C70001B6C03F080533B603B6800220F216FF0F8
:104C8000010001F085F900BF0837BD4680BD00BFB7
:104C90000038024080B58CB000AF786007F11C038B
:104CA00000221A605A609A60DA601A617B681B6899
:104CB0005E4A934258D10023BB615D4B5B6C5C4AFA
:104CC00043F4807353645A4B5B6C03F48073BB6191
:104CD000BB6900237B61564B1B6B554A43F00403B1
:104CE0001363534B1B6B03F004037B617B6902234B
:104CF000FB6103233B6200237B6207F11C0319461F
:104D00004C4801F0EBFC4C4B4C4A1A604A4B0022D9
:104D10005A60494B00229A60474B0022DA60464BAA
:104D20004FF480621A61444B4FF400625A61424B67
:104D30004FF400529A61404B4FF48072DA613E4B5F
:104D400000221A623C4B00225A623B4801F04AF9A9
:104D50000346002B01D0FFF76BFF7B68364A9A634E
:104D6000354A7B6893635DE07B681B68344A9342F5
:104D700058D100233B612E4B5B6C2D4A43F40073EA
:104D800053642B4B5B6C03F400733B613B69002362
:104D9000FB60274B1B6B264A43F004031363244B31
:104DA0001B6B03F00403FB60FB680423FB6103231C
:104DB0003B6200237B6207F11C0319461D4801F08A
:104DC0008DFC204B204A1A601E4B4FF000725A6037
:104DD0001C4B00229A601B4B0022DA60194B4FF4E7
:104DE00080621A61174B4FF400625A61154B4FF401
:104DF00000529A61134B4FF48072DA61114B00221A
:104E00001A62104B00225A620E4801F0EBF803467A
:104E1000002B01D0FFF70CFF7B680A4A9A63094A0E
:104E20007B68936300BF3037BD4680BD00200140E2
:104E300000380240000802401801002010640240BF
:104E400000210140780100204064024080B58AB012
:104E500000AF786007F1140300221A605A609A606C
:104E6000DA601A617B681B68194A93422CD10023CF
:104E70003B61184B1B6B174A43F002031363154B3E
:104E80001B6B03F002033B613B694FF440737B6192
:104E90001223BB610023FB6103233B6204237B627B
:104EA00007F1140319460C4801F018FC0023FB60BD
:104EB000084B1B6C074A43F400131364054B1B6C2F
:104EC00003F40013FB60FB6800BF2837BD4680BDBC
:104ED00000540040003802400004024080B58CB00D
:104EE00000AF786007F11C0300221A605A609A60D4
:104EF000DA601A617B681B683F4A934216D100232F
:104F0000BB613E4B5B6C3D4A43F0010353643B4B3A
:104F10005B6C03F00103BB61BB6900220521192012
:104F200001F036F8192001F04FF860E07B681B684B
:104F3000334A934234D100237B61304B1B6C2F4AA0
:104F400043F0020313642D4B1B6C03F002037B61DF
:104F50007B6900233B61294B1B6B284A43F002030A
:104F60001363264B1B6B03F002033B613B69302349
:104F7000FB6102233B6200237B620023BB620223AE
:104F8000FB6207F11C0319461E4801F0A7FB002233
:104F900005211D2000F0FCFF1D2001F015F826E082
:104FA0007B681B68184A93420ED10023FB60134BA9
:104FB0001B6C124A43F020031364104B1B6C03F06C
:104FC0002003FB60FB6812E07B681B680F4A93427A
:104FD0000DD10023BB60094B5B6C084A43F0020310
:104FE0005364064B5B6C03F00203BB60BB6800BFFD
:104FF0003037BD4680BD00BF000001400038024090
:10500000000400400004024000140040000401407D
:1050100080B58AB000AF786007F1140300221A60EF
:105020005A609A60DA601A617B681B68B3F1804F3E
:105030004AD100233B61264B1B6C254A43F00103F8
:105040001364234B1B6C03F001033B613B6900239A
:10505000FB601F4B1B6B1E4A43F0010313631C4B89
:105060001B6B03F00103FB60FB680023BB60184B64
:105070001B6B174A43F002031363154B1B6B03F0C2
:105080000203BB60BB684FF400437B610223BB613A
:105090000023FB6100233B6201237B6207F11403C1
:1050A00019460C4801F01AFB08237B610223BB61FF
:1050B0000023FB6100233B6201237B6207F11403A1
:1050C0001946054801F00AFB00BF2837BD4680BDE0
:1050D00000380240000002400004024080B58CB05D
:1050E00000AF786007F11C0300221A605A609A60D2
:1050F000DA601A617B681B68324A93422DD1002323
:10510000BB61314B1B6C304A43F0040313642E4BDC
:105110001B6C03F00403BB61BB6900237B612A4B5A
:105120001B6B294A43F008031363274B1B6B03F0E7
:1051300008037B617B694FF40053FB6102233B62F0
:1051400000237B620023BB620223FB6207F11C0386
:1051500019461E4801F0C2FA30E07B681B681C4A01
:1051600093422BD100233B61174B1B6C164A43F033
:1051700008031364144B1B6C03F008033B613B6989
:105180000023FB60104B1B6B0F4A43F001031363BA
:105190000D4B1B6B03F00103FB60FB680123FB61FC
:1051A00002233B6200237B620023BB620223FB627B
:1051B00007F11C031946074801F090FA00BF303789
:1051C000BD4680BD0008004000380240000C02408F
:1051D000000C00400000024080B58AB000AF78604B
:1051E00007F1140300221A605A609A60DA601A61AB
:1051F0007B681B68244A93421FD100233B61234BE9
:105200001B6B224A43F010031363204B1B6B03F00C
:1052100010033B613B694FF480437B610223BB6118
:105220000023FB6103233B6201237B6207F114032C
:105230001946174801F052FA22E07B681B68154AAC
:1052400093421DD10023FB60104B1B6B0F4A43F0B0
:10525000040313630D4B1B6B03F00403FB60FB683B
:10526000C0237B610223BB610023FB6100233B62FF
:1052700003237B6207F114031946074801F02EFA55
:1052800000BF2837BD4680BD000001400038024005
:1052900000100240000401400008024080B58AB0BE
:1052A00000AF786007F1140300221A605A609A6018
:1052B000DA601A617B681B681D4A934234D100236F
:1052C0003B611C4B1B6C1B4A43F480231364194B3A
:1052D0001B6C03F480233B613B690023FB60154B8F
:1052E0001B6B144A43F004031363124B1B6B03F054
:1052F0000403FB60FB684FF440637B610223BB61E6
:105300000023FB6103233B6207237B6207F1140345
:105310001946094801F0E2F900220521272000F092
:1053200037FE272000F050FE00BF2837BD4680BD65
:1053300000480040003802400008024080B58EB0AE
:1053400000AF78600023FB620023BB620023FB6098
:10535000334B1B6C324A43F010031364304B1B6C0D
:1053600003F01003FB60FB6807F1100207F1140360
:105370001146184602F0A8FF3B6AFB62FB6A002B4D
:1053800003D102F079FF786304E002F075FF034671
:105390005B007B637B6B234AA2FB03239B0C013BDB
:1053A000BB62214B214A1A601F4B40F2E732DA60A0
:1053B0001D4ABB6A53601C4B00221A611A4B002223
:1053C0009A60194B00229A61174802F0AFFF03461A
:1053D00087F8333097F83330002B1BD1124803F095
:1053E0005DF8034687F8333097F83330002B11D13E
:1053F000362000F0E9FD7B680F2B08D80022796881
:10540000362000F0C5FD0A4A7B68136002E00123E4
:1054100087F8333097F8333018463837BD4680BDAB
:105420000038024083DE1B4360050020001000406E
:105430001000002080B400AFFEE780B400AFFEE7AC
:1054400080B400AFFEE780B400AFFEE780B400AFE9
:10545000FEE780B400AF00BFBD465DF8047B704737
:1054600080B500AF024803F057FC00BF80BD00BF0D
:105470002C02002080B500AF024803F04DFC00BFB5
:1054800080BD00BFBC02002080B500AF024804F020
:10549000FFFD00BF80BD00BF2404002080B500AF29
:1054A000024803F039FC00BF80BD00BF600500204A
:1054B00080B500AF024800F0D5FE00BF80BD00BF40
:1054C0001801002080B500AF024800F0CBFE00BFFD
:1054D00080BD00BF7801002080B586B000AF786045
:1054E000144A154BD31A7B617B693B61134B1B68D4
:1054F000002B02D1114B124A1A60104B1A687B68BC
:1055000013443A699A4207D208F0E8FC03460C2299
:105510001A604FF0FF3309E0084B1B68FB60074B34
:105520001A687B681344054A1360FB6818461837ED
:10553000BD4680BD0000022000040000A805002038
:105540004854002080B400AF064BD3F88830054A99
:1055500043F47003C2F8883000BFBD465DF8047B99
:10556000704700BF00ED00E0DFF834D00D480E4971
:105570000E4A002302E0D458C4500433C4188C42AD
:10558000F9D30B4A0B4C002301E013600432A24212
:10559000FBD3FFF7D7FF08F0A7FCFBF7ADFC704784
:1055A00000000220000000206C000020FCE9000840
:1055B0006C00002048540020FEE7000080B500AFDA
:1055C0000E4B1B680D4A43F4007313600B4B1B68B2
:1055D0000A4A43F480631360084B1B68074A43F48C
:1055E00080731360032000F0C8FC0F20FFF7A6FEB5
:1055F000FFF724FB0023184680BD00BF003C02409B
:1056000080B400AF064B1B781A46064B1B68134448
:10561000044A136000BFBD465DF8047B704700BFBD
:1056200014000020AC05002080B400AF034B1B68C1
:105630001846BD465DF8047B704700BFAC050020EE
:1056400080B584B000AF7860FFF7EEFFB8607B688C
:10565000FB60FB68B3F1FF3F05D00A4B1B781A468D
:10566000FB681344FB6000BFFFF7DEFF0246BB6828
:10567000D31AFA689A42F7D800BF00BF1037BD4668
:1056800080BD00BF1400002080B584B000AF7860FA
:105690000023FB737B68002B01D1012333E07B687F
:1056A0001B6C002B09D17868FFF7F4FA7B680022A5
:1056B0005A647B68002283F83C207B681B6C03F0F3
:1056C0001003002B18D17B681B6C23F4885323F044
:1056D000020343F002027B681A64786800F0A4FABF
:1056E0007B6800225A647B681B6C23F0030343F041
:1056F00001027B681A6401E00123FB737B680022CE
:1057000083F83C20FB7B18461037BD4680BD000067
:1057100080B485B000AF78600023BB607B6893F8ED
:105720003C30012B01D10223B2E07B68012283F8D7
:105730003C207B681B689B6803F00103012B18D099
:105740007B681B689A687B681B6842F001029A605C
:10575000524B1B68524AA2FB03239A0C13465B0070
:105760001344BB6002E0BB68013BBB60BB68002B1D
:10577000F9D17B681B689B6803F00103012B7AD188
:105780007B681B6C23F4E06323F0010343F4807215
:105790007B681A647B681B685B6803F48063002B7A
:1057A00007D07B681B6C23F4405343F480527B6822
:1057B0001A647B681B6C03F48053B3F5805F06D1D9
:1057C0007B685B6C23F006027B685A6402E07B68AE
:1057D00000225A647B68002283F83C20314BFB6036
:1057E0007B681B686FF022021A60FB685B6803F03D
:1057F0001F03002B2AD17B681B682B4A934215D0CC
:105800007B681B68294A934205D1264B5B6803F0ED
:105810001F03002B0AD07B681B68254A934236D1B0
:10582000204B5B6803F01003002B30D17B681B68B2
:105830009B6803F04053002B29D17B681B689A6852
:105840007B681B6842F080429A6020E07B681B689E
:10585000154A93421BD17B681B689B6803F0405339
:10586000002B14D17B681B689A687B681B6842F028
:1058700080429A600BE07B681B6C43F010027B68EF
:105880001A647B685B6C43F001027B685A640023F6
:1058900018461437BD465DF8047B70470C000020A5
:1058A00083DE1B4300230140002001400021014012
:1058B0000022014080B584B000AF786039600023D9
:1058C000FB607B681B689B6803F48063B3F5806FA3
:1058D00013D17B681B689B6803F48073B3F5807FEA
:1058E0000BD17B681B6C43F020027B681A647B68D9
:1058F000002283F83C20012363E0FFF795FEF86067
:1059000021E03B68B3F1FF3F1DD03B68002B07D07F
:10591000FFF78AFE0246FB68D31A3A689A4212D20F
:105920007B681B681B6803F00203022B0BD07B68AB
:105930001B6C43F004027B681A647B68002283F8C6
:105940003C2003233DE07B681B681B6803F00203D7
:10595000022BD6D17B681B686FF012021A607B683D
:105960001B6C43F400727B681A647B681B689B683D
:1059700003F04053002B23D17B681B7E002B1FD1EB
:105980007B681B68DB6A03F47003002B06D07B681E
:105990001B689B6803F48063002B11D17B681B6C30
:1059A00023F480727B681A647B681B6C03F4805359
:1059B000002B05D17B681B6C43F001027B681A64E5
:1059C000002318461037BD4680BD80B483B000AFB9
:1059D00078607B681B68DB6C18460C37BD465DF849
:1059E000047B704780B485B000AF786039600023D5
:1059F000BB607B6893F83C30012B01D1022305E1A9
:105A00007B68012283F83C203B681B68092B25D961
:105A10007B681B68D9683B681B689BB21A461346B3
:105A20005B0013441E3B072202FA03F3DA437B6850
:105A30001B680A40DA607B681B68D9683B689A6813
:105A40003B681B689BB2184603465B0003441E3B41
:105A50009A407B681B680A43DA6022E07B681B6817
:105A600019693B681B689BB21A4613465B001344D6
:105A7000072202FA03F3DA437B681B680A401A61C3
:105A80007B681B6819693B689A683B681B689BB216
:105A9000184603465B0003449A407B681B680A4330
:105AA0001A613B685B68062B24D87B681B68596BBE
:105AB0003B685A6813469B001344053B1F2202FAB9
:105AC00003F3DA437B681B680A405A637B681B68F0
:105AD000596B3B681B689BB218463B685A68134673
